:020000040800F2
:1000000000300020593C000835250008372500083D
:1000100000000000000000000000000000000000E0
:10002000000000000000000000000000392500086A
:1000300000000000000000003B2500083D250008EE
:10004000A93C000800000000A93C0008A93C0008E9
:10005000A93C0008A93C0008A93C0008A93C0008EC
:1000600000000000A93C0008A93C0008A93C0008C9
:10007000A93C0008A93C0008A93C000800000000B9
:10008000A93C00080000000000000000A93C000896
:1000900000000000A93C0008A93C0008A93C000899
:1000A00000000000A93C000800000000A93C000876
:1000B000A93C000800000000000000000000000053
:1000C0000448054B10B5834203D0044B002B00D0ED
:1000D000984710BD70000020700000200000000054
:1000E00006480749091A8B10C90FC91810B54910DD
:1000F00003D0044B002B00D0984710BD70000020A7
:10010000700000200000000010B5074C2378002B81
:1001100009D1FFF7D5FF054B002B02D0044800E0C2
:1001200000BF0123237010BD7000002000000000FC
:10013000AC3C0008054B10B5002B03D00449054822
:1001400000E000BFFFF7CCFF10BDC046000000007C
:1001500074000020AC3C000870B50D4B0D4D5E1BCB
:10016000B610AB4205D0002408CD01349847A64212
:10017000FAD803F09BFD084B084D5E1BB610AB424E
:1001800005D0002408CD01349847A642FAD870BDA6
:10019000BC3E0008BC3E0008C03E0008BC3E000853
:1001A000F0B50500830749D0541E002A45D003004E
:1001B0000326CAB202E00135013C3ED301332A7066
:1001C0003342F8D1032C30D9FF220A401502AD1872
:1001D0002A04AD180F2C34D92700103F3F093E01E7
:1001E000B4461E001A0010366644156055609560CE
:1001F000D56010329642F8D101373F01DB190F2745
:100200000C22274022403C00002A0ED03E1FB60898
:10021000B400A4461A001C1D644420C2A242FCD1B2
:1002200003240136B6009B193C40002C05D0C9B20E
:100230001C19197001339C42FBD1F0BD030014005E
:10024000C0E72700E2E7C0460EB410B5040083B053
:10025000002802D08369002B0BD006AB2000A168D8
:10026000059A019300F030FA03B010BC08BC03B04B
:10027000184700F021F9F0E70FB410B50B4B82B02E
:100280001C68002C02D0A369002B0BD005AB20000A
:10029000A168049A019300F017FA02B010BC08BCE0
:1002A00004B01847200000F007F9EFE70000002035
:1002B0000020704710B5024900F046F910BDC04655
:1002C000A11100080020704770B568254B1E5D43E2
:1002D0000E002900743100F05BF9041E09D00023E0
:1002E0002A00036046600C300021A0606832FFF7EE
:1002F00057FF200070BDC046F8B5254B07001E68AB
:10030000B369002B26D048367368B468013B03D527
:100310001BE06834013B18D30C22A55E002DF8D1F8
:1003200020001C4B08220021E36065662560A56063
:10033000656025616561A5615C30FFF731FF65632C
:10034000A563A564E5642000F8BD3568002D05D0DF
:100350002E00D9E7300000F01FF8D4E7D62138008E
:10036000490000F015F9041E0DD00423D0220560C9
:10037000250043600C300021A0605200FFF710FF01
:1003800034602E00C0E70C2330603B60DBE7C046E2
:10039000C43C00080100FFFFF0B5D6464F46464674
:1003A000374BC0B5836200238364C3640365354B58
:1003B00005001B6898425FD02800FFF79DFF68602A
:1003C0002800FFF799FFA8602800FFF795FF6E68E7
:1003D0000024E8600423300034607460B460746604
:1003E000F36034617461B461082200215C30FFF76E
:1003F000D7FE254B254F9A467362254B37639946A6
:10040000B362244B3662F362AE6898463000224BEA
:1004100034607460B4607466F36034617461B461B4
:10042000082200215C30FFF7BBFE534673624B4647
:10043000B36243463763F3623662EE68174B3000AF
:10044000F36034607460B460746634617461B46184
:10045000082200215C30FFF7A3FE534673624B462F
:10046000B3624346F362012337633662AB61E0BC9B
:10047000BA46B146A846F0BD012383619CE7C04659
:10048000B5020008C43C0008B10D00084D0E00087C
:10049000DD0D00081D0E0008090001001200020019
:1004A00010B5034B0349186800F04EF810BDC04664
:1004B000C43C0008A1110008836910B5002B01D1CC
:1004C000FFF76AFF10BDC0467047C0467047C04680
:1004D0007047C0467047C04610B5034B03491868C3
:1004E00000F012F810BDC04600000020B102000864
:1004F00010B5034B0349186800F006F810BDC0465C
:1005000000000020C5020008F0B5C6464830884605
:100510000700002600B57D68BC68013D0CD4A389A6
:10052000012B06D90E22A35E013302D02000C04762
:1005300006436834013DF2D23F68002FEBD1300012
:1005400080BCB846F0BDC046F8B54746CE4680B53B
:10055000070080468946002648377D68BC68013D13
:100560000DD4A389012B07D90E22A35E013303D03A
:1005700021004046C84706436834013DF1D23F6838
:10058000002FEAD13000C0BCB946B046F8BDC04625
:10059000F8B50323CD1C9D43083506000C2D1AD257
:1005A0000C25A94219D8300001F056F9284F3A68B5
:1005B000002A16D0140004E063682200002B10D03B
:1005C0001C0023685B1BF7D40B2B2DD86368944267
:1005D0003BD053601AE0002DE3DA0C230020336097
:1005E00021E07B68002B2AD02900300000F0CEFBF0
:1005F000431C1DD00323C41C9C43A04205D0211AD8
:10060000300000F0C3FB013012D02560300001F053
:1006100025F9200007220B30231D9043C21A98426F
:1006200001D01B1AA350F8BD2360E4182560EDE744
:100630000C233000336001F011F90020F3E70021B2
:10064000300000F0A3FB7860CEE73B60DEE7C046F9
:100650008C000020936810B5013B9360002B04DAF6
:100660009469A34207DB0A2905D01368581C10605F
:100670000800197010BD00F0EFFBFBE7F8B50600AD
:100680000F00002B0DD01400D51802E00134AC424D
:1006900007D03A0030002178FFF7DCFF431CF5D18A
:1006A000F8BD0020FCE7C04610B514009268002396
:1006B000002A05D0220000F0E5FD00220300A26020
:1006C00000221800626010BDF0B5454657464E4600
:1006D000DE46E0B58146884617001D009FB0002821
:1006E00003D08369002B00D1A2E0A44B984500D130
:1006F000A4E0A34B984500D1B2E0A24B984500D1AD
:1007000038E143469B891B0700D49FE043461B69A1
:10071000002B00D19AE0002306AC6361203363769E
:100720001033A37653460595974D03933B78002BE2
:1007300000D1B3E03E0004E073780136002B00D115
:1007400092E0252BF8D1F31B9A46BE4200D08FE0F1
:100750003378002B00D1A1E0012300225B420692F6
:1007600007930022002308920993002343320127B4
:100770000136A354A36506E03B00401B834022687A
:1007800001361343236005222800317800F08AFFE8
:100790000028F1D12368DA0602D543222021A15492
:1007A0001A0702D543222B21A15431782A2900D0DF
:1007B00080E0059A111D12680591002A00DAB0E068
:1007C000E2607178731C9B462E2900D187E06F4E42
:1007D0000322300000F066FF002808D04023801B71
:1007E000834022681343236001239C46E3445B4615
:1007F0001978062266485F1C217600F053FF002816
:1008000000D194E0634B002B00D17BE005AA00925D
:10081000210042464846604B00E000BF0390039B26
:1008200001333BD0039A63699446634463617DE777
:10083000FFF742FE514B984500D05AE74B465B68A4
:10084000984643469B891B0700D55FE741464846CB
:1008500000F08CFB002800D15DE70120404222E03F
:100860004B469B6898464CE7F31B9A46BE4215D010
:1008700000239B462B004D46B1464646B8465F4690
:100880009B4602E00137BA4543D94346320028006F
:10089000D95DFFF7DFFE0130F4D1B04643469B89B6
:1008A0005B06DAD460691FB0F0BCBB46B246A9460D
:1008B000A046F0BD0800303809280CD8E3681A00BB
:1008C00093009B1871785B001A18080030380136C5
:1008D0000928F5D9E260B3462E2900D077E75B46B8
:1008E00059782A292DD1981C059B1A1D1B68059241
:1008F0006360002B02DA01235B4263605B46834640
:10090000997864E70722059B0733934308330593DF
:1009100088E76269B04652444E466261A9465D4628
:1009200016E75242E26002221343236049E705AA18
:100930000092210042464846174B00F0DFF8039032
:100940006DE7012308009C4600233038E3446360D0
:10095000092800D93BE71A005E4693009B1871787E
:100960005B001A180800303801360928F5D9B3465B
:1009700062602CE74B46DB689846C2E6083D0008FB
:10098000E83C0008C83C0008803E0008883E00089B
:100990008C3E0008000000007D06000810B5040031
:1009A0001300034A10680A002100FFF78DFE10BDF6
:1009B00000000020F8B557464E464546DE46E0B5F5
:1009C0001F000A9B924698460A698B6806000C0035
:1009D0009A4200DA1A0053461A604323E35C002B64
:1009E00002D0514601320A602268910660D5534612
:1009F000524606201B680233136022681100104221
:100A000008D1192083460020E1688146A344994219
:100A100046DC11004323E35C5A1E934189060AD544
:100A20003020E1184331087045215A1C615CA2183E
:100A30004332023311702200390030004332C04784
:100A400001301CD05346062118682368E2680B4029
:100A5000042B33D0A36821698B423ADD00229146F2
:100A60005B1A994400251A3402E001354D4530DA0D
:100A70000123220039003000C0470130F5D10120A8
:100A80004042F0BCBB46B246A946A046F8BD012391
:100A90009C465346E5681B68E144ED1A4D4525DD4B
:100AA00001235A4639003000C0470130EFD1E6E754
:100AB000062111420FD05A1E9341BCE7121AD343AC
:100AC000DB17134099462169A3688B42C8DC002AD2
:100AD000C8DC0020D5E719205346834600201B6858
:100AE000E1688146A3449942DADC92E74323216816
:100AF000E35C5A1E9341890692D49CE7F0B54E46BA
:100B0000994643239C4657464546DE468C446346F9
:100B1000E0B587B002930C00097E90460700109A5A
:100B2000002912D00B00583BDBB2202B46D894484A
:100B30009B00C3589F462368190600D4E7E013685A
:100B4000191D11601B6862691A600023029D2361F0
:100B50004B46210000933800434605AAFFF72AFFC1
:100B600001301ED02A00414638002369C8470130B1
:100B700017D02368E068059E9B071BD5B04219DD9E
:100B800019239A460025A24404E0E0680135831B3E
:100B9000AB420FDD0123524641463800C8470130C1
:100BA000F3D10120404207B0F0BCBB46B246A94693
:100BB000A046F0BDB042F6DA3000F4E7250042234B
:100BC00001204235E154432300222061E254BFE773
:100BD0002368190602D4590600D5A6E01168081D3D
:100BE00010600A681600002A00DAACE0654B9B46EC
:100BF0000A2303934BE02368180602D45B0600D552
:100C00008EE01368181D10601E685E4B9B466F29AE
:100C100000D1AAE00A23039336E013682500191DCA
:100C200011601A68422301204235E254CBE7136871
:100C3000191D11601D6800212800626800F032FD56
:100C4000002800D19AE0401B6060BCE720232168A7
:100C50000B4323604521782060544B498B4619068D
:100C600031D459062FD51168081D0E881060DA0797
:100C700002D5202213432360002E03D120222368B3
:100C8000934323601023039343230022E2546368B9
:100C9000A360002B1EDB042122688A432260002E01
:100CA00018D1029D002B63D1039B082B24D0029BFB
:100CB0005B1B23614CE745235821E15423683149EC
:100CC0008B461906CDD51168081D10600E68CEE759
:100CD0002368BFE7039B9A46029D3000514600F00F
:100CE00043FF5B465B5C013D2B70330006005345C0
:100CF000F3D2039B082BDAD12368DB07D7D56268D0
:100D000023699A42D3DC3023013D2B70CFE75B0689
:100D100012D513686169181D10601B68198014E7EB
:100D20001368181D1E8810606FE71168081D106099
:100D300000228E5E320056E71368191D11601B6891
:100D400062691A6001E743222D21A1546268A26002
:100D5000002A02DB0422934323600A239A46094BAC
:100D600076429B460A230393B6E7082303938BE757
:100D70005B4625001B7842352B7095E7606822E7BB
:100D8000283D0008943E0008A83E0008002370B5E6
:100D9000064C05000800236000F052FE431C00D002
:100DA00070BD2368002BFBD02B60F9E79400002076
:100DB00070B50C000E25495F00F0D6FD002803DB5E
:100DC000636D1B18636570BDA389024A1340A3813C
:100DD000F9E7C046FFEFFFFF00207047F8B50C00B1
:100DE0001F000C23C95E05001600CB050AD40A4B70
:100DF000320019402800A1810E23E15E3B0000F083
:100E0000A1F8F8BD0E23E15E0022022300F0B0FB42
:100E10000C23E15EEBE7C046FFEFFFFF70B50C006F
:100E20000E25495F00F0A4FB431C07D08023A28954
:100E30005B0113431BB26065A38170BDA389024AA5
:100E400013401BB2F8E7C046FFEFFFFF10B50E23BB
:100E5000C95E00F00BF910BDF8B505000E001400D6
:100E6000002802D08369002B29D02D4B9C422BD027
:100E70002C4B9C4246D02C4B9C424ED0A369A36085
:100E8000A3891B0726D52369002B23D0FF22F7B2A5
:100E9000616916402268D31A99422ADD0133A1689C
:100EA0000139A160511C2160177062699A422BD0F0
:100EB000A389DB0701D50A2E26D03000F8BDFFF745
:100EC000FBFA174B9C42D3D16C68A369A360A3893A
:100ED0001B07D8D42100280000F048F8002819D1B9
:100EE000FF222369F7B2616916402268D31A99423A
:100EF000D4DC2100280000F053F900280AD1012396
:100F00002268CCE7AC68B9E72100280000F048F976
:100F10000028D2D001267642CFE7EC68AEE7C04683
:100F2000083D0008E83C0008C83C0008030010B574
:100F30000A00034908681900FFF78EFF10BDC0467C
:100F40000000002070B50400080011001A00002302
:100F5000054D2B6000F050FF431C00D070BD2B6886
:100F6000002BFBD02360F9E7940000203B4B70B5C9
:100F70001D6806000C00002D02D0AB69002B1AD0B2
:100F8000374B9C421DD0374B9C4249D0364B9C423C
:100F90005DD00C22A35E1A0718D52269002A1FD043
:100FA000D9072DD50021A160616900204942A161C6
:100FB000002A2DD070BD2800FFF77EFA284B9C42F6
:100FC000E1D16C680C22A35E1A07E6D4DA0640D59C
:100FD0005A0727D4226908210B43A381002ADFD1B5
:100FE000A02180208900800019408142D8D02100B2
:100FF000300000F0D1FA0C22A35E2269D907D1D4C7
:101000000021980700D461690020A160002AD1D195
:101010001A06CFD5402213430120A3814042C9E7DD
:10102000AC68B6E7616B00290AD0220044329142D5
:1010300004D0300000F014FC0C22A35E0022626396
:10104000242293430022626022692260C3E7EC6895
:101050009FE70922326037321343DDE700000020AA
:10106000083D0008E83C0008C83C0008002370B5B3
:10107000064C05000800236000F0BAFC431C00D0B9
:1010800070BD2368002BFBD02B60F9E79400002093
:10109000F0B5C64600B50C228B5E07000C001A079F
:1010A0003ED44A68002A60DDE56A002D36D0002271
:1010B0003E683A60DA045DD4002201233800216AD8
:1010C000A8470200431C60D00C21635EE56A5B0701
:1010D00006D56368D21A636B002B01D0236CD21A39
:1010E00000233800216AA847431C45D13B68002BE8
:1010F00042D01D2B01D0162B2DD100236360236914
:101100002360616B3E60002908D02300443399427C
:1011100002D0380000F0A4FB00236363002021E02C
:101120000E69002EFAD00D680022AD1B0E609B07E1
:1011300000D14A69A260002D04DCEFE736182D1AB1
:10114000002DEBDDA36A3200984638002B00216A9F
:10115000C0470028F2DC40220120A389404213430B
:101160001BB2A38180BCB846F0BD0A6C002A9BDC90
:101170000020F7E7626DAAE700236360236923601C
:10118000A389DB04BDD56065BBE73B68002B9BD022
:101190001D2B01D0162BDED100203E60E2E7C046B9
:1011A0000B6970B505000C00002B16D0002802D08A
:1011B0008369002B15D00E4B9C4210D00D4B9C42E6
:1011C00012D00D4B9C4211D00C22A35E002B04D0F8
:1011D00021002800FFF75CFF00E0002070BD6C6874
:1011E000F2E7FFF769F9E6E7AC68EDE7EC68EBE7F3
:1011F000083D0008E83C0008C83C000870B5041E23
:1012000029D01A4B1D680369002B1BD0002D02D07A
:10121000AB69002B18D0164B9C420ED0154B9C424C
:101220001FD0154B9C421ED00C22A35E002B09D070
:1012300021002800FFF72CFF70BD6C680C22A35E14
:10124000002BF5D10020F7E72800FFF735F9084B10
:101250009C42E3D1F1E7094B09491868FFF774F99B
:10126000EAE7AC68E0E7EC68DEE7C0460000002093
:10127000083D0008E83C0008C83C0008C43C0008E1
:10128000A1110008F0B54546DE4657464E46E0B58A
:10129000936883B00C0090460090002B25D00C2260
:1012A0008B5E1A0729D50A69002A26D0424616689D
:1012B0009A072ED5AB4B002700259946002D5DD00F
:1012C0002B004D4500D9A74BA26A216A924600988F
:1012D0003A00D04700285BDD434642469B683F18F2
:1012E0001B1A2D1A9360002BE8D1002003B0F0BC2C
:1012F000BB46B246A946A046F0BD21000098FFF7C4
:1013000035FE002849D10C22A35E424616689A0792
:10131000D0D4DA0744D400229146802292000027DC
:101320009346002F25D05A46A568134200D17DE090
:10133000AA46BD4200D9ADE09022D200134200D0AF
:10134000B9E020685246494600F02EFAA3685B1BBC
:101350003D000027A3602368534423604346424670
:101360009B68A9445B1B9360BFD00C22A35E002F37
:10137000D9D13268776891460836D2E73768756800
:1013800008369BE721000098FFF70AFF00282CD0C1
:101390000C22A35E40221343A38101204042A5E713
:1013A00000230027B14600209A461E00002F28D0B7
:1013B00000282FD03300BB469F4200D99B462068AF
:1013C0002269A5686369904203D9ED18AB4500DD39
:1013D0009FE05B4562DCA56A5246216A0098A847F7
:1013E000051ED5DD0120761BCCD0434642469B68C6
:1013F000AA445B1B7F1B9360002B00D175E7002F75
:10140000D6D108224B4694465F68E144002FF8D0BD
:101410001B689A463A000A21504600F043F900281A
:1014200000D196E053460130C61AC3E7206823690D
:10143000984217D863699A46BB4213D88023380074
:101440001B069F4200D34848514600F091FB53468B
:10145000A56A43434A46216A0098A847051E97DDBE
:101460007F1B7BE7BD4200D93D002A00494600F0C2
:101470009BF9A36822685B1B5219A3602260002BB2
:10148000EED121000098FFF78BFE002800D07FE707
:101490007F1B63E73D00BA46206853E75A46514632
:1014A00000F082F95A46A3685D469B1AA360236840
:1014B0005B44236096E7606922682169551A4200FF
:1014C0001218D00F8218681C5210C019924601954C
:1014D000904201D9824602005B0529D5110000988F
:1014E000FFF756F8051E37D0019A216900F014F96C
:1014F000A3891E4A134080221343A3815246019BB5
:101500002561E818D31A3D00BA4620606261A360E5
:1015100018E751462A0000F047F9236821005B19BB
:1015200000982360FFF73CFE002800D15AE72FE720
:10153000009800F0F1F9051EE0D1009D2169280016
:1015400000F08EF98022A3899343743A1BB22A607B
:1015500020E77B1C1E002EE70C23009A13600C2250
:10156000A35E17E700FCFF7FFFFFFF7F7FFBFFFF0E
:1015700070B50400080011001A000023054D2B600F
:1015800000F04EFA431C00D070BD2B68002BFBD03E
:101590002360F9E794000020F0B50C228B5E060072
:1015A0000C0097B09A0707D52300473323602361C7
:1015B0000123636117B0F0BD0E22895E002930DB84
:1015C0006A4600F0E5F9002829DBF023019D1B02A3
:1015D0001D401F4B80279C4665446B425D41FF00C8
:1015E00039003000FEF7D4FF002826D08021194AA8
:1015F000B262A28920600A43A28120616761002D46
:10160000D8D030000E23E15E00F0D6F90028D1D00A
:101610000322A389934301221343A381CAE70C2227
:10162000A35E002540271B06DAD48027FF0039007F
:101630003000FEF7ADFF0028D8D10C22A35E9A053A
:10164000B8D40322934302221343A381ACE7C046DC
:1016500000E0FFFFB502000870B50C001E000E236D
:10166000C95E150096B0002914DB6A4600F090F9B7
:1016700000280FDBF02301991B021940084B9C4600
:1016800061444B4259418023DB00002031602B60D4
:1016900016B070BDA38900211B06F4D54023F4E7E2
:1016A00000E0FFFF70B5CCB283070FD0531E002AB5
:1016B0000AD0032504E00130284208D0013B03D3BF
:1016C0000278A242F7D170BD0020FCE71300032B83
:1016D00012D9FF220A401502AD182A040C4EAD188B
:1016E00003E0043B0430032B06D9026809496A4031
:1016F000511891433142F4D0C218002B03D1E3E7D3
:1017000001309042E0D00378A342F9D1DBE7C04634
:1017100080808080FFFEFEFEF0B505000F2A33D9E1
:101720000324030026000B431E401C4237D1150042
:10173000103D2D0903000C00AC462F013F186568D1
:101740005D60A5689D60E568DD60256810341D60FA
:101750001D001033BD42F2D165460F230C24013524
:101760002D0149191340451914421AD08C59AC5116
:1017700004369C1B032CF9D8043B9B0801339B00C7
:10178000ED18C91803231A40561E002A06D000235C
:10179000CC5C1A00EC5401339642F9D1F0BD561ED0
:1017A000F5E71A00F0E7C046F0B588420AD98B1871
:1017B000984207D2531E002A03D0CA5CC254013B90
:1017C000FBD2F0BD05000F2A0AD8561E002AF8D019
:1017D0000023CC5C1A00EC5401339642F9D1F0E7B7
:1017E0000324030026000B431E401C4230D1150089
:1017F000103D2D0903000C00AC462F013F18256851
:101800001D6065685D60A5689D60E5681034DD60F9
:101810001D001033BD42F2D165460F230C24013563
:101820002D01491913404519144213D08C59AC515C
:1018300004369C1B032CF9D8043B9B0801339B0006
:10184000ED18C91803231A40561E002AC0D1B8E764
:10185000561EBDE71A00B8E77047C0467047C0463D
:1018600070B50500002915D00C1F2368002B23DB61
:101870002800FFF7F1FF274A1368002B05D0A34289
:101880000BD92168601883422CD028006360146053
:10189000FFF7E4FF70BDA34210D81A005B68002B6D
:1018A000F9D1106811188C4218D02CD363605460A1
:1018B0002800FFF7D3FFEDE7E418D9E711685018C7
:1018C000A04214D01FD8216860188342EED1186856
:1018D0005B684118216063605460E9E723681B1866
:1018E0001360E5E718685B6841182160CDE7206860
:1018F0000918501811608342DAD118685B684118E2
:1019000011605360D4E70C2328002B60FFF7A6FF7B
:10191000C0E7C0468C000020F8B506000C0015009A
:1019200000291BD0002A15D000F058F82700A84243
:1019300001D33800F8BD29003000FEF729FE071E4C
:101940000AD021002A00FFF7E7FE21003000FFF750
:1019500087FFEEE7FFF784FF0027EAE71100FEF7B5
:1019600017FE0700E5E7C04670B504000800110047
:101970001A000023054D2B6000F05AF8431C00D0DC
:1019800070BD2B68002BFBD02360F9E7940000208A
:10199000002370B5074D0400080011002B6000F013
:1019A0002FF8431C00D070BD2B68002BFBD02360A8
:1019B000F9E7C04694000020002370B5064C0500EE
:1019C0000800236000F024F8431C00D070BD236899
:1019D000002BFBD02B60F9E7940000200B1F1B6845
:1019E000181F002B00DB70470B58C018FBE7C046E0
:1019F00058220120014B40421A6070479400002099
:101A000058220120014B40421A6070479400002088
:101A10005822024B00201A607047C04694000020F4
:101A200058220120014B40421A6070479400002068
:101A300058220120014B40421A6070479400002058
:101A4000044A03001068002802D0C31813607047CE
:101A50000148FAE798000020B00200200022430865
:101A60008B4274D303098B425FD3030A8B4244D366
:101A7000030B8B4228D3030C8B420DD3FF220902A8
:101A800012BA030C8B4202D31212090265D0030B67
:101A90008B4219D300E0090AC30B8B4201D3CB035D
:101AA000C01A5241830B8B4201D38B03C01A52419F
:101AB000430B8B4201D34B03C01A5241030B8B42A1
:101AC00001D30B03C01A5241C30A8B4201D3CB028C
:101AD000C01A5241830A8B4201D38B02C01A524171
:101AE000430A8B4201D34B02C01A5241030A8B4274
:101AF00001D30B02C01A5241CDD2C3098B4201D38C
:101B0000CB01C01A524183098B4201D38B01C01A09
:101B1000524143098B4201D34B01C01A5241030980
:101B20008B4201D30B01C01A5241C3088B4201D32F
:101B3000CB00C01A524183088B4201D38B00C01ADC
:101B4000524143088B4201D34B00C01A5241411A03
:101B500000D20146524110467047FFE701B5002010
:101B600000F0F0F802BDC0460029F7D076E77047D4
:101B700003460B437FD4002243088B4274D30309EE
:101B80008B425FD3030A8B4244D3030B8B4228D38F
:101B9000030C8B420DD3FF22090212BA030C8B42B5
:101BA00002D31212090265D0030B8B4219D300E055
:101BB000090AC30B8B4201D3CB03C01A5241830BDA
:101BC0008B4201D38B03C01A5241430B8B4201D38A
:101BD0004B03C01A5241030B8B4201D30B03C01AB3
:101BE0005241C30A8B4201D3CB02C01A5241830A2D
:101BF0008B4201D38B02C01A5241430A8B4201D35C
:101C00004B02C01A5241030A8B4201D30B02C01A85
:101C10005241CDD2C3098B4201D3CB01C01A5241EC
:101C200083098B4201D38B01C01A524143098B4275
:101C300001D34B01C01A524103098B4201D30B015E
:101C4000C01A5241C3088B4201D3CB00C01A524183
:101C500083088B4201D38B00C01A524143088B4248
:101C600001D34B00C01A5241411A00D201465241E1
:101C7000104670475DE0CA0F00D04942031000D300
:101C80004042534000229C4603098B422DD3030A55
:101C90008B4212D3FC22890112BA030A8B420CD365
:101CA000890192118B4208D3890192118B4204D38E
:101CB00089013AD0921100E08909C3098B4201D30E
:101CC000CB01C01A524183098B4201D38B01C01A48
:101CD000524143098B4201D34B01C01A52410309BF
:101CE0008B4201D30B01C01A5241C3088B4201D36E
:101CF000CB00C01A524183088B4201D38B00C01A1B
:101D00005241D9D243088B4201D34B00C01A5241F1
:101D1000411A00D20146634652415B10104601D37E
:101D20004042002B00D54942704763465B1000D308
:101D3000404201B5002000F005F802BD0029F8D0AE
:101D400016E770477047C04672B6FEE700B58DB023
:101D50001C22002105A8FEF723FA14220021684660
:101D6000FEF71EFA02230593FE330893C03B0A9345
:101D700005A800F0AFFC00280ED107230093002334
:101D800001930293039304930121684600F02EFE11
:101D9000002803D10DB000BDFFF7D6FFFFF7D4FF39
:101DA00010B500F013FCFFF7D1FF00F031F800F0A0
:101DB000B9F900F057FA00F0D1FA00F00BFB00F08F
:101DC00061FB01F00BFC002010BD000010B5FFF717
:101DD000E7FF074801F01CF9054B1B68596A090425
:101DE000090C0448FEF748FA642000F00DFCF3E704
:101DF000CC010020AC3D000810B51400012392B2C4
:101E000002485B4201F007FE200010BD1C020020CA
:101E1000F0B5C64600B58AB01422002105A8FEF729
:101E2000BFF9274B596B042211435963596B0A4080
:101E30000092009A5A6B20252A435A635A6B2A4013
:101E40000192019A5A6B012422435A635A6B224031
:101E50000292029A596B022211435963596B0A404C
:101E60000392039A596B0822114359635B6B1A4022
:101E70000492049BA023DB05984601222021180030
:101E800000F074FF8027BF000E4E002239003000A2
:101E900000F06CFF05950694002507950323089331
:101EA00005A9404600F084FE05970694079508951D
:101EB00005A9300000F07CFE0AB080BCB846F0BD39
:101EC000001002400004005086B00368224A93428A
:101ED00016D0224A93421FD0214A934226D0214A4B
:101EE00093422ED0204A934214D1204B1A6C802169
:101EF000C9020A431A641B6C0B400593059B09E059
:101F00001A4B1A6C802109010A431A641B6C0B409E
:101F10000193019B06B07047144AD16B0223194309
:101F2000D163D26B13400293029BF3E70F4B1A6C01
:101F3000802109020A431A641B6C0B400393039B24
:101F4000E8E70A4B1A6C802189020A431A641B6C69
:101F50000B400493049BDDE7002C0140000400408B
:101F600000200040004401400048014000100240B1
:101F7000F0B58FB004001422002109A8FEF710F973
:101F800023685E4A934210D05D4A934235D05D4A41
:101F9000934200D177E05C4A934200D186E05B4AED
:101FA000934200D195E00FB0F0BD594B596B202200
:101FB00011435963596B0A400192019A596B0122EE
:101FC000114359635B6B13400293029B04230993F3
:101FD00002240A940D9209A94E4800F0E9FD072356
:101FE00009930A9400230B930C9305330D93A020BF
:101FF00009A9C00500F0DCFDD5E7454B596B04226B
:1020000011435963596B0A400392039A5A6B012694
:1020100032435A635A6B32400492049A5A6B022438
:1020200022435A635B6B23400593059B8023DB01AE
:1020300009930A940B230D93374F09A9380000F038
:10204000B7FD80231B0209930A9400250B950C957C
:1020500003230D9309A9380000F0AAFD402309933A
:102060000A940B950C950D96A02009A9C00500F0C7
:102070009FFD09940A940B950C950D9609A9274884
:1020800000F096FD8FE7224A516B202319435163DC
:10209000526B13400693069B0123099301330A9365
:1020A0000D9309A91B4800F083FD7CE7184A516B8A
:1020B000082319435163526B13400793079B012375
:1020C000099301330A930D9309A9154800F070FD97
:1020D00069E70F4A516B012319435163526B134057
:1020E0000893089B802309937E3B0A9303330D9347
:1020F000A02009A9C00500F05BFD54E7002C0140B9
:10210000000400400020004000440140004801401D
:10211000001002400014005000080050000400505D
:10212000000C005000B59DB01022002118A8FEF749
:1021300037F80C22002115A8FEF732F81C220021E6
:102140000EA8FEF72DF83422002101A8FEF728F88A
:102150004148424B0360002343608360404AC260B1
:1021600003614361836100F0C5FF002859D18023DA
:102170005B011893384818A901F006F9002853D1DB
:10218000354800F0E7FF002851D10023159316933E
:102190001793314815A901F07BF900284AD1602333
:1021A0000E9300230F931093119312931393149390
:1021B000294800220EA901F039F800283DD126480F
:1021C00004220EA901F032F8002839D12248082251
:1021D0000EA901F02BF8002835D11F480C220EA9BA
:1021E00001F024F8002831D10023019302930393D6
:1021F0000493059380229201069207930893099312
:10220000802292040A920B930C930D93124801A919
:1022100001F076F900281CD10F48FFF7A9FE1DB088
:1022200000BDFFF791FDA2E7FFF78EFDA8E7FFF7DE
:102230008BFDAAE7FFF788FDB1E7FFF785FDBEE755
:10224000FFF782FDC2E7FFF77FFDC6E7FFF77CFDE2
:10225000CAE7FFF779FDDFE7CC010020002C014041
:10226000FFFF000000B58FB0102200210AA8FDF783
:1022700097FF0C22002107A8FDF792FF1C220021E6
:102280006846FDF78DFF3248324B03600023436000
:102290008360314AC2600361836100F02BFF002834
:1022A0003DD180235B010A9329480AA901F06CF80B
:1022B000002837D1264800F04DFF002835D10023F3
:1022C00007930993224807A901F0E2F800282FD1CB
:1022D0006023009300230193029304931C4800227F
:1022E000694600F0A3FF002825D119480422694659
:1022F00000F09CFF002821D115480822694600F013
:1023000095FF00281DD112480C22694600F08EFF6F
:10231000002819D10E48FFF72BFE0FB000BDFFF7C4
:1023200013FDBEE7FFF710FDC4E7FFF70DFDC6E79D
:10233000FFF70AFDCCE7FFF707FDD6E7FFF704FD3F
:10234000DAE7FFF701FDDEE7FFF7FEFCE2E7C04654
:102350008001002000040040FFFF000000B589B0AC
:102360001C22002101A8FDF71BFF1748174B036033
:10237000002343608360164AC2600361836100F0FA
:10238000B9FE002816D1104800F0E4FE002814D150
:102390006023019300230293039305930A480022CC
:1023A00001A900F043FF00280AD10748FFF7E0FD2C
:1023B00009B000BDFFF7C8FCE5E7FFF7C5FCE7E79C
:1023C000FFF7C2FCF1E7C0463401002000200040C6
:1023D000FFFF000000B595B01C2200210DA8FDF7FD
:1023E000DFFE342200216846FDF7DAFE2248234B47
:1023F0000360002343608360214AC260036143613C
:10240000836100F077FE00282AD11B4800F0A2FE6D
:10241000002828D160230D9300230E930F9310936F
:10242000119312931393144800220DA900F0FEFE9D
:1024300000281BD10023009301930293039304937C
:1024400080229201059206930C930B48694601F095
:1024500057F800280DD10848FFF78AFD15B000BDD8
:10246000FFF772FCD1E7FFF76FFCD3E7FFF76CFCD7
:10247000E0E7FFF769FCEEE7E800002000440140D8
:10248000FFFF000000B595B01C2200210DA8FDF74C
:1024900087FE342200216846FDF782FE2248234B46
:1024A0000360002343608360214AC260036143618B
:1024B000836100F01FFE00282AD11B4800F04AFE6D
:1024C000002828D160230D9300230E930F931093BF
:1024D000119312931393144800220DA900F0A6FE45
:1024E00000281BD1002300930193029303930493CC
:1024F00080229201059206930C930B48694600F0E6
:10250000FFFF00280DD10848FFF732FD15B000BDD0
:10251000FFF71AFCD1E7FFF717FCD3E7FFF714FC2E
:10252000E0E7FFF711FCEEE79C00002000480140C7
:10253000FFFF0000FEE7FEE77047704710B500F0B0
:1025400051F810BD82B00A4B196C01221143196475
:10255000196C0A400092009ADA6B802149050A43FF
:10256000DA63DB6B0B400193019B02B07047C046FE
:102570000010024010B50400114B1978002901D158
:10258000012010BDFA208000FFF768FA01000D4B12
:102590001868FFF763FA00F099F800280DD1032CB2
:1025A00001D90120EDE7013000222100404200F076
:1025B00089F8054B1C600020E3E70120E1E7C046F5
:1025C000640000206C0000206800002010B503208B
:1025D000FFF7D0FF041E02D00124200010BDFFF73A
:1025E000B1FFFAE7034B1B78034A11685B181360CD
:1025F0007047C0466400002018020020014B186894
:102600007047C0461802002070B50400FFF7F6FFBF
:102610000500631C02D0044B1B78E418FFF7EEFFA3
:10262000401BA042FAD370BD6400002070B50028A2
:1026300011DB8308134DC0339B005C59032210400B
:10264000C000FC3216008640B44389010A40824033
:1026500022435A5170BD0F230340083B9B080633A9
:102660009B00094A944663445C6803221040C00002
:10267000FC3215008540AC4389010A408240224368
:102680005A60E7E700E100E000ED00E00138802358
:102690005B0498420FD2094A50600948036A1B0242
:1026A0001B0AC02109060B43036200239360073312
:1026B0001360002070470120FCE7C04610E000E0F6
:1026C00000ED00E010B5FFF7B1FF10BD10B5FFF74A
:1026D000DDFF10BD70B5041E00D139E10368DB07D2
:1026E0002CD5A14B9A6838231340082B22D043687D
:1026F0008022520293422ED0A022D202934231D0A5
:10270000994B1A6899490A401A601A6898490A4010
:102710001A606368002B31D0FFF770FF0500924B01
:102720001B689B030AD4FFF769FF401B6428F6D996
:1027300003200EE14368002B00D10BE123689B07C7
:1027400047D5894B9B6838221A4261D1E368002B38
:1027500022D10120FDE0844A116880235B020B43F3
:102760001360D6E7804B19688022D2020A431A60B0
:102770001968802252020A431A60CAE7FFF73EFF37
:102780000500794B1B689B03D8D5FFF737FF401B2B
:102790006428F6D90320DCE0734B5A6875490A4077
:1027A000616909020A435A601A6873490A4021693B
:1027B0000A431A601B68DB0A07221A406F4BD3409A
:1027C0006F4A13606F4B1868FFF7D4FE002800D0E3
:1027D000C2E023681B0757D5634B9A683823134020
:1027E000182B4ED0A369002B77D05F4A136E0121BE
:1027F0000B431366FFF702FF05005B4B1B6E9B0745
:1028000042D4FFF7FBFE401B0228F6D90320A0E0CC
:10281000E368002B22D0544A136857490B402169C2
:102820000B431360116880235B000B431360FFF7B9
:10283000E5FE05004C4B1B685B0506D4FFF7DEFE8A
:10284000401B0228F6D9032083E047494B68494AD8
:1028500013406269120213434B60BAE7424A13689D
:1028600049490B401360FFF7C9FE05003E4B1B684A
:102870005B05AED5FFF7C2FE401B0228F6D9032048
:1028800067E0A369002B69D023685B0768D5364BE6
:102890009A6838231340202B32D0A368012B34D000
:1028A000052B38D0304BDA6D01218A43DA65DA6DB9
:1028B00003318A43DA65A368002B38D0FFF79EFE08
:1028C0000400294BDB6D9B072FD4FFF797FE001BFD
:1028D0002E4B9842F5D903203BE0234A136E012189
:1028E0008B431366FFF78AFE05001F4B1B6E9B0789
:1028F000CAD5FFF783FE401B0228F6D9032028E043
:10290000A368002B2ED0002023E0174AD36D0121AD
:102910000B43D365CFE7144BDA6D04210A43DA6524
:10292000DA6D03390A43DA65C5E7002011E0FFF7E5
:1029300065FE04000C4BDB6D9B0707D5FFF75EFEC1
:10294000001B124B9842F5D9032002E0002000E062
:10295000012070BD0120FCE70120FAE70120F8E723
:102960000020F6E70120F4E700100240FFFFFEFF21
:10297000FFFFFBFFFF80FFFFFFC7FFFF006CDC02D4
:102980006C00002068000020FFFEFFFF881300009D
:10299000144B9B6838221A4207D1124B1A68D20A8C
:1029A000072313401048D84070470E4B9A683823CD
:1029B0001340082B10D00B4B9A6838231340202B60
:1029C0000CD0084B9A6838231340182B01D00020F4
:1029D000EAE7FA20C001E7E70348E5E780200002C4
:1029E000E2E7C04600100240006CDC0270B5040053
:1029F0000D00002800D1AAE0574B1A6807231340A6
:102A00008B4228D323689A0710D55B0707D5534913
:102A10008A68534B1A40B0231B0113438B604F4A03
:102A2000936850490B40E1680B4393602368DB07D0
:102A300052D54A4A13681C218B43A1680B4313608B
:102A40006368012B1ED0002B38D1444A126852050E
:102A50001BD4012063E0404A136807218B432B43BA
:102A60001360FFF7CBFD06003B4B1A6807231340AA
:102A7000AB42C7D0FFF7C2FD801B3B4A9042F3D95F
:102A800003204CE01268920363D534498A6807201A
:102A9000824313438B60FFF7B1FD06002F4B9B6809
:102AA00038221A406368DB009A4215D0FFF7A6FD72
:102AB000801B2D4B9842F1D9032030E0032B05D029
:102AC000264AD26D9207E0D4012028E0234A126EF4
:102AD0009207DAD4012022E01F4B1A680723134023
:102AE000AB421DD823685B0706D51C4A93681F4973
:102AF0000B4021690B439360FFF74AFF174B9A681D
:102B0000120A0F2313401A4A9B009A581F2313409E
:102B1000D840184B1860184B1868FFF72BFD70BD94
:102B20000D4A136807218B432B431360FFF766FDA3
:102B30000600094B1A6807231340AB42D2D0FFF7B7
:102B40005DFD801B084B9842F3D90320E7E7012085
:102B5000E5E70120E3E7C046002002400010024004
:102B6000FF84FFFFFFF0FFFF88130000FF8FFFFFD0
:102B7000283E00086C00002068000020014B186807
:102B80007047C0466C00002010B5FFF7F7FF064BFA
:102B90009A68120B07231340044A9B009A581F237C
:102BA0001340D84010BDC04600100240083E000847
:102BB000F0B5D6464F464646C0B500233BE0052556
:102BC00000E00025A5402C003C43634D18329200E4
:102BD00054518022AF584A46D2433D004C46A5434B
:102BE0004C68E40302D53D004C4625435A4C8027EF
:102BF000E551842567593D0015404C68A40302D572
:102C00003D004C462543544C8427E55127683D0040
:102C100015404C68E40202D53D004C4625434E4C1D
:102C2000256065682A404C68A40201D54A462A43BB
:102C3000494C626001330C682200DA4000D186E022
:102C400001229A4026001640B1461442F2D04C6848
:102C5000022C01D0122C18D1DD080835AD002C58FB
:102C6000A44607271F40BF000F24A2462600BE40EF
:102C7000B04666464446A643B4460C6956462640CE
:102C80003400BC40664634432C500468A4465D00C2
:102C90000324A2462700AF40B846FF436646444699
:102CA000A643B4464C68564626403400AC406646BF
:102CB000344304604C68661E012E03D9112C01D0E8
:102CC000122C12D184683C40A446CC68AC406646C5
:102CD00034438460446894434A681209944601224C
:102CE000664632409A40224342604A68032A05D031
:102CF000C4683C408A68AA402243C2604A68D20045
:102D000098D59A0814001834A400134D6759032469
:102D10001C40E4000F25A540AF43A025ED05A842C7
:102D200000D14EE70D4DA8420BD00D4DA8420AD060
:102D30000C4DA84209D00C4DA84200D13FE7062512
:102D400040E701253EE702253CE703253AE7E0BCE2
:102D5000BA46B146A846F0BD001802400004005033
:102D600000080050000C005000140050002A01D050
:102D7000816170478162FCE730B5056A036A012210
:102D80009343036242688369164C23400C681C43DA
:102D900002239D438B682B43134DA84205D0134D4E
:102DA000A84202D0124DA84206D10825AB431D000F
:102DB000CB682B430425AB430B4DA84205D00B4DEC
:102DC000A84202D00A4DA84205D10A4D2A404D69B9
:102DD00015438A692A43426084614A6842630362F8
:102DE00030BDC0468CFFFEFF002C01400044014076
:102DF00000480140FFFCFFFF30B5046A036A164A31
:102E0000134003624268C369144D2B400D681D4393
:102E1000134B1C408B681B022343124CA04206D06C
:102E2000114CA0420AD0114CA0420FD106E0104C28
:102E30001C40CB681B0223430E4C23400E4C224007
:102E40004C69240114438A69120122434260C5611E
:102E50004A68C263036230BDFFFEFFFF8CFFFEFFC6
:102E6000FFFDFFFF002C01400044014000480140ED
:102E7000FFF7FFFFFFFBFFFFFFCFFFFF30B5046A47
:102E8000036A114A134003624568C3690F4A13403D
:102E90000A6812021A430E4B1C408B681B03234323
:102EA0000C4CA04205D00C4CA04202D00B4CA042CE
:102EB00004D10B4C2C404D69AD0125434560C261E6
:102EC0004A680264036230BDFFEFFFFFFF8CFFFE24
:102ED000FFDFFFFF002C014000440140004801409B
:102EE000FFBFFFFF30B5046A036A114A1340036253
:102EF0004268436D0F4D2B400D681D430E4B1C4027
:102F00008B681B0423430D4CA04205D00C4CA042FF
:102F100002D00C4CA04204D1054C14404A69120264
:102F20002243426045654A688265036230BDC046FF
:102F3000FFFFFEFF8FFFFEFFFFFFFDFF002C0140A4
:102F4000004401400048014030B5046A036A114A58
:102F5000134003624568436D0F4A13400A6812022A
:102F60001A430E4B1C408B681B0523430C4CA0429C
:102F700005D00C4CA04202D00B4CA04204D10B4C0B
:102F80002C404D69AD022543456042654A68C265E3
:102F9000036230BDFFFFEFFFFF8FFFFEFFFFDFFF8C
:102FA000002C01400044014000480140FFFFFBFFAE
:102FB00030B5036A046A0125AC4304628469EF35C5
:102FC000AC43120122430A24A3430B4382610362F0
:102FD00030BD000030B5036A046A1025AC430462BA
:102FE0008469054D2C4012032243A024A343090108
:102FF00019438261016230BDFF0FFFFF8368034AFE
:1030000013400B4307221343836070478FFFCFFFAA
:103010003D23C35C012B1DD13C330222C254036803
:103020000F4A934208D00F4A934205D01A680121F3
:103030000A431A6000200EE09A680B490A40062AEB
:103040000AD007398A4209D01A6801210A431A6056
:10305000002000E0012070470020FCE70020FAE794
:10306000002C0140000400400700010070470000F0
:1030700003681A4A904202D0194A904203D1702242
:1030800093434A681343154A90420BD0144A904226
:1030900008D0144A904205D0134A904202D0134AF5
:1030A000904203D1124A1340CA68134380229343CB
:1030B0004A69134303608B68C3620B688362074BE2
:1030C000984205D0084B984202D0084B984201D153
:1030D0000B690363012343617047C046002C014024
:1030E000000400400020004000440140004801402E
:1030F000FFFCFFFF70B5041E2AD03D23C35C002BEC
:1031000020D03D2502236355210001C9FFF7B0FF00
:1031100001234822A3540A3AA3540132A354013292
:10312000A3540132A3540132A3540132A3540132F7
:10313000A3540132A3540132A3540132A354635562
:10314000002070BD3C330022C254FEF7BDFED8E71C
:103150000120F6E770B5041E2AD03D23C35C002B86
:1031600020D03D2502236355210001C9FFF780FFD0
:1031700001234822A3540A3AA3540132A354013232
:10318000A3540132A3540132A3540132A354013297
:10319000A3540132A3540132A3540132A354635502
:1031A000002070BD3C330022C254FFF75FFFD8E718
:1031B0000120F6E770B5026A036A1024A343036294
:1031C00045688369144C23400C6824021C43202367
:1031D0009A438B681B011343104A904206D0104A51
:1031E00090420BD00F4A904210D107E080229343C7
:1031F0001E00CB681B013343403A93430A4A1540F3
:103200004A6992002A438D69AD0015434560846187
:103210004A688263036270BDFF8CFFFE002C014090
:103220000044014000480140FFF3FFFF70B5040077
:103230000D003C23C35C012B00D192E03C23012113
:10324000C154142A00D987E09200474B9B589F46EF
:1032500000682900FFF790FD2268936908210B435D
:1032600093612268936904398B439361226893695F
:1032700029690B43936100206FE000682900FFF784
:1032800099FF2268916980231B010B439361226897
:10329000936936490B40936121688B692A69120250
:1032A00013438B61002058E000682900FFF7A4FD5C
:1032B0002268D36908210B43D3612268D36904399A
:1032C0008B43D3612268D36929690B43D361002002
:1032D00043E000682900FFF7D1FD2268D16980230F
:1032E0001B010B43D3612268D36920490B40D36192
:1032F0002168CB692A6912021343CB6100202CE0BC
:1033000000682900FFF7EEFD2268536D08210B438A
:1033100053652268536D04398B4353652268536D9E
:1033200029690B435365002017E000682900FFF767
:103330000BFE2268516D80231B010B4353652268ED
:10334000536D0A490B40536521684B6D2A6912027F
:1033500013434B65002000E001203C230022E2548F
:1033600070BD0220FCE7C046B43D0008FFFBFFFF34
:1033700030B58468034D2C401B0213430B43234399
:10338000836030BDFF00FFFF10B5040008003C2340
:10339000E35C012B00D177E03C230122E2540133AE
:1033A0000132E2542268936838490B409360016807
:1033B00060294FD029D8402957D00CD9502922D183
:1033C0004168C2682068FFF7F3FD20685021FFF7CD
:1033D00015FE002005E020290ED009D930290BD098
:1033E00001203D230122E254013B0022E25410BDA2
:1033F000002901D0102904D12068FFF7FFFD00202B
:10340000EFE70120EDE70120EBE780225201914236
:1034100036D08022920191420DD181684268C36802
:103420002068FFF7A5FF226891688023DB010B432A
:1034300093600020D5E7702924D181684268C36871
:103440002068FFF795FF2268936877210B4393600C
:103450000020C6E74168C2682068FFF7BBFD20680E
:103460006021FFF7CBFD0020BBE74168C268206800
:10347000FFF79EFD20684021FFF7C0FD0020B0E768
:103480000020AEE70120ACE70220B0E78800CEFFC5
:1034900030B53C23C35C012B29D03C230122C2540C
:1034A00001330132C254026853689568114CA2423C
:1034B00018D07024A3430C682343536003680D4A5B
:1034C000934202D00C4A934204D1802295438A68E9
:1034D0002A439A603D230122C254013B0022C25478
:1034E000002030BD054C23404C682343E1E7022017
:1034F000F7E7C046002C014000040040FFFF0FFF2B
:1035000010B53C23C35C012B44D03C230122C254A0
:10351000CB68214A13408A681343204A13404A6803
:1035200013431F4A13400A6813431E4A13400A6993
:1035300013431D4A13404A6913431C4A13400A6B44
:1035400013431B4A13408A69120413430268194C3F
:10355000A24208D0174CA2420AD053643C23002256
:10356000C254002010BD144C2340CC692343F1E722
:10357000124C23408C6A24052343114C23400C6ACF
:103580002343104C23404C6A23430F4C2340C96A09
:103590000B43E2E70220E5E7FFFCFFFFFFFBFFFF35
:1035A000FFF7FFFFFFEFFFFFFFDFFFFFFFBFFFFFA3
:1035B000FFFFF0FF002C0140FFFFFFEFFFFF0FFFB9
:1035C000FFFFFFFEFFFFFFFDFFFFFFDF024B80223B
:1035D00012059A607047C04600ED00E010B50C4837
:1035E0000C4B0360E1235B02436000238360C360F4
:1035F00003610C2242618361C3610362436283629F
:1036000000F0F2FA002800D110BDFEF79DFBFBE7A9
:103610001C0200200044004010B588B004001422B1
:10362000002103A8FCF7BCFD2268114B9A4201D08F
:1036300008B010BD0F4BDA6B802189020A43DA63B0
:10364000DA6B0A400192019A596B012211435963C6
:103650005B6B13400293029B18230393163B049366
:103660000792A02003A9C005FFF7A2FAE0E7C04631
:10367000004400400010024030B5EFF310840122F6
:1036800082F3108801680B68124D2B400B6084F3A5
:103690001088EFF3108182F31088026893680E4C53
:1036A0002340936081F31088C36E012B06D08C23D6
:1036B0002022C2500023C366436730BDEFF3108160
:1036C00083F31088026813681024A343136081F306
:1036D0001088ECE7DFFEFFFFFEFFFFEF10B50400F0
:1036E00083680269134342691343C2691343016843
:1036F0000A686248024013430B60226853686049BD
:103700000B40E1680B435360A369226A1A432168A6
:103710008B685C48034013438B602268D36A0F2197
:103720008B43616A0B43D3622368574A93421BD091
:10373000564A934229D01023E06980221202904217
:103740002DD0042B00D192E067D8002B00D188E067
:10375000022B60D14E4B1B685B09072119400131D8
:103760004C48FEF77BF95CE0494B5A6D032313404C
:10377000022B0CD005D8002B0BD0012B0BD103331F
:10378000DAE7032B09D10533D6E70023D4E7022378
:10379000D2E70023D0E71023CEE71023CCE7042B99
:1037A00036D00FD8002B2DD0022B09D1384B1B68F7
:1037B0005B090721194001313648FEF74FF903E054
:1037C000012045E0082B1BD1626A334B5200D15ACD
:1037D000FEF744F9400061684B08C018FEF73EF957
:1037E0000200103A2D4B9A4244D882B20F239A43DA
:1037F0004008083B034013432268D360002027E0C1
:10380000012025E0FFF7C0F90028DDD100201FE0EE
:10381000FFF7BEF8F8E701201AE0082B17D1802047
:103820000002626A1C4B5200D15AFEF717F9616818
:103830004B08C018FEF712F90200103A174B9A42D3
:103840001AD823680004000CD860002000E0012092
:1038500001236A22A352023AA35200236367A3679B
:1038600010BDFFF791F90028DBD10020F0E7FFF74A
:103870008FF8F8E70120EBE70120E9E7F369FFCFD4
:10388000FFCFFFFFFFF4FF1100380140004400406C
:1038900000100240006CDC02683E0008EFFF0000F0
:1038A000836A1B0706D5026853682C490B40816B5D
:1038B0000B435360836ADB0706D5026853682849C7
:1038C0000B40C16A0B435360836A9B0706D50268AD
:1038D000536824490B40016B0B435360836A5B07B9
:1038E00006D50268536820490B40416B0B43536077
:1038F000836ADB0606D5026893681C490B40C16BDE
:103900000B439360836A9B0606D502689368184947
:103910000B40016C0B439360836A5B060BD5026816
:10392000536814490B40416C0B435360426C802335
:103930005B039A420AD0836A1B0606D50268536865
:103940000D490B40C16C0B435360704702685368CC
:103950000A490B40816C0B435360ECE7FF7FFFFF8C
:10396000FFFFFDFFFFFFFEFFFFFFFBFFFFEFFFFF7E
:10397000FFDFFFFFFFFFEFFFFFFFF7FFFFFF9FFFEF
:10398000F8B5CE46474680B506000D0017009946AB
:10399000089B98463368DC692C40641B63425C4199
:1039A000BC422FD143460133F4D0FEF727FE4B46ED
:1039B000C01A40452BD84346002B2AD033681A68DA
:1039C0005207E7D5DA69120710D4DA691205E1D592
:1039D000802212011A623000FFF74EFE902320224F
:1039E000F2500C3B0022F25403200CE008241C622D
:1039F0003000FFF741FE9023F4500C3B0022F254BC
:103A0000012000E00020C0BCB946B046F8BD03204C
:103A1000F9E70320F7E7F0B5C64600B582B0040029
:103A20000D0090461E008823C358202B66D1002924
:103A300069D0002A69D0826880235B019A4204D150
:103A40000369002B01D1CB0761D490230022E250FF
:103A5000083B2132E250FEF7D1FD070054234246D5
:103A6000E2520233E252A26880235B019A4202D002
:103A70000023984618E02369002B2AD0002398469B
:103A800012E088232022E250032038E043461B88BE
:103A90002268DB05DB0D936202239C46E04456233B
:103AA000E25A013A92B2E2525623E35A9BB2002BF9
:103AB00012D000963B00002280212000FFF760FF1B
:103AC0000028DED1002DE1D02A7823689A620135E2
:103AD000E5E7A8460025E7E700963B0000224021E5
:103AE0002000FFF74DFF002803D188232022E25059
:103AF00005E088232022E250032000E0022002B0EB
:103B000080BCB846F0BD0120F9E70120F7E70120AD
:103B1000F5E7000030B583B0040090230022C250C6
:103B2000FEF76CFD050023681B681B0710D4236893
:103B30001B685B072BD420238822A3500432A35098
:103B40000023E3662367083AA354002003B030BD86
:103B50008021234B00930300002289032000FFF7FC
:103B60000FFF0028E3D0EFF31081012383F31088C7
:103B70002268136880208343136081F310888823B0
:103B80002022E250043B0022E2547D38DEE780210F
:103B9000134B00932B000022C9032000FFF7F0FE17
:103BA0000028C8D0EFF31080012282F3108821682A
:103BB0000B680C4D2B400B6080F31088EFF31080E6
:103BC00082F3108821688B6893438B6080F31088A0
:103BD0008C231F32E250083B0022E2540320B5E759
:103BE000FFFFFF01DFFEFFFF10B5041E30D088236A
:103BF000C358002B22D088232422E2502268136865
:103C000001218B431360A36A002B1DD12000FFF715
:103C100065FD012811D0226853680E490B4053609E
:103C2000226893682A218B4393602268136829399C
:103C30000B4313602000FFF76DFF10BD843300229B
:103C4000C254FFF7E9FCD6E72000FFF729FEDDE7C5
:103C50000120F2E7FFB7FFFF0D488546FFF7B6FCEE
:103C6000002103E00B4B5B58435004310A480B4BD7
:103C700042189A42F6D30A4A02E000231360043243
:103C8000084B9A42F9D3FCF767FAFEF79FF8FEE774
:103C900000300020C43E000800000020700000201A
:103CA00070000020B0020020FEE70000F8B5C0461A
:103CB000F8BC08BC9E467047F8B5C046F8BC08BCC6
:043CC0009E46704765
:103CC40004000020000000000000000000000000CC
:103CD40000000000000000000000000000000000E0
:103CE40000000000000000000000000000000000D0
:103CF40000000000000000000000000000000000C0
:103D040000000000000000000000000000000000AF
:103D1400000000000000000000000000000000009F
:103D240000000000B60C0008BC0B0008BC0B000827
:103D3400BC0B0008BC0B0008BC0B0008BC0B000843
:103D4400BC0B0008BC0B0008BC0B0008BC0B000833
:103D54001A0C0008D00B0008BC0B0008BC0B0008B0
:103D6400BC0B0008BC0B0008D00B0008BC0B0008FF
:103D7400BC0B0008BC0B0008BC0B0008360B000889
:103D8400F60B00084C0C0008BC0B0008BC0B000828
:103D94002E0C0008BC0B0008F60B0008BC0B000836
:103DA400BC0B0008D00C000825640D0A00000000BC
:103DB40050320008583300085833000858330008BC
:103DC4007A32000858330008583300085833000882
:103DD400A832000858330008583300085833000844
:103DE400D23200085833000858330008583300080A
:103DF40000330008583300085833000858330008CB
:103E04002A33000800000000000000000000000049
:103E14000000000001000000020000000300000098
:103E2400040000000000000000000000000000008A
:103E3400000000000000000000000000000000007E
:103E44000000000001000000020000000300000068
:103E54000400000006000000070000000800000045
:103E640009000000010002000400060008000A0026
:103E74000C0010002000400080000001232D302B96
:103E840020000000686C4C006566674546470000EA
:103E9400303132333435363738394142434445467C
:103EA400000000003031323334353637383961623E
:083EB400636465660000000074
:043EBC0035010008C4
:043EC00009010008EC
:103EC4000400002000000000083D0008E83C000851
:103ED400C83C0008000000000000000000000000D2
:103EE40000000000000000000000000000000000CE
:103EF40000000000000000000000000000000000BE
:103F040000000000000000000000000000000000AD
:103F1400000000000000000000000000000000009D
:103F2400000000000100000004000000006CDC023E
:0400000508003C595A
:00000001FF
