:020000040800F2
:100000000030002079220008450B0008470B00084B
:1000100000000000000000000000000000000000E0
:10002000000000000000000000000000490B000874
:1000300000000000000000004B0B00084D0B000802
:10004000C922000800000000C9220008C9220008D7
:10005000C9220008C9220008C9220008C9220008D4
:1000600000000000C9220008C9220008C9220008B7
:10007000C9220008C9220008C922000800000000A7
:10008000C92200080000000000000000C92200088A
:1000900000000000C9220008C9220008C922000887
:1000A00000000000C922000800000000C92200086A
:1000B000C92200080000000000000000000000004D
:1000C0000448054B10B5834203D0044B002B00D0ED
:1000D000984710BD0C0000200C000020000000001C
:1000E00006480749091A8B10C90FC91810B54910DD
:1000F00003D0044B002B00D0984710BD0C0000200B
:100100000C0000200000000010B5074C2378002BE5
:1001100009D1FFF7D5FF054B002B02D0044800E0C2
:1001200000BF0123237010BD0C0000200000000060
:10013000CC220008054B10B5002B03D0044905481C
:1001400000E000BFFFF7CCFF10BDC046000000007C
:1001500010000020CC22000870B50D4B0D4D5E1B29
:10016000B610AB4205D0002408CD01349847A64212
:10017000FAD802F0ABF8084B084D5E1BB610AB4244
:1001800005D0002408CD01349847A642FAD870BDA6
:10019000C0230008C0230008C4230008C0230008AF
:1001A000F0B50500830749D0541E002A45D003004E
:1001B0000326CAB202E00135013C3ED301332A7066
:1001C0003342F8D1032C30D9FF220A401502AD1872
:1001D0002A04AD180F2C34D92700103F3F093E01E7
:1001E000B4461E001A0010366644156055609560CE
:1001F000D56010329642F8D101373F01DB190F2745
:100200000C22274022403C00002A0ED03E1FB60898
:10021000B400A4461A001C1D644420C2A242FCD1B2
:1002200003240136B6009B193C40002C05D0C9B20E
:100230001C19197001339C42FBD1F0BD030014005E
:10024000C0E72700E2E7C046002243088B4274D390
:1002500003098B425FD3030A8B4244D3030B8B42C7
:1002600028D3030C8B420DD3FF22090212BA030CD0
:100270008B4202D31212090265D0030B8B4219D3B1
:1002800000E0090AC30B8B4201D3CB03C01A5241D1
:10029000830B8B4201D38B03C01A5241430B8B4219
:1002A00001D34B03C01A5241030B8B4201D30B0302
:1002B000C01A5241C30A8B4201D3CB02C01A524129
:1002C000830A8B4201D38B02C01A5241430A8B42EC
:1002D00001D34B02C01A5241030A8B4201D30B02D5
:1002E000C01A5241CDD2C3098B4201D3CB01C01AEF
:1002F000524183098B4201D38B01C01A52414309F9
:100300008B4201D34B01C01A524103098B4201D3E6
:100310000B01C01A5241C3088B4201D3CB00C01A53
:10032000524183088B4201D38B00C01A52414308CB
:100330008B4201D34B00C01A5241411A00D20146F0
:10034000524110467047FFE701B5002000F006F863
:1003500002BDC0460029F7D076E770477047C04617
:1003600072B6FEE700B58DB01C22002105A8FFF78C
:1003700017FF142200216846FFF712FF022305939E
:10038000FE330893C03B0A9305A800F0ABFC00289D
:100390000ED1072300930023019302930393049348
:1003A0000121684600F02AFE002803D10DB000BDEF
:1003B000FFF7D6FFFFF7D4FF10B500F00FFCFFF7F3
:1003C000D1FF00F037F800F0BFF900F053FA00F069
:1003D000CDFA00F007FB00F05DFB01F00FFC002000
:1003E00010BD000030B585B0FFF7E6FF0E4801F004
:1003F0001FF96A460D4B180038C838C203881380AD
:10040000094B1B685B6A012309485B420D22694660
:1004100001F011FEA0202021C00500F0B5FFFA2058
:10042000800000F0F9FBEBE758010020E42200080F
:10043000A8010020F0B5C64600B58AB014220021FC
:1004400005A8FFF7ADFE274B596B042211435963F2
:10045000596B0A400092009A5A6B20252A435A632E
:100460005A6B2A400192019A5A6B012422435A6323
:100470005A6B22400292029A596B0222114359632D
:10048000596B0A400392039A596B0822114359632E
:100490005B6B1A400492049BA023DB059846012263
:1004A0002021180000F06AFF8027BF000E4E0022B6
:1004B0003900300000F062FF05950694002507958D
:1004C0000323089305A9404600F07AFE0597069499
:1004D0000795089505A9300000F072FE0AB080BCAF
:1004E000B846F0BD001002400004005086B003681A
:1004F000224A934216D0224A93421FD0214A934265
:1005000026D0214A93422ED0204A934214D1204B28
:100510001A6C8021C9020A431A641B6C0B400593B4
:10052000059B09E01A4B1A6C802109010A431A64E1
:100530001B6C0B400193019B06B07047144AD16BB2
:1005400002231943D163D26B13400293029BF3E75A
:100550000F4B1A6C802109020A431A641B6C0B4072
:100560000393039BE8E70A4B1A6C802189020A4334
:100570001A641B6C0B400493049BDDE7002C0140C4
:1005800000040040002000400044014000480140B9
:1005900000100240F0B58FB004001422002109A819
:1005A000FFF7FEFD23685E4A934210D05D4A9342F6
:1005B00035D05D4A934200D177E05C4A934200D146
:1005C00086E05B4A934200D195E00FB0F0BD594BF5
:1005D000596B202211435963596B0A400192019AC9
:1005E000596B0122114359635B6B13400293029BC9
:1005F0000423099302240A940D9209A94E4800F09D
:10060000DFFD032309930A9400230B930C93053316
:100610000D93A02009A9C00500F0D2FDD5E7454BF8
:10062000596B042211435963596B0A400392039A90
:100630005A6B012632435A635A6B32400492049A31
:100640005A6B022422435A635B6B23400593059B3C
:100650008023DB0109930A940B230D93374F09A9DB
:10066000380000F0ADFD80231B0209930A94002599
:100670000B950C9503230D9309A9380000F0A0FDFC
:10068000402309930A940B950C950D96A02009A977
:10069000C00500F095FD09940A940B950C950D96F4
:1006A00009A9274800F08CFD8FE7224A516B2023CF
:1006B00019435163526B13400693069B0123099320
:1006C00001330A930D9309A91B4800F079FD7CE7DB
:1006D000184A516B082319435163526B1340079317
:1006E000079B0123099301330A930D9309A9154828
:1006F00000F066FD69E70F4A516B0123194351630E
:10070000526B13400893089B802309937E3B0A9306
:1007100003330D93A02009A9C00500F051FD54E753
:10072000002C014000040040002000400044014033
:100730000048014000100240001400500008005022
:1007400000040050000C005000B59DB010220021A4
:1007500018A8FFF725FD0C22002115A8FFF720FDA2
:100760001C2200210EA8FFF71BFD3422002101A846
:10077000FFF716FD3C483D4B036000234360836058
:100780003B4AC26003614361836100F0C3FF0028FC
:1007900052D180235B011893334818A901F004F962
:1007A00000284CD1304800F0E5FF00284AD1002352
:1007B0001593169317932C4815A901F079F9002881
:1007C00043D160230E9300230F9310931193129340
:1007D00013931493244800220EA901F037F800283F
:1007E00036D1214804220EA901F030F8002832D178
:1007F0001D480C220EA901F029F800282ED1002353
:10080000019302930393049305938022920106922D
:10081000079308930993802292040A920B930C93F6
:100820000D93114801A901F07BF9002819D10E4858
:10083000FFF7B0FE1DB000BDFFF792FDA9E7FFF77F
:100840008FFDAFE7FFF78CFDB1E7FFF789FDB8E754
:10085000FFF786FDC5E7FFF783FDC9E7FFF780FDDA
:10086000CDE7FFF77DFDE2E758010020002C0140B5
:10087000FFFF000000B58FB0102200210AA8FFF78B
:100880008FFC0C22002107A8FFF78AFC1C22002104
:100890006846FFF785FC3248324B03600023436013
:1008A0008360314AC2600361836100F033FF002836
:1008B0003DD180235B010A9329480AA901F074F80D
:1008C000002837D1264800F055FF002835D10023F5
:1008D00007930993224807A901F0EAF800282FD1CD
:1008E0006023009300230193029304931C48002289
:1008F000694600F0ABFF002825D11948042269465B
:1009000000F0A4FF002821D115480822694600F014
:100910009DFF00281DD112480C22694600F096FF69
:10092000002819D10E48FFF735FE0FB000BDFFF7C4
:1009300017FDBEE7FFF714FDC4E7FFF711FDC6E79B
:10094000FFF70EFDCCE7FFF70BFDD6E7FFF708FD3D
:10095000DAE7FFF705FDDEE7FFF702FDE2E7C04655
:100960000C01002000040040FFFF000000B589B02A
:100970001C22002101A8FFF713FC1748174B036046
:10098000002343608360164AC2600361836100F004
:10099000C1FE002816D1104800F0ECFE002814D14A
:1009A0006023019300230293039305930A480022D6
:1009B00001A900F04BFF00280AD10748FFF7EAFD24
:1009C00009B000BDFFF7CCFCE5E7FFF7C9FCE7E79E
:1009D000FFF7C6FCF1E7C046C00000200020004041
:1009E000FFFF000000B595B01C2200210DA8FFF705
:1009F000D7FB342200216846FFF7D2FB2248234B65
:100A00000360002343608360214AC2600361436145
:100A1000836100F07FFE00282AD11B4800F0AAFE67
:100A2000002828D160230D9300230E930F93109379
:100A3000119312931393144800220DA900F006FF9E
:100A400000281BD100230093019302930393049386
:100A500080229201059206930C930B48694601F09F
:100A60005FF800280DD10848FFF794FD15B000BDD0
:100A7000FFF776FCD1E7FFF773FCD3E7FFF770FCD5
:100A8000E0E7FFF76DFCEEE7740000200044014052
:100A9000FFFF000000B595B01C2200210DA8FFF754
:100AA0007FFB342200216846FFF77AFB2248234B64
:100AB0000360002343608360214AC2600361436195
:100AC000836100F027FE00282AD11B4800F052FE67
:100AD000002828D160230D9300230E930F931093C9
:100AE000119312931393144800220DA900F0AEFE47
:100AF00000281BD1002300930193029303930493D6
:100B000080229201059206930C930B48694601F0EE
:100B100007F800280DD10848FFF73CFD15B000BDCF
:100B2000FFF71EFCD1E7FFF71BFCD3E7FFF718FC2C
:100B3000E0E7FFF715FCEEE7280000200048014041
:100B4000FFFF0000FEE7FEE77047704710B500F0BA
:100B500051F810BD82B00A4B196C0122114319647F
:100B6000196C0A400092009ADA6B802149050A4309
:100B7000DA63DB6B0B400193019B02B07047C04608
:100B80000010024010B50400114B1978002901D162
:100B9000012010BDFA208000FFF756FB01000D4B2D
:100BA0001868FFF751FB00F099F800280DD1032CCD
:100BB00001D90120EDE7013000222100404200F080
:100BC00089F8054B1C600020E3E70120E1E7C046FF
:100BD00000000020080000200400002010B50320C1
:100BE000FFF7D0FF041E02D00124200010BDFFF744
:100BF000B1FFFAE7034B1B78034A11685B181360D7
:100C00007047C04600000020A4010020014B186876
:100C10007047C046A401002070B50400FFF7F6FF3E
:100C20000500631C02D0044B1B78E418FFF7EEFFAD
:100C3000401BA042FAD370BD0000002070B5002810
:100C400011DB8308134DC0339B005C590322104015
:100C5000C000FC3216008640B44389010A4082403D
:100C600022435A5170BD0F230340083B9B080633B3
:100C70009B00094A944663445C6803221040C0000C
:100C8000FC3215008540AC4389010A408240224372
:100C90005A60E7E700E100E000ED00E00138802362
:100CA0005B0498420FD2094A50600948036A1B024C
:100CB0001B0AC02109060B4303620023936007331C
:100CC0001360002070470120FCE7C04610E000E000
:100CD00000ED00E010B5FFF7B1FF10BD10B5FFF754
:100CE000DDFF10BD70B5041E00D139E10368DB07DC
:100CF0002CD5A14B9A6838231340082B22D0436887
:100D00008022520293422ED0A022D202934231D0AE
:100D1000994B1A6899490A401A601A6898490A401A
:100D20001A606368002B31D0FFF770FF0500924B0B
:100D30001B689B030AD4FFF769FF401B6428F6D9A0
:100D400003200EE14368002B00D10BE123689B07D1
:100D500047D5894B9B6838221A4261D1E368002B42
:100D600022D10120FDE0844A116880235B020B43FD
:100D70001360D6E7804B19688022D2020A431A60BA
:100D80001968802252020A431A60CAE7FFF73EFF41
:100D90000500794B1B689B03D8D5FFF737FF401B35
:100DA0006428F6D90320DCE0734B5A6875490A4081
:100DB000616909020A435A601A6873490A40216945
:100DC0000A431A601B68DB0A07221A406F4BD340A4
:100DD0006F4A13606F4B1868FFF7D4FE002800D0ED
:100DE000C2E023681B0757D5634B9A68382313402A
:100DF000182B4ED0A369002B77D05F4A136E0121C8
:100E00000B431366FFF702FF05005B4B1B6E9B074E
:100E100042D4FFF7FBFE401B0228F6D90320A0E0D6
:100E2000E368002B22D0544A136857490B402169CC
:100E30000B431360116880235B000B431360FFF7C3
:100E4000E5FE05004C4B1B685B0506D4FFF7DEFE94
:100E5000401B0228F6D9032083E047494B68494AE2
:100E600013406269120213434B60BAE7424A1368A7
:100E700049490B401360FFF7C9FE05003E4B1B6854
:100E80005B05AED5FFF7C2FE401B0228F6D9032052
:100E900067E0A369002B69D023685B0768D5364BF0
:100EA0009A6838231340202B32D0A368012B34D00A
:100EB000052B38D0304BDA6D01218A43DA65DA6DC3
:100EC00003318A43DA65A368002B38D0FFF79EFE12
:100ED0000400294BDB6D9B072FD4FFF797FE001B07
:100EE0002E4B9842F5D903203BE0234A136E012193
:100EF0008B431366FFF78AFE05001F4B1B6E9B0793
:100F0000CAD5FFF783FE401B0228F6D9032028E04C
:100F1000A368002B2ED0002023E0174AD36D0121B7
:100F20000B43D365CFE7144BDA6D04210A43DA652E
:100F3000DA6D03390A43DA65C5E7002011E0FFF7EF
:100F400065FE04000C4BDB6D9B0707D5FFF75EFECB
:100F5000001B124B9842F5D9032002E0002000E06C
:100F6000012070BD0120FCE70120FAE70120F8E72D
:100F70000020F6E70120F4E700100240FFFFFEFF2B
:100F8000FFFFFBFFFF80FFFFFFC7FFFF006CDC02DE
:100F90000800002004000020FFFEFFFF881300006F
:100FA000144B9B6838221A4207D1124B1A68D20A96
:100FB000072313401048D84070470E4B9A683823D7
:100FC0001340082B10D00B4B9A6838231340202B6A
:100FD0000CD0084B9A6838231340182B01D00020FE
:100FE000EAE7FA20C001E7E70348E5E780200002CE
:100FF000E2E7C04600100240006CDC0270B504005D
:101000000D00002800D1AAE0574B1A6807231340AF
:101010008B4228D323689A0710D55B0707D553491D
:101020008A68534B1A40B0231B0113438B604F4A0D
:10103000936850490B40E1680B4393602368DB07DA
:1010400052D54A4A13681C218B43A1680B43136095
:101050006368012B1ED0002B38D1444A1268520518
:101060001BD4012063E0404A136807218B432B43C4
:101070001360FFF7CBFD06003B4B1A6807231340B4
:10108000AB42C7D0FFF7C2FD801B3B4A9042F3D969
:1010900003204CE01268920363D534498A68072024
:1010A000824313438B60FFF7B1FD06002F4B9B6813
:1010B00038221A406368DB009A4215D0FFF7A6FD7C
:1010C000801B2D4B9842F1D9032030E0032B05D033
:1010D000264AD26D9207E0D4012028E0234A126EFE
:1010E0009207DAD4012022E01F4B1A68072313402D
:1010F000AB421DD823685B0706D51C4A93681F497D
:101100000B4021690B439360FFF74AFF174B9A6826
:10111000120A0F2313401A4A9B009A581F231340A8
:10112000D840184B1860184B1868FFF72BFD70BD9E
:101130000D4A136807218B432B431360FFF766FDAD
:101140000600094B1A6807231340AB42D2D0FFF7C1
:101150005DFD801B084B9842F3D90320E7E701208F
:10116000E5E70120E3E7C04600200240001002400E
:10117000FF84FFFFFFF0FFFF88130000FF8FFFFFDA
:10118000682300080800002004000020014B1868B4
:101190007047C0460800002010B5FFF7F7FF064B68
:1011A0009A68120B07231340044A9B009A581F2386
:1011B0001340D84010BDC04600100240482300082C
:1011C000F0B5D6464F464646C0B500233BE0052560
:1011D00000E00025A5402C003C43634D18329200EE
:1011E00054518022AF584A46D2433D004C46A54355
:1011F0004C68E40302D53D004C4625435A4C8027F9
:10120000E551842567593D0015404C68A40302D57B
:101210003D004C462543544C8427E55127683D004A
:1012200015404C68E40202D53D004C4625434E4C27
:10123000256065682A404C68A40201D54A462A43C5
:10124000494C626001330C682200DA4000D186E02C
:1012500001229A4026001640B1461442F2D04C6852
:10126000022C01D0122C18D1DD080835AD002C5805
:10127000A44607271F40BF000F24A2462600BE40F9
:10128000B04666464446A643B4460C6956462640D8
:101290003400BC40664634432C500468A4465D00CC
:1012A0000324A2462700AF40B846FF4366464446A3
:1012B000A643B4464C68564626403400AC406646C9
:1012C000344304604C68661E012E03D9112C01D0F2
:1012D000122C12D184683C40A446CC68AC406646CF
:1012E00034438460446894434A6812099446012256
:1012F000664632409A40224342604A68032A05D03B
:10130000C4683C408A68AA402243C2604A68D2004E
:1013100098D59A0814001834A400134D6759032473
:101320001C40E4000F25A540AF43A025ED05A842D1
:1013300000D14EE70D4DA8420BD00D4DA8420AD06A
:101340000C4DA84209D00C4DA84200D13FE706251C
:1013500040E701253EE702253CE703253AE7E0BCEC
:10136000BA46B146A846F0BD00180240000400503D
:1013700000080050000C005000140050002A01D05A
:10138000816170478162FCE7426913000B401B04D6
:1013900091430B438361704730B5056A036A0122AC
:1013A0009343036242688369164C23400C681C43D4
:1013B00002239D438B682B43134DA84205D0134D48
:1013C000A84202D0124DA84206D10825AB431D0009
:1013D000CB682B430425AB430B4DA84205D00B4DE6
:1013E000A84202D00A4DA84205D10A4D2A404D69B3
:1013F00015438A692A43426084614A6842630362F2
:1014000030BDC0468CFFFEFF002C0140004401406F
:1014100000480140FFFCFFFF30B5046A036A164A2A
:10142000134003624268C369144D2B400D681D438D
:10143000134B1C408B681B022343124CA04206D066
:10144000114CA0420AD0114CA0420FD106E0104C22
:101450001C40CB681B0223430E4C23400E4C224001
:101460004C69240114438A69120122434260C56118
:101470004A68C263036230BDFFFEFFFF8CFFFEFFC0
:10148000FFFDFFFF002C01400044014000480140E7
:10149000FFF7FFFFFFFBFFFFFFCFFFFF30B5046A41
:1014A000036A114A134003624568C3690F4A134037
:1014B0000A6812021A430E4B1C408B681B0323431D
:1014C0000C4CA04205D00C4CA04202D00B4CA042C8
:1014D00004D10B4C2C404D69AD0125434560C261E0
:1014E0004A680264036230BDFFEFFFFFFF8CFFFE1E
:1014F000FFDFFFFF002C0140004401400048014095
:10150000FFBFFFFF30B5046A036A114A134003624C
:101510004268436D0F4D2B400D681D430E4B1C4020
:101520008B681B0423430D4CA04205D00C4CA042F9
:1015300002D00C4CA04204D1054C14404A6912025E
:101540002243426045654A688265036230BDC046F9
:10155000FFFFFEFF8FFFFEFFFFFFFDFF002C01409E
:10156000004401400048014030B5046A036A114A52
:10157000134003624568436D0F4A13400A68120224
:101580001A430E4B1C408B681B0523430C4CA04296
:1015900005D00C4CA04202D00B4CA04204D10B4C05
:1015A0002C404D69AD022543456042654A68C265DD
:1015B000036230BDFFFFEFFFFF8FFFFEFFFFDFFF86
:1015C000002C01400044014000480140FFFFFBFFA8
:1015D00030B5036A046A0125AC4304628469EF35BF
:1015E000AC43120122430A24A3430B4382610362EA
:1015F00030BD000030B5036A046A1025AC430462B4
:101600008469054D2C4012032243A024A343090101
:1016100019438261016230BDFF0FFFFF8368034AF7
:1016200013400B4307221343836070478FFFCFFFA4
:101630003D23C35C012B1DD13C330222C2540368FD
:101640000F4A934208D00F4A934205D01A680121ED
:101650000A431A6000200EE09A680B490A40062AE5
:101660000AD007398A4209D01A6801210A431A6050
:10167000002000E0012070470020FCE70020FAE78E
:10168000002C0140000400400700010070470000EA
:1016900003681A4A904202D0194A904203D170223C
:1016A00093434A681343154A90420BD0144A904220
:1016B00008D0144A904205D0134A904202D0134AEF
:1016C000904203D1124A1340CA68134380229343C5
:1016D0004A69134303608B68C3620B688362074BDC
:1016E000984205D0084B984202D0084B984201D14D
:1016F0000B690363012343617047C046002C01401E
:101700000004004000200040004401400048014027
:10171000FFFCFFFF70B5041E2AD03D23C35C002BE5
:1017200020D03D2502236355210001C9FFF7B0FFFA
:1017300001234822A3540A3AA3540132A35401328C
:10174000A3540132A3540132A3540132A3540132F1
:10175000A3540132A3540132A3540132A35463555C
:10176000002070BD3C330022C254FEF7BFFED8E714
:101770000120F6E770B5041E2AD03D23C35C002B80
:1017800020D03D2502236355210001C9FFF780FFCA
:1017900001234822A3540A3AA3540132A35401322C
:1017A000A3540132A3540132A3540132A354013291
:1017B000A3540132A3540132A3540132A3546355FC
:1017C000002070BD3C330022C254FFF75FFFD8E712
:1017D0000120F6E770B5026A036A1024A34303628E
:1017E00045688369144C23400C6824021C43202361
:1017F0009A438B681B011343104A904206D0104A4B
:1018000090420BD00F4A904210D107E080229343C0
:101810001E00CB681B013343403A93430A4A1540EC
:101820004A6992002A438D69AD0015434560846181
:101830004A688263036270BDFF8CFFFE002C01408A
:101840000044014000480140FFF3FFFF70B5040071
:101850000D003C23C35C012B00D192E03C2301210D
:10186000C154142A00D987E09200474B9B589F46E9
:1018700000682900FFF790FD2268936908210B4357
:1018800093612268936904398B4393612268936959
:1018900029690B43936100206FE000682900FFF77E
:1018A00099FF2268916980231B010B439361226891
:1018B000936936490B40936121688B692A6912024A
:1018C00013438B61002058E000682900FFF7A4FD56
:1018D0002268D36908210B43D3612268D369043994
:1018E0008B43D3612268D36929690B43D3610020FC
:1018F00043E000682900FFF7D1FD2268D169802309
:101900001B010B43D3612268D36920490B40D3618B
:101910002168CB692A6912021343CB6100202CE0B5
:1019200000682900FFF7EEFD2268536D08210B4384
:1019300053652268536D04398B4353652268536D98
:1019400029690B435365002017E000682900FFF761
:101950000BFE2268516D80231B010B4353652268E7
:10196000536D0A490B40536521684B6D2A69120279
:1019700013434B65002000E001203C230022E25489
:1019800070BD0220FCE7C046F4220008FFFBFFFF09
:1019900030B58468034D2C401B0213430B43234393
:1019A000836030BDFF00FFFF10B5040008003C233A
:1019B000E35C012B00D177E03C230122E2540133A8
:1019C0000132E2542268936838490B409360016801
:1019D00060294FD029D8402957D00CD9502922D17D
:1019E0004168C2682068FFF7F3FD20685021FFF7C7
:1019F00015FE002005E020290ED009D930290BD092
:101A000001203D230122E254013B0022E25410BD9B
:101A1000002901D0102904D12068FFF7FFFD002024
:101A2000EFE70120EDE70120EBE780225201914230
:101A300036D08022920191420DD181684268C368FC
:101A40002068FFF7A5FF226891688023DB010B4324
:101A500093600020D5E7702924D181684268C3686B
:101A60002068FFF795FF2268936877210B43936006
:101A70000020C6E74168C2682068FFF7BBFD206808
:101A80006021FFF7CBFD0020BBE74168C2682068FA
:101A9000FFF79EFD20684021FFF7C0FD0020B0E762
:101AA0000020AEE70120ACE70220B0E78800CEFFBF
:101AB00030B53C23C35C012B29D03C230122C25406
:101AC00001330132C254026853689568114CA24236
:101AD00018D07024A3430C682343536003680D4A55
:101AE000934202D00C4A934204D1802295438A68E3
:101AF0002A439A603D230122C254013B0022C25472
:101B0000002030BD054C23404C682343E1E7022010
:101B1000F7E7C046002C014000040040FFFF0FFF24
:101B200010B53C23C35C012B44D03C230122C2549A
:101B3000CB68214A13408A681343204A13404A68FD
:101B400013431F4A13400A6813431E4A13400A698D
:101B500013431D4A13404A6913431C4A13400A6B3E
:101B600013431B4A13408A69120413430268194C39
:101B7000A24208D0174CA2420AD053643C23002250
:101B8000C254002010BD144C2340CC692343F1E71C
:101B9000124C23408C6A24052343114C23400C6AC9
:101BA0002343104C23404C6A23430F4C2340C96A03
:101BB0000B43E2E70220E5E7FFFCFFFFFFFBFFFF2F
:101BC000FFF7FFFFFFEFFFFFFFDFFFFFFFBFFFFF9D
:101BD000FFFFF0FF002C0140FFFFFFEFFFFF0FFFB3
:101BE000FFFFFFFEFFFFFFFDFFFFFFDF024B802235
:101BF00012059A607047C04600ED00E010B50C4831
:101C00000C4B0360E1235B02436000238360C360ED
:101C100003610C2242618361C36103624362836298
:101C200000F0F2FA002800D110BDFEF799FBFBE7A7
:101C3000A80100200044004010B588B00400142220
:101C4000002103A8FEF7ACFA2268114B9A4201D09A
:101C500008B010BD0F4BDA6B802189020A43DA63AA
:101C6000DA6B0A400192019A596B012211435963C0
:101C70005B6B13400293029B0C2303930A3B049378
:101C80000792A02003A9C005FFF79AFAE0E7C04633
:101C9000004400400010024030B5EFF310840122F0
:101CA00082F3108801680B68124D2B400B6084F39F
:101CB0001088EFF3108182F31088026893680E4C4D
:101CC0002340936081F31088C36E012B06D08C23D0
:101CD0002022C2500023C366436730BDEFF310815A
:101CE00083F31088026813681024A343136081F300
:101CF0001088ECE7DFFEFFFFFEFFFFEF10B50400EA
:101D000083680269134342691343C269134301683C
:101D10000A686248024013430B60226853686049B6
:101D20000B40E1680B435360A369226A1A432168A0
:101D30008B685C48034013438B602268D36A0F2191
:101D40008B43616A0B43D3622368574A93421BD08B
:101D5000564A934229D01023E06980221202904211
:101D60002DD0042B00D192E067D8002B00D188E061
:101D7000022B60D14E4B1B685B09072119400131D2
:101D80004C48FEF761FA5CE0494B5A6D032313405F
:101D9000022B0CD005D8002B0BD0012B0BD1033319
:101DA000DAE7032B09D10533D6E70023D4E7022372
:101DB000D2E70023D0E71023CEE71023CCE7042B93
:101DC00036D00FD8002B2DD0022B09D1384B1B68F1
:101DD0005B090721194001313648FEF735FA03E067
:101DE000012045E0082B1BD1626A334B5200D15AC7
:101DF000FEF72AFA400061684B08C018FEF724FA83
:101E00000200103A2D4B9A4244D882B20F239A43D3
:101E10004008083B034013432268D360002027E0BA
:101E2000012025E0FFF7B8F90028DDD100201FE0F0
:101E3000FFF7B6F8F8E701201AE0082B17D1802049
:101E40000002626A1C4B5200D15AFEF7FDF961682C
:101E50004B08C018FEF7F8F90200103A174B9A42E7
:101E60001AD823680004000CD860002000E001208C
:101E700001236A22A352023AA35200236367A36795
:101E800010BDFFF789F90028DBD10020F0E7FFF74C
:101E900087F8F8E70120EBE70120E9E7F369FFCFD6
:101EA000FFCFFFFFFFF4FF11003801400044004066
:101EB00000100240006CDC02A8230008EFFF0000C5
:101EC000836A1B0706D5026853682C490B40816B57
:101ED0000B435360836ADB0706D5026853682849C1
:101EE0000B40C16A0B435360836A9B0706D50268A7
:101EF000536824490B40016B0B435360836A5B07B3
:101F000006D50268536820490B40416B0B43536070
:101F1000836ADB0606D5026893681C490B40C16BD7
:101F20000B439360836A9B0606D502689368184941
:101F30000B40016C0B439360836A5B060BD5026810
:101F4000536814490B40416C0B435360426C80232F
:101F50005B039A420AD0836A1B0606D5026853685F
:101F60000D490B40C16C0B435360704702685368C6
:101F70000A490B40816C0B435360ECE7FF7FFFFF86
:101F8000FFFFFDFFFFFFFEFFFFFFFBFFFFEFFFFF78
:101F9000FFDFFFFFFFFFEFFFFFFFF7FFFFFF9FFFE9
:101FA000F8B5CE46474680B506000D0017009946A5
:101FB000089B98463368DC692C40641B63425C4193
:101FC000BC422FD143460133F4D0FEF71FFE4B46EF
:101FD000C01A40452BD84346002B2AD033681A68D4
:101FE0005207E7D5DA69120710D4DA691205E1D58C
:101FF000802212011A623000FFF74EFE9023202249
:10200000F2500C3B0022F25403200CE008241C6226
:102010003000FFF741FE9023F4500C3B0022F254B5
:10202000012000E00020C0BCB946B046F8BD032046
:10203000F9E70320F7E7F0B5C64600B582B0040023
:102040000D0090461E008823C358202B66D100291E
:1020500069D0002A69D0826880235B019A4204D14A
:102060000369002B01D1CB0761D490230022E250F9
:10207000083B2132E250FEF7C9FD070054234246D7
:10208000E2520233E252A26880235B019A4202D0FC
:102090000023984618E02369002B2AD00023984695
:1020A00012E088232022E250032038E043461B88B8
:1020B0002268DB05DB0D936202239C46E044562335
:1020C000E25A013A92B2E2525623E35A9BB2002BF3
:1020D00012D000963B00002280212000FFF760FF15
:1020E0000028DED1002DE1D02A7823689A620135DC
:1020F000E5E7A8460025E7E700963B0000224021DF
:102100002000FFF74DFF002803D188232022E25052
:1021100005E088232022E250032000E0022002B0E4
:1021200080BCB846F0BD0120F9E70120F7E70120A7
:10213000F5E7000030B583B0040090230022C250C0
:10214000FEF764FD050023681B681B0710D4236895
:102150001B685B072BD420238822A3500432A35092
:102160000023E3662367083AA354002003B030BD80
:102170008021234B00930300002289032000FFF7F6
:102180000FFF0028E3D0EFF31081012383F31088C1
:102190002268136880208343136081F310888823AA
:1021A0002022E250043B0022E2547D38DEE7802109
:1021B000134B00932B000022C9032000FFF7F0FE11
:1021C0000028C8D0EFF31080012282F31088216824
:1021D0000B680C4D2B400B6080F31088EFF31080E0
:1021E00082F3108821688B6893438B6080F310889A
:1021F0008C231F32E250083B0022E2540320B5E753
:10220000FFFFFF01DFFEFFFF10B5041E30D0882363
:10221000C358002B22D088232422E250226813685E
:1022200001218B431360A36A002B1DD12000FFF70F
:1022300065FD012811D0226853680E490B40536098
:10224000226893682A218B43936022681368293996
:102250000B4313602000FFF76DFF10BD8433002295
:10226000C254FFF7E9FCD6E72000FFF729FEDDE7BF
:102270000120F2E7FFB7FFFF0D488546FFF7B6FCE8
:10228000002103E00B4B5B58435004310A480B4BD1
:1022900042189A42F6D30A4A02E00023136004323D
:1022A000084B9A42F9D3FDF757FFFEF79BF8FEE77C
:1022B00000300020C8230008000000200C0000208F
:1022C0000C0000203C020020FEE70000F8B5C046EC
:1022D000F8BC08BC9E467047F8B5C046F8BC08BCC0
:0422E0009E4670475F
:1022E40068656C6C6F20776F726C640D0A00000077
:1022F400701800087819000878190008781900087F
:102304009A18000878190008781900087819000844
:10231400C818000878190008781900087819000806
:10232400F2180008781900087819000878190008CC
:10233400201900087819000878190008781900088D
:102344004A1900080000000000000000000000001E
:102354000000000001000000020000000300000073
:102364000400000000000000000000000000000065
:102374000000000000000000000000000000000059
:102384000000000001000000020000000300000043
:102394000400000006000000070000000800000020
:1023A40009000000010002000400060008000A0001
:0C23B4000C001000200040008000000120
:0423C00035010008DB
:0423C4000901000803
:0C23C8000100000004000000006CDC02BA
:040000050800227954
:00000001FF
