:020000040800F2
:100000000030002019270008AD0F0008B10F0008CC
:1000100000000000000000000000000000000000E0
:10002000000000000000000000000000B50F000804
:100030000000000000000000B90F0008BD0F00081C
:1000400069270008000000006927000869270008E8
:100050006927000869270008692700086927000840
:1000600000000000692700086927000869270008C8
:1000700069270008692700086927000800000000B8
:100080006927000800000000000000006927000840
:100090000000000069270008692700086927000898
:1000A0000000000069270008000000006927000820
:1000B00069270008000000000000000000000000A8
:1000C0000448054B10B5834203D0044B002B00D0ED
:1000D000984710BD0C0000200C000020000000001C
:1000E00006480749091A8B10C90FC91810B54910DD
:1000F00003D0044B002B00D0984710BD0C0000200B
:100100000C0000200000000010B5074C2378002BE5
:1001100009D1FFF7D5FF054B002B02D0044800E0C2
:1001200000BF0123237010BD0C0000200000000060
:100130006C270008054B10B5002B03D00449054877
:1001400000E000BFFFF7CCFF10BDC046000000007C
:10015000100000206C27000870B50D4B0D4D5E1B84
:10016000B610AB4205D0002408CD01349847A64212
:10017000FAD802F0FBFA084B084D5E1BB610AB42F2
:1001800005D0002408CD01349847A642FAD870BDA6
:1001900098280008982800089C280008982800083B
:1001A000F0B50500830749D0541E002A45D003004E
:1001B0000326CAB202E00135013C3ED301332A7066
:1001C0003342F8D1032C30D9FF220A401502AD1872
:1001D0002A04AD180F2C34D92700103F3F093E01E7
:1001E000B4461E001A0010366644156055609560CE
:1001F000D56010329642F8D101373F01DB190F2745
:100200000C22274022403C00002A0ED03E1FB60898
:10021000B400A4461A001C1D644420C2A242FCD1B2
:1002200003240136B6009B193C40002C05D0C9B20E
:100230001C19197001339C42FBD1F0BD030014005E
:10024000C0E72700E2E7C046002243088B4274D390
:1002500003098B425FD3030A8B4244D3030B8B42C7
:1002600028D3030C8B420DD3FF22090212BA030CD0
:100270008B4202D31212090265D0030B8B4219D3B1
:1002800000E0090AC30B8B4201D3CB03C01A5241D1
:10029000830B8B4201D38B03C01A5241430B8B4219
:1002A00001D34B03C01A5241030B8B4201D30B0302
:1002B000C01A5241C30A8B4201D3CB02C01A524129
:1002C000830A8B4201D38B02C01A5241430A8B42EC
:1002D00001D34B02C01A5241030A8B4201D30B02D5
:1002E000C01A5241CDD2C3098B4201D3CB01C01AEF
:1002F000524183098B4201D38B01C01A52414309F9
:100300008B4201D34B01C01A524103098B4201D3E6
:100310000B01C01A5241C3088B4201D3CB00C01A53
:10032000524183088B4201D38B00C01A52414308CB
:100330008B4201D34B00C01A5241411A00D20146F0
:10034000524110467047FFE701B5002000F0F0F879
:1003500002BDC0460029F7D076E7704703460B433D
:100360007FD4002243088B4274D303098B425FD3AE
:10037000030A8B4244D3030B8B4228D3030C8B42DA
:100380000DD3FF22090212BA030C8B4202D31212C0
:10039000090265D0030B8B4219D300E0090AC30B95
:1003A0008B4201D3CB03C01A5241830B8B4201D342
:1003B0008B03C01A5241430B8B4201D34B03C01A2B
:1003C0005241030B8B4201D30B03C01A5241C30AA3
:1003D0008B4201D3CB02C01A5241830A8B4201D314
:1003E0008B02C01A5241430A8B4201D34B02C01AFE
:1003F0005241030A8B4201D30B02C01A5241CDD2A3
:10040000C3098B4201D3CB01C01A524183098B42ED
:1004100001D38B01C01A524143098B4201D34B01D6
:10042000C01A524103098B4201D30B01C01A524139
:10043000C3088B4201D3CB00C01A524183088B42C0
:1004400001D38B00C01A524143088B4201D34B00A9
:10045000C01A5241411A00D201465241104670471B
:100460005DE0CA0F00D04942031000D34042534020
:1004700000229C4603098B422DD3030A8B4212D3E0
:10048000FC22890112BA030A8B420CD38901921112
:100490008B4208D3890192118B4204D389013AD04F
:1004A000921100E08909C3098B4201D3CB01C01A24
:1004B000524183098B4201D38B01C01A5241430937
:1004C0008B4201D34B01C01A524103098B4201D325
:1004D0000B01C01A5241C3088B4201D3CB00C01A92
:1004E000524183088B4201D38B00C01A5241D9D2AA
:1004F00043088B4201D34B00C01A5241411A00D22B
:100500000146634652415B10104601D34042002B26
:1005100000D54942704763465B1000D3404201B5A5
:10052000002000F005F802BD0029F8D016E770475A
:100530007047C04600B58DB000F082FD1822002142
:1005400006A8FFF72DFE142200216846FFF728FEBB
:1005500002230593FE33089305A8C03B0A9300F0DD
:10056000D9FD002801D072B6FEE7072200230092D1
:100570000193002200230490012168460292039314
:1005800000F01AFF002801D072B6FEE700F0A4F8D0
:1005900000F032FB00F0CCFB00F0FCF800F046FC71
:1005A00000F0A4FC01F0BAFD00200DB000BDC04673
:1005B00072B6FEE703691B685B6AC38000230370A1
:1005C0000020704710B5036982881B685B6A9BB284
:1005D000002A0FD10278002A2AD1826884895169C1
:1005E000214351615169214351610122C38002704D
:1005F000002010BD418800290AD00478002C1AD1AF
:10060000C188591A89B28A42F2D882688489E9E796
:1006100001780029F4D082688189546921435161AD
:1006200054698189614051610022C3800270DFE713
:1006300041880029EFD0C2889A1A92B28A42D7D351
:100640008268EDE70B015B1A10B5FF210400580129
:10065000FFF784FEF02380B25B001B1A6080A3804A
:10066000002010BD70B5FFF765FF164E300001F099
:1006700059F90021300001F0F3F91E22124B134DFD
:100680005A632023AB81A0232800DB05AB602E61D9
:10069000FFF790FF80212800FFF7D4FF01230C4CC7
:1006A000A3810C4B2000A3602661FFF783FF40214C
:1006B0002000FFF7C7FF2800FFF784FF2000FFF7A7
:1006C00081FFF8E780010020002C01403C00002061
:1006D000280000200004005030B58DB01422002105
:1006E00006A8FFF75DFD0422274BA025596B274C78
:1006F00011435963596BED050A400192019A20227A
:10070000596B280011435963596B0A400292029AAF
:100710000122596B11435963596B0A400392039AA2
:100720000222596B11435963596B0A400492049A8F
:100730000822596B114359635B6B20211A400592C3
:100740000122059B01F076F820000022104901F0FB
:1007500071F8202201230692079300220323280028
:1007600006A90892099300F057FF0123084A2000C8
:10077000069207930022002306A90892099300F02D
:100780004BFF0DB030BDC0460010024000040050C9
:100790000102000070B596B01C2200210EA8FFF7E0
:1007A000FFFC744C744B754A236000232000636087
:1007B000A360E2602361A36101F042F8002831D117
:1007C000200001F0DBF8002829D1602200230E92DE
:1007D0000F930023002220000EA91093129301F022
:1007E000A3F9002818D11422002108A8FFF7D8FC8B
:1007F0002368634A93422CD0624A934252D05E4AA5
:10080000934200D194E0604A93420ED05F4A9342F3
:1008100000D1A1E016B070BDFFF7CAFEE3E7FFF715
:10082000C7FED2E7FFF7C4FECAE70823584A594873
:10083000516B19435163526B08A91340069301226F
:10084000069B02230892099302230C9300F0E4FE16
:10085000E0E720224E4B0420596B11435963596B3A
:100860000A400092009A0122596B114359630221F8
:100870005B6B0890099113400193474808A9019BBD
:100880000C9200F0C9FE03230893013B0993002357
:100890000A930B93A020052308A9C0050C9300F030
:1008A000BBFEB7E7042201260225394B3B48596BB2
:1008B000002411435963596B0A400292029A5A6B01
:1008C00008A932435A635A6B32400392039A5A6B17
:1008D0002A435A635B6B80222B400493049B0223C0
:1008E000D201089209930B230C9300F095FE80230C
:1008F0001B020893032308A928480C9309950A941E
:100900000B9400F089FEA020402308A9C00508939D
:1009100009950A940B940C9600F07EFE204808A9D5
:10092000089509950A940B940C9600F075FE71E7F2
:100930002023174A1848516B19435163526B08A979
:10094000134005930122059B022308920993022379
:100950000C9300F061FE5DE701230D4A516B1943D2
:100960005163526B134007938022079B0223089226
:1009700009938FE7E800002000200040FFFF0000FF
:10098000002C0140000400400044014000480140A8
:1009900000100240000C00500014005000080050ED
:1009A000000400500368234A86B0934221D0224AB3
:1009B000934213D0214A934226D0214A93422ED00B
:1009C000204A934213D180211F4BC9021A6C0A435B
:1009D0001A641B6C0B400593059B08E002231A4A1E
:1009E000D16B1943D163D26B13400293029B06B0C3
:1009F00070478021144B09011A6C0A431A641B6C5E
:100A00000B400193019BF2E780210F4B09021A6C06
:100A10000A431A641B6C0B400393039BE7E7802196
:100A2000094B89021A6C0A431A641B6C0B4004932D
:100A3000049BDCE7002C0140000400400020004043
:100A400000440140004801400010024070B504001D
:100A50008EB01422002108A8FFF7A2FB23685C4A8D
:100A6000934223D05B4A934249D05B4A934200D1E0
:100A70008BE05A4A934205D0594A934200D198E0FC
:100A80000EB070BD0823574A5748516B1943516344
:100A9000526B08A9134006930122069B0223089279
:100AA000099302230C9300F0B7FDE9E720224D4B98
:100AB0000420596B11435963596B0A400092009A04
:100AC0000122596B1143596302215B6B0890099114
:100AD00013400193454808A9019B0C9200F09CFD2E
:100AE00003230893013B099300230A930B93A0204F
:100AF000052308A9C0050C9300F08EFDC0E7042271
:100B000001260225374B3A48596B0024114359639B
:100B1000596B0A400292029A5A6B08A932435A63EF
:100B20005A6B32400392039A5A6B2A435A635B6BA7
:100B300080222B400493049B0223D2010892099344
:100B40000B230C9300F068FD80231B020893032302
:100B500008A927480C9309950A940B9400F05CFDB2
:100B6000A020402308A9C005089309950A940B9476
:100B70000C9600F051FD1F4808A9089509950A94A4
:100B80000B940C9600F048FD7AE72023154A17488D
:100B9000516B19435163526B08A91340059301220D
:100BA000059B02230892099302230C9300F034FD65
:100BB00066E701230B4A516B19435163526B134093
:100BC00007938022079B0223089209938FE7C04670
:100BD000002C01400004004000200040004401407F
:100BE0000048014000100240000C0050001400506A
:100BF000000800500004005010B59CB010220021E5
:100C000004A8FFF7CDFA0C2200216846FFF7C8FAC6
:100C10001C22002108A8FFF7C3FA342200210FA8E4
:100C2000FFF7BEFA3F4C404B404A236000232000B0
:100C30006360A360E26023616361A36100F000FE72
:100C4000002856D1802320005B0104A9049301F001
:100C50000FF9002862D1200000F090FE00285AD140
:100C60000023002200920193002369462000029392
:100C700001F0B6F900284BD1602300200021089331
:100C800000230C900D910022200008A909930A93DB
:100C90000B930E9300F048FF002836D10422200069
:100CA00008A900F041FF00282CD10C22200008A93F
:100CB00000F03AFF002822D1802292011492802273
:100CC0000023920420000FA90F9310931193129305
:100CD0001393159316931793189219931A931B93C2
:100CE00001F0B4F9002807D12000FFF7AFFE1CB0D7
:100CF00010BDFFF75DFCA5E7FFF75AFCF4E7FFF72F
:100D000057FCD9E7FFF754FCCFE7FFF751FCC5E7E5
:100D1000FFF74EFCB0E7FFF74BFCA1E7FFF748FCFD
:100D200099E7C04680010020002C0140FFFF000031
:100D300010B590B01022002104A8FFF731FA0C2260
:100D4000002101A8FFF72CFA1C22002108A8FFF7B8
:100D500027FA334C334B344A23600023200063606E
:100D6000A360E2602361A36100F06AFD00283ED128
:100D7000802320005B0104A9049301F079F8002886
:100D80004AD1200000F0FAFD002842D100232000C3
:100D900001A90193039301F023F9002836D16022C1
:100DA00000230892099300230022200008A90A9337
:100DB0000C9300F0B9FE002825D10422200008A9D8
:100DC00000F0B2FE00281BD10822200008A900F084
:100DD000ABFE002811D10C22200008A900F0A4FECF
:100DE000002807D12000FFF731FE10B010BDFFF73B
:100DF000DFFBBDE7FFF7DCFBF4E7FFF7D9FBEAE732
:100E0000FFF7D6FBE0E7FFF7D3FBD6E7FFF7D0FB12
:100E1000C5E7FFF7CDFBB9E7FFF7CAFBB1E7C0466F
:100E20003401002000040040FFFF000010B596B020
:100E30001C2200216846FFF7B3F93422002108A8DC
:100E4000FFF7AEF9264C274B274A236000232000EA
:100E50006360A360E26023616361A36100F0F0FC62
:100E600000282DD1200000F089FD00282FD160231B
:100E70000020002100930023049005910022694680
:100E80002000019302930393069300F04DFE002887
:100E900023D180210020002389010C900D91200096
:100EA00008A9089309930A930B930E93149301F0E6
:100EB000CDF800280ED12000FFF7C8FD16B010BDF8
:100EC000FFF776FB200000F059FD0028CFD0FFF798
:100ED0006FFBCCE7FFF76CFBEDE7FFF769FBD8E7AB
:100EE0009C00002000440140FFFF000010B596B0B8
:100EF0001C2200216846FFF753F93422002108A87C
:100F0000FFF74EF9264C274B274A23600023200089
:100F10006360A360E26023616361A36100F090FC01
:100F200000282DD1200000F029FD00282FD16023BA
:100F300000200021009300230490059100226946BF
:100F40002000019302930393069300F0EDFD002827
:100F500023D180210020002389010C900D912000D5
:100F600008A9089309930A930B930E93149301F025
:100F70006DF800280ED12000FFF768FD16B010BDF7
:100F8000FFF716FB200000F0F9FC0028CFD0FFF798
:100F90000FFBCCE7FFF70CFBEDE7FFF709FBD8E70A
:100FA0005000002000480140FFFF0000FEE7C0465F
:100FB000FEE7C0467047C0467047C04610B500F017
:100FC0004BF810BD01220A4B82B0196C1143196411
:100FD000196C0A4080210092009ADA6B49050A4395
:100FE000DA63DB6B0B400193019B02B07047C04694
:100FF0000010024070B50F4B04001978002901D190
:10100000012070BDFA208000FFF71EF90A4D010093
:101010002868FFF719F900F063F80028F0D1032CD5
:10102000EED801380022210000F028F8034B002000
:101030001C60E6E7000000200800002004000020FB
:1010400010B50320FFF7D6FF041E02D001242000B4
:1010500010BDFFF7B7FFFAE7034A044B11681B788E
:101060005B1813607047C046CC01002000000020D0
:10107000014B18687047C046CC01002070B50028AD
:1010800014DB154B03229C46FF2384080240180002
:10109000C026D200890190400B409340A4006444D4
:1010A000B600A55985432B43A35170BD0B4A0F23AE
:1010B0009446032203401040FC321500C000890111
:1010C00085400A408240083B9B089B006344DC69E2
:1010D000AC432243DA61E8E700E100E000ED00E024
:1010E0008022431E5204012093420ED2C021074A9F
:1010F00007485360036A09061B021B0A0B4303627D
:1011000000230020936007331360704710E000E075
:1011100000ED00E0F8B5041E00D1ABE00368DA078B
:101120002CD538229A4DA9680A40082A00D19EE0A1
:10113000802243685202934200D1BCE0A021C90240
:101140008B4200D10DE12A6892490A402A602A6840
:1011500091490A402A60002B00D0AFE0FFF788FFDA
:1011600080270600BF0205E0FFF782FF801B64288E
:1011700000D9CDE02B683B42F6D123689A074BD4C7
:101180001A071DD53822824DA9680A40182A00D1B5
:10119000A5E0A369002B00D1D0E001222B6E02272D
:1011A00013432B66FFF764FF060005E0FFF760FFBF
:1011B000801B022800D9ABE02B6E1F42F6D02368BB
:1011C00004221A4226D03823714DA9680B40202BE7
:1011D00000D1CFE0A368012B00D185E0052B00D121
:1011E000CDE00120E96D8143E965E96D9143E96551
:1011F000002B00D07BE0FFF73BFF02260400674F87
:1012000005E0FFF735FF001BB84200D980E0EB6D29
:101210001E42F6D100202EE038225D4DAB681A4206
:101220002AD0E368002B00D174E02B685C4A802749
:1012300013402269FF0013432B6080232A685B0060
:1012400013432B60FFF714FF060004E0FFF710FFC5
:10125000801B02285CD82B683B42F7D06A68636920
:1012600050491B020A4013436B60236888E74268B9
:10127000002A83D10120F8BDE368002BFAD06A6808
:10128000636948491B020A4013436B602B68444A58
:1012900045491340226913432B602B68434A9B0442
:1012A0005B0FDA40424B0A601868FFF7A3FE002884
:1012B000E0D1236864E72A6813432B60FFF7D8FE68
:1012C00080260500324FB60204E0FFF7D1FE401B36
:1012D00064281DD83B683342F7D023684EE7A269E3
:1012E000002A00D06CE7C5E7EA6D1343EB65FFF712
:1012F000BFFE02250400264E284F04E0FFF7B8FE8B
:10130000001BB84204D8F36D1D42F7D00020B2E7AD
:101310000320B0E72B68274A802713402B60FFF794
:10132000A7FEFF00060004E0FFF7A2FE801B0228D4
:10133000EED82B683B42F7D1236821E701222B6EC0
:10134000022793432B66FFF793FE060004E0FFF7A6
:101350008FFE801B0228DBD82B6E1F42F7D123683B
:101360002EE780232968DB020B432B602B681A438E
:101370002A60A3E7A06843425841C0B27BE7EB6D07
:1013800013430122EB65EB6D1343EB65AFE7C046FA
:1013900000100240FFFFFEFFFFFFFBFF881300006D
:1013A000FFC7FFFFFF80FFFF08000020006CDC028A
:1013B00004000020FFFEFFFFF8B5CE4647460500BB
:1013C0000C0080B5002800D183E00722674E336807
:1013D00013408B4200D281E02B689A0710D55A0740
:1013E00007D56348634A81681140B02212010A435D
:1013F00082605F4960488A680240E86802438A6008
:10140000DB0729D51C215A4A13688B43A9680B4373
:1014100013606968012959D0002900D07CE0136865
:101420005B0556D50722524EB36893430B43B36016
:10143000FFF71EFE38239846504B0700994604E0FC
:10144000FFF716FEC01B48455ED84346B2681A40F7
:101450006B68DB009A42F3D10722444E3368134095
:10146000A34260D82B685B0706D5414A444993687C
:101470000B4029690B43936038233D4A91680B4226
:1014800044D091681940082965D0916819402029F5
:1014900068D092681340183B5A1E9341394A5B4208
:1014A0001340FA22D20194466344314A3649926885
:1014B00036481205120F920052581F210A40D3409D
:1014C0000360334B1868FFF795FD03E013689B0337
:1014D000A8D40120C0BCB946B046F8BD33689343D8
:1014E0000B433360FFF7C4FD07239846234B0700E7
:1014F0009946424633681340A34200D16CE7FFF798
:10150000B7FDC01B4845F4D90320E3E71268214B1F
:101510009204520FD340C8E703291ED0D36D9B0716
:1015200000D57FE7D5E73368934323433360FFF764
:101530009FFD07239846114B0700994642463368A2
:101540001340A34200D18DE7FFF792FDC01B484531
:10155000F4D90320BEE70F4BA7E7136E9B0700D516
:1015600060E7B6E780231B029FE7C04600200240E9
:1015700000100240FF84FFFFFFF0FFFF8813000010
:10158000FF8FFFFF0083FFFF3C28000808000020BA
:1015900004000020006CDC023820124B9A681042D4
:1015A00005D11B6810489B045B0FD84070479A68B0
:1015B0000240082A10D09A680240202A0ED09B6868
:1015C00018401838431E9841084B40421840FA23EF
:1015D000DB019C466044E9E70348E7E7802000021E
:1015E000E4E7C04600100240006CDC020083FFFF0D
:1015F000064B07499B68074A5B045B0F9B005B58DF
:101600001F2110680B40D8407047C04600100240B0
:101610001C28000808000020F0B54546DE46574665
:101620004E46E0B50D68002383B0002D00D182E066
:10163000884601242A009C4022409446254275D0C9
:101640004246526810261100B1438946022900D152
:1016500078E001685E008B460321B1408A46C943A9
:101660005F46019151468F43BB4603271740B74061
:10167000BA465F4651460F43012149428A46D1444A
:1016800049460760012900D888E0032A4ED0C46883
:1016900001990C4041468968B1402143C1608021D5
:1016A00049050A4242D003260F275D4C1E40A14641
:1016B000F600B7409908890049440C6EBC43A02746
:1016C000FF05B84212D0574FB84200D19CE0564FA8
:1016D000B84200D19CE0554FB84200D190E0544F41
:1016E000B84200D198E00627B7403C430C66802101
:1016F0004B4C61586446E443D60365D48026484F7A
:101700002140B95184217958960366D48426444FE8
:101710002140B9513968D60267D4414E2140316029
:101720007168920268D421403D4A51602A00013319
:10173000DA4000D07DE703B0F0BCBB46B246A94614
:10174000A046F0BDDE08B6008619316A8946072139
:10175000194089008A460F215746B9404F468F43AA
:101760004146B9460F27096939405746B9404F46A7
:101770003943316201685E008A460321B1408946DF
:10178000C9435746019149468F43BA46032717403C
:10179000B740B946574649460F43076087680199E5
:1017A0000F40BA464746FF68B740B94657464946D4
:1017B0000F43876041680F000121A74314090C40C3
:1017C0009C403C43446060E7664631438026144FAA
:1017D000B95184217958960398D5664631438426B9
:1017E0000F4FB9513968D60297D5664631430C4E32
:1017F00031607168920296D562460A43110093E700
:101800000327B7403C4371E70127B7403C436DE7EE
:101810000227B7403C4369E70527B7403C4365E7EB
:10182000001802400004005000080050000C005056
:1018300000140050002A01D0816170478162FCE7EA
:1018400010B5041E5FD03D23C35CDAB2002B4CD030
:101850003D230222E25422682C4913688A4215D0A3
:101860002B498A4246D02B498A4247D02A498A428C
:1018700010D02A498A420DD080218B43A1690B43A5
:101880001360E368D3626368936212E070218B4354
:10189000A1680B4322490B4021690B4380218B43F4
:1018A000A1690B431360E368D36263689362636961
:1018B00013630123536148220020A3540A3AA3541E
:1018C0000132A3540132A3540132A3540132A35470
:1018D0000132A3540132A3540132A3540132A35460
:1018E0000132A3540A3AA35410BD3C33C254FFF74B
:1018F00059F8ADE770218B43A1680B4308490B40B1
:1019000021690B43B8E70120EEE7C046002C0140F7
:101910000004004000200040004401400048014015
:10192000FFFCFFFF3D2110B5425C0300D4B2012053
:10193000012A0CD101325A541B680C4A934207D039
:101940000B4A934204D01A6822431A60002010BD4B
:101950009A6808490A40062AF8D007398A42F5D021
:1019600001211A6800200A431A60F0E7002C0140A8
:1019700000040040070001007047C04610B5041E77
:101980005FD03D23C35CDAB2002B4CD03D23022252
:10199000E25422682C4913688A4215D02B498A42A6
:1019A00046D02B498A4247D02A498A4210D02A4938
:1019B0008A420DD080218B43A1690B431360E368F9
:1019C000D3626368936212E070218B43A1680B437A
:1019D00022490B4021690B4380218B43A1690B43B2
:1019E0001360E368D36263689362636913630123DE
:1019F000536148220020A3540A3AA3540132A3544D
:101A00000132A3540132A3540132A3540132A3542E
:101A10000132A3540132A3540132A3540132A3541E
:101A20000A3AA35410BD3C33C254FFF7A5FFADE7FB
:101A300070218B43A1680B4308490B4021690B437C
:101A4000B8E70120EEE7C046002C0140000400404A
:101A5000002000400044014000480140FFFCFFFF1F
:101A6000102903D82A4A8B00D3589F464323C25CCF
:101A7000012A2AD10222C2541F2211401E3A8A4052
:101A80000368196A91431962196A0A431A62214A62
:101A9000934236D0204A93422DD0204A93422AD0F6
:101AA0001F4A934207D19A681E490A40062A06D067
:101AB00007398A4203D001211A680A431A600020BC
:101AC00070473E23C25C012AD4D00120F8E73F23AF
:101AD000C25C012ACED0F8E74023C25C012AC9D0FB
:101AE000F3E74123C25C012AC4D0EEE74223C25C83
:101AF000012ABFD0E9E78022596C12020A435A64D6
:101B0000D9E78022596C12020A435A64CBE7C046D7
:101B100084270008002C0140004401400048014097
:101B2000000400400700010003003C20F0B51C5CED
:101B3000012C00D16BE101241C54142A03D8B548B0
:101B400092008258974601203C2200219954F0BD12
:101B50001A68B14D146A106A28401062AF4D566879
:101B6000506D28400D682D020543AD48044088683B
:101B700000052043AB4CA24200D118E1AA4CA2427E
:101B800000D114E1A94CA24200D110E14C6856608A
:101B90005565D46510628020546D00012043506566
:101BA000506DA34C096920405065506D09020143F6
:101BB00051650020C8E701251A689E4E106A146A14
:101BC000AC4314625568946934400E68344302266D
:101BD000B0438E683043934EB24200D1DAE0924E69
:101BE000B24200D1D6E0914EB24200D1D2E055606F
:101BF00094614C6809695463082410629069204319
:101C000090619069043CA0439061906901439161A7
:101C1000002099E710251A68106A146AAC43146210
:101C2000854D566894692C400D682D02254320246B
:101C3000A0438C68240104437A48824200D1C2E068
:101C40007948824200D1C5E07848824200D1C1E0A3
:101C50004868566095619063802014629469000121
:101C6000204390619069724C0969204090619069AD
:101C7000090201439161002066E71A686F4D106AFE
:101C8000146A6C4E2C4014625568D46934400E6856
:101C900026436B4C20408C6824022043614CA242B6
:101CA00000D1A5E0604CA24200D1A8E05F4CA24266
:101CB00000D1A4E04C685560D661D463082410625A
:101CC000D06909692043D061D069043CA043D06148
:101CD000D0690143D161002036E71A68594D146A72
:101CE000106A28401062544D5668D06928400D682B
:101CF0002D02054354480440886800032043494CA2
:101D0000A2426FD0484CA2426CD0484CA24269D04B
:101D10004C685660D561146410628020D46900015B
:101D20002043D061D069424C09692040D061D0691C
:101D300009020143D161002006E71A68434D146A85
:101D4000106A28401062424D5668506D28400D6858
:101D5000054340480440886800042043314CA242B7
:101D60002BD0314CA24228D0304CA24225D04C6816
:101D700056605565946508241062506D09692043CA
:101D80005065506D043CA0435065506D0143516552
:101D90000020D9E60826B043CE688F693043042678
:101DA000B0432D4E2E404D693D4335431FE72B4C2C
:101DB00034404E69B6022643E8E6244C34404E696E
:101DC00036022643D3E780208443C86800010443D9
:101DD0004020844322484F6930408E693E43B6001C
:101DE000064335E71F4C34404E69B60126438FE762
:101DF0001D4C2040CC68240204430D4820401B4C5D
:101E00004F692C408D693D432D01254352E7022047
:101E10009DE6C046C8270008FFFFEFFFFF8FFFFECB
:101E2000FFFFDFFF002C014000440140004801405B
:101E3000FFFBFFFF8CFFFEFFFF8CFFFEFFFEFFFF9F
:101E4000FFFDFFFFFFEFFFFFFFDFFFFFFFFFFEFFD5
:101E50008FFFFEFFFFFFFDFFFFFCFFFFFFFFFBFF0C
:101E6000FFF3FFFFFFBFFFFFFFF7FFFFFFCFFFFF06
:101E70003C2370B50200C05C012800D173E001244E
:101E80000220D4540133D0541068514D83682B4044
:101E900083600B68602B00D167E01DD8402B00D118
:101EA0007DE03FD9502B35D14D68CB68016A066A79
:101EB0001B01A6430662F0268469B44323430A2427
:101EC000A143294383610162836842490B40572142
:101ED0000B43836000201EE080246401A342F9D0FC
:101EE0008024A401A3422BD184683B4B4D681C4045
:101EF0008B68C9682B4309020B432343836080230B
:101F00008168DB010B438360002004E010211C008A
:101F10008C430CD001203D230121D1540021013BF1
:101F2000D15470BD202B02D0F0D9302BF2D1816872
:101F3000284C21400B4307210B4383600020EAE734
:101F4000702BE7D18468244B4D681C408B68C968AE
:101F50002B4309020B4377212343836083680B43A0
:101F600083600020D7E70220DBE71026046A056AB9
:101F70004B68B543C96805628569184E0903354049
:101F80002943A0251B01AC4323438161036283687D
:101F900010490B4067210B4383600020BBE74D686D
:101FA000CB68016A066A1B01A6430662F0268469B3
:101FB000B44323430A24A143294383610162836814
:101FC00004490B4047210B4383600020A3E7C04630
:101FD0008800CEFF8FFFCFFFFF00FFFFFF0FFFFF47
:101FE0003C2330B5C35C012B27D03D230222C254D1
:101FF0000268134D53689468AA420FD07025AB4312
:102000000D682B4353600F4B9A4210D03D230122A1
:10201000C2540022013BC254002030BD0A4D2B4067
:102020004D682B437025AB430D682B4353608023D1
:102030009C438B681C439460E8E70220EDE7C046B0
:10204000002C014000040040FFFF0FFF3C2310B5AF
:10205000C35C012B3DD0204ACB68046813408A68DA
:1020600013431E4A13404A6813431D4A13400A682B
:1020700013431C4A13400A6913431B4A13404A691D
:1020800013431A4A13400A6B1343194A13408A69CF
:1020900012041343174A944205D0636400223C2380
:1020A000C254002010BD144A1340CA691343134A96
:1020B00013408A6A12051A43114B1A400B6A1A43DD
:1020C000104B1A404B6A1A430F4B1A40CB6A13430A
:1020D000E3E70220E6E7C046FFFCFFFFFFFBFFFF50
:1020E000FFF7FFFFFFEFFFFFFFDFFFFFFFBFFFFF78
:1020F000FFFFF0FF002C0140FFFFFFEFFFFF0FFF8E
:10210000FFFFFFFEFFFFFFFDFFFFFFDF8022024B0F
:1021100012059A607047C04600ED00E00C480D4B78
:1021200010B50360E1235B020C224360002342618F
:102130008360C36003618361C3610362436283623E
:1021400000F0F8F9002800D110BDFEF731FAFBE7E6
:10215000D00100200044004010B5040088B01422D3
:10216000002102A8FEF71CF8114B22689A4201D008
:1021700008B010BD80210F4B8902DA6B0C200A4396
:10218000DA63DA6B0A400092009A0122596B11431C
:10219000596302215B6B02900391A02013400193CD
:1021A00002A9C005019B0692FFF736FAE0E7C04698
:1021B0000044004000100240836A30B51A0706D57B
:1021C0000168284C4A682240846B22434A60DA073F
:1021D00006D50168244C4A682240C46A22434A60FA
:1021E0009A0706D50168214C4A682240046B2243B5
:1021F0004A605A0706D501681D4C4A682240446B64
:1022000022434A60DA0606D501681A4C8A682240E1
:10221000C46B22438A609A0606D50168164C8A6808
:102220002240046C22438A605A060AD50168134D85
:102230004A68446C2A4022434A60802252039442F6
:1022400009D01B0606D502680D4953680B40C16CC6
:102250000B43536030BD4A680A4C2240846C2243D1
:102260004A60EEE7FF7FFFFFFFFFFDFFFFFFFEFF7E
:10227000FFFFFBFFFFEFFFFFFFDFFFFFFFFFEFFFB2
:10228000FFFFF7FFFFFF9FFFF0B590230022C64638
:10229000040000B5C250FEF7EBFE236805001A6883
:1022A000120711D41A6852073ED420238822A35063
:1022B0000432A35000230020E36623678423002216
:1022C000E25480BCB846F0BDDA699202EAD48026B6
:1022D000082304279846B60410E023681A681742BA
:1022E00009D04146DA69114259D18022D9691201D7
:1022F000114200D085E0DA699202D3D4FEF7B8FE2D
:10230000401BB042E9D3EFF31081012383F310881F
:102310008020226813688343136081F31088882328
:1023200020220320E250C9E7DB695B02BDD480268E
:10233000082304279846B60411E023681A68174258
:102340000AD04146DA69114200D08BE08022D96977
:102350001201114200D0B7E0DB695B02A5D4FEF7A1
:1023600087FE401BB042E8D3EFF31080012282F3D6
:10237000108821686D4D0B682B400B6080F310882E
:10238000EFF3108082F3108821688B6893438B6091
:1023900080F310888C231F320320E2508EE71962ED
:1023A000EFF31080012282F3108821685F4D0B68E3
:1023B0002B400B6080F31088EFF3108182F31088BC
:1023C00022685B4893680340936081F31088E36E52
:1023D000012B0AD1EFF3108183F3108810202268BB
:1023E00013688343136081F310888C232022082113
:1023F000E25000237032E3666367A1500C3AA354A5
:1024000081E71A62EFF31080012282F310882168BD
:10241000464D0B682B400B6080F31088EFF3108162
:1024200082F310882268424893680340936081F3E6
:102430001088E36E012B0AD1EFF3108183F310882B
:102440001020226813688343136081F310882022D0
:102450008C239021E2500023E3666367625064326C
:10246000A35450E71962EFF31080012282F3108821
:1024700021682E4D0B682B400B6080F31088EFF322
:10248000108182F310882268294893680340936082
:1024900081F31088E36E012B0AD1EFF3108183F3EF
:1024A00010881020226813688343136081F310881A
:1024B0008C2320220821E25000237032E3666367F8
:1024C000A1500C3AA3544FE71A62EFF31080012297
:1024D00082F310882168154D0B682B400B6080F348
:1024E0001088EFF3108182F31088226810489368F7
:1024F0000340936081F31088E36E012B0AD1EFF360
:10250000108183F3108810202268136883431360BE
:1025100081F3108820228C239021E2500023E3666F
:10252000636762506432A3541EE7C046DFFEFFFFBC
:10253000FEFFFFEF70B5041E3AD08823C358002B6E
:1025400000D172E0882324222568E2502B68233AC8
:1025500093432B60A36A002B63D12169A3682A6887
:102560000B436169E0690B435E4903430A4013432F
:102570002B606B685C4A216A1340E268666A134309
:102580006B60A369AA680B4358490A4013430F22A2
:10259000AB60EB6A93433343EB62554B9D4209D0EA
:1025A000544B9D420DD0544BA36600236367A36731
:1025B000012070BD032351494A6D1340013B022B9A
:1025C00038D980231B02984249D0FFF711F8002820
:1025D00068D0666A4A4B7600F15AFDF735FE6568A9
:1025E0006B08C0182900FDF72FFE0200454B103A7A
:1025F0009A42D8D82368D8603F4AA2660022626710
:10260000A2675A68404920000A402A215A609A6805
:102610008A439A601A6829390A431A60FFF734FE20
:10262000C7E72000FFF7C8FD97E784228354FFF730
:1026300093FD87E7354AD25C80231B0298423AD04B
:10264000042A35D02AD8002ABFD0022AABD1096883
:102650002F480906490F0131FDF7F6FDBAE7FEF7ED
:10266000C7FF00281ED0666A254B7600F15AFDF799
:10267000EBFD656840006B08C0182900FDF7E4FD1C
:102680000200204B103A9A4200D98CE7214A236875
:1026900002400007400F0243DA60ADE71800082A45
:1026A00098D080E7144B6067A366A0672368A8E70B
:1026B000FEF772FF8BE7042A0DD00FD8002ACED088
:1026C000022A00D06FE7096811480906490F013155
:1026D000FDF7BAFDC8E7FEF75FFFC2E7082AC3D0DF
:1026E00061E7C046F369FFCFFFCFFFFFFFF4FF11A3
:1026F0000038014000440040010001000010024089
:1027000080280008EFFF0000FFB7FFFF7C280008CB
:10271000006CDC02F0FF00000D488546FFF7F6FC78
:10272000002103E00B4B5B58435004310A480B4B2C
:1027300042189A42F6D30A4A02E000231360043298
:10274000084B9A42F9D3FDF707FDFDF78BFFFEE733
:1027500000300020A0280008000000200C0000200D
:102760000C00002064020020FEE70000F8B5C0461F
:10277000F8BC08BC9E467047F8B5C046F8BC08BC1B
:042780009E467047BA
:10278400C21A00086C1A00086C1A00086C1A0008B7
:10279400CE1A00086C1A00086C1A00086C1A00089B
:1027A400D81A00086C1A00086C1A00086C1A000881
:1027B400E21A00086C1A00086C1A00086C1A000867
:1027C400EC1A0008B61B0008461B0008461B00084C
:1027D400461B0008141C0008461B0008461B000882
:1027E400461B00087A1C0008461B0008461B00080C
:1027F400461B0008DA1C0008461B0008461B00089C
:10280400461B00083A1D0008461B0008461B00082A
:10281400461B0008501B00080000000000000000D8
:1028240000000000000000000100000002000000A1
:10283400030000000400000000000000000000008D
:102844000000000000000000000000000000000084
:102854000000000000000000010000000200000071
:102864000300000004000000060000000700000050
:102874000800000009000000040208000100020032
:102884000400060008000A000C00100020004000AC
:0428940080000001BF
:0428980035010008FE
:04289C000901000826
:0C28A0000100000004000000006CDC02DD
:0400000508002719AF
:00000001FF
