:020000040800F2
:100000000000022099A200086F5A0008715A0008E7
:10001000735A0008755A0008775A0008000000005B
:10002000000000000000000000000000795A0008F5
:100030007B5A0008000000007D5A00087F5A000823
:10004000E9A20008E9A20008E9A20008E9A2000864
:10005000E9A20008E9A20008E9A20008E9A2000854
:10006000E9A20008E9A20008E9A20008E9A2000844
:10007000E9A20008E9A20008E9A20008E9A2000834
:10008000E9A20008E9A20008E9A20008E9A2000824
:10009000E9A20008E9A20008E9A20008E9A2000814
:1000A000E9A20008E9A20008E9A20008E9A2000804
:1000B000E9A20008E9A20008E9A20008E9A20008F4
:1000C000E9A20008E9A20008E9A20008E9A20008E4
:1000D000E9A20008E9A20008E9A20008E9A20008D4
:1000E000E9A20008E9A2000800000000E9A2000857
:1000F000E9A20008E9A20008E9A20008E9A20008B4
:10010000E9A20008E9A20008E9A20008E9A20008A3
:10011000E9A20008E9A20008E9A20008E9A2000893
:10012000E9A20008E9A20008E9A20008E9A2000883
:10013000E9A20008E9A20008E9A20008E9A2000873
:1001400000000000000000000000000000000000AF
:10015000E9A20008E9A20008E9A20008E9A2000853
:10016000E9A20008E9A20008E9A20008E9A2000843
:10017000E9A20008E9A20008E9A2000800000000C6
:10018000E9A20008E9A20008E9A20008E9A2000823
:10019000E9A20008E9A20008E9A20008E9A2000813
:1001A000E9A20008E9A20008E9A200080000000096
:1001B000E9A20008E9A20008E9A20008E9A20008F3
:1001C000E9A20008E9A20008000000000000000009
:1001D0000000000000000000E9A20008000000008C
:1001E000000000000000000000000000000000000F
:1001F0000000000000000000E9A20008E9A20008D9
:10020000E9A20008E9A2000800000000E9A2000835
:10021000E9A20008E9A20008E9A20008E9A2000892
:10022000E9A2000800000000E9A2000800000000A8
:10023000E9A20008E9A2000800000000E9A2000805
:10024000E9A20008E9A20008E9A20008E9A2000862
:10025000E9A20008E9A20008E9A20008E9A2000852
:10026000E9A20008E9A20008E9A20008E9A2000842
:10027000E9A20008E9A20008E9A2000800000000C5
:10028000E9A20008E9A20008E9A20008E9A2000822
:1002900000000000E9A20008E9A200080000000038
:1002A00000000000E9A20008E9A20008E9A2000895
:1002B000E9A20008E9A20008E9A20008E9A20008F2
:0C02C000E9A20008E9A20008E9A2000879
:100300000348044B834202D0034B03B118477047A4
:10031000E0010020E0010020000000000548064B3D
:100320001B1AD90F01EBA301491002D0034B03B1F3
:1003300018477047E0010020E001002000000000A5
:1003400010B5064C237843B9FFF7DAFF044B13B11D
:100350000448AFF300800123237010BDE0010020AA
:1003600000000000ECA2000808B5044B1BB10449D2
:100370000448AFF30080BDE80840CFE7000000006C
:10038000E4010020ECA2000870B50F4B0F4DAB420A
:10039000A3EB050607D0B610002455F8043B013442
:1003A0009847A642F9D809F0A1FF094D094B5E1BF9
:1003B000AB424FEAA60606D0002455F8043B0134B0
:1003C0009847A642F9D870BD84A7000884A7000802
:1003D00084A7000888A70008844641EA000313F0B8
:1003E00003036DD1403A41D351F8043B40F8043B3C
:1003F00051F8043B40F8043B51F8043B40F8043BFF
:1004000051F8043B40F8043B51F8043B40F8043BEE
:1004100051F8043B40F8043B51F8043B40F8043BDE
:1004200051F8043B40F8043B51F8043B40F8043BCE
:1004300051F8043B40F8043B51F8043B40F8043BBE
:1004400051F8043B40F8043B51F8043B40F8043BAE
:1004500051F8043B40F8043B51F8043B40F8043B9E
:1004600051F8043B40F8043B403ABDD2303211D33E
:1004700051F8043B40F8043B51F8043B40F8043B7E
:1004800051F8043B40F8043B51F8043B40F8043B6E
:10049000103AEDD20C3205D351F8043B40F8043B3E
:1004A000043AF9D2043208D0D2071CBF11F8013B3C
:1004B00000F8013B01D30B8803806046704700BF02
:1004C000082A13D38B078DD010F003038AD0C3F111
:1004D0000403D21ADB071CBF11F8013B00F8013BF3
:1004E00080D331F8023B20F8023B7BE7043AD9D3B2
:1004F000013A11F8013B00F8013BF9D20B78037087
:100500004B7843708B78837060467047830730B5B3
:1005100047D0541E002A3ED0CAB2034601E0013C37
:1005200039D303F8012B9D07F9D1032C2CD9CDB277
:1005300005EB05250F2C05EB054535D9A4F1100277
:1005400022F00F0C03F1100EE6444FEA121C1A467B
:10055000156055609560D56010327245F8D10CF188
:10056000010214F00C0F03EB021204F00F0C13D075
:10057000ACF1040323F003030433134442F8045B97
:100580009A42FBD10CF003042CB1C9B21C4403F80D
:10059000011B9C42FBD130BD64461346002CF4D1B4
:1005A000F9E703461446C0E71A46A446E0E700BF51
:1005B000F0B52DED028BB0EE408B85B0154618EEF0
:1005C000902A0D9E0C9F002AB4BF2D2200221A7083
:1005D00026F02003B8BFB1EE408B462B0C463DD031
:1005E000452B1CD0B0EE480B03AA019202AA009240
:1005F0003B460A46022100F0C5FF672E1BD1EB07E0
:100600001DD50119B5EE408BF1EE10FA19D10B464C
:100610000E9A1B1A136005B0BDEC028BF0BD03AA45
:100620000134019202AA00923B4622460221B0EE1A
:10063000480B00F0A7FF472EE3D1EB07E1D4039B63
:10064000E6E7039B9942E3D94FF0300C5A1C039222
:1006500083F800C0039B8B42F8D3D9E703AB019327
:1006600002AB00930A463B460321B0EE480B00F074
:1006700089FF0378302B03D0396821440144C1E756
:10068000B5EE408BF1EE10FAF6D0C4F101013960FD
:10069000F3E700BFF0B5002983B0027038DB851C9A
:1006A0002B23092943702ADD0DF107061B4FB6469F
:1006B000A7FB0123DB0803EB8302A1EB42020C46FC
:1006C0003032632CF4460EF8012C19460EF1FF3E31
:1006D000EEDCACF102033031B3420EF8011C1BD248
:1006E0006A1E13F8011B02F8011FB342F9D10DF184
:1006F0000903A3EB0C032B44181A03B0F0BD3022FE
:100700002B46114403F8022B6970181A03B0F0BD90
:100710004942851C2D23C4E72B46F6E7CDCCCCCC33
:100720002DE9F04F8DB00C46DDF8589016461F4667
:10073000054601F0EDFFD0F800A0504600F040FD66
:1007400000230A93D9F800300590073323F00703FC
:1007500093ED000B9FEDAA7BB0EEC06B0833B4EEB7
:10076000476BF1EE10FA226894F81880C9F800304F
:1007700084ED120B00F38F80B4EE400BF1EE10FA13
:1007800080F13E826168481C36D0B8F1670F56D0C0
:10079000B8F1470F00F0878142F4806200232260A5
:1007A00003930AAB029309AB0093CDF804800DF1DB
:1007B00023032846FFF7FCFE8146B8F1650F09992F
:1007C00098BF424657D9B8F1660F00F080810A9B66
:1007D0008B4200F3868123682161D80701D54B1C29
:1007E0002361A1654FF0000B9DF82330002B68D0EA
:1007F0002D2384F8433064E042F480620621002314
:100800002260CDF80480616003930AAB029309ABC8
:10081000009328460DF12303FFF7CAFEB8F1670FD6
:10082000814622D0B8F1470FC7D10999C81C03DB14
:100830006368994240F32681452290461BE00029D7
:1008400040F0618142F480620121CDF80480226091
:100850006160002303930AAB029309AB009328461F
:100860000DF12303FFF7A4FE81460999CB1C80F20A
:10087000058165229046013904F150000991FFF786
:1008800009FF0A9A1318012A8346236140F336812F
:1008900001332361A8E7B5EEC00BF1EE10FA02D5E3
:1008A0002D2384F8433022F00402574B2260574A2C
:1008B000B8F1470F94BF91469946032323614FF047
:1008C000000B009733460BAA2146284600F0D8F9C2
:1008D000013024D023685A052CD423694A46314676
:1008E0002846B84701301AD02368E06813F0020F99
:1008F0000B9B19D0984217DD04F119094FF000083D
:1009000004E0E0680B9BC21A42450DDD01234A4614
:1009100031462846B847013008F10108F1D14FF0BF
:10092000FF300DB0BDE8F08F9842B8BF18460DB04B
:10093000BDE8F08FB8F1650F30D994ED127BB5EEBC
:10094000407BF1EE10FA65D1314A01233146284649
:10095000B8470130E3D0DDE90938434502DB2368BD
:10096000D807C2D5059B524631462846B8470130C4
:10097000D5D0B8F1010F08F1FF3AB5DD04F11A093D
:100980004FF0000801E0D045AED001234A46314681
:1009900028469844B8470130F5D1C0E7DDF82880F3
:1009A000B8F1010F71DD01234A4631462846B847A8
:1009B0000130B4D0059B524631462846B847013035
:1009C000ADD094ED127BB5EE407BF1EE10FA40F025
:1009D0009080B8F1010F08F1FF3A60DD04F11A09C7
:1009E0004FF0000801E0D04559D001234A46314676
:1009F00028469844B8470130F5D190E7AFF300801E
:100A0000FFFFFFFFFFFFEF7F3CA6000838A60008AE
:100A100048A60008099B002B40F383800A9BD4F86A
:100A200058B006935B45A8BF5B46002B984608DD8F
:100A30004A4631462846B84701303FF470AFD4F8F3
:100A400058B028EAE872934540F3AE8004F11A03E7
:100A5000CDF81CA04FF0000893469A4605E0A36D20
:100A6000A3EB0B02424540F39C80012352463146E2
:100A700028469844B8470130F1D150E7636899425D
:100A80003FF7F7AE4FF06708A1E6DB078BD44A4685
:100A9000012331462846B84701303FF440AF5B465A
:100AA00004F150021BE7002967D042F48062CDF8C0
:100AB00004802260002303930AAB029309AB0093E6
:100AC00028460DF12303FFF773FD8146ADE60029AB
:100AD0001FDD63682161002B57D001330B44236174
:100AE0007FE60029D4BFC1F1020201221344236131
:100AF00077E608F1FF3309F10102CAE72268D2075D
:100B00007FF572AEC4E642F48062CDF804802260C4
:100B10009FE66368002B3DD12268D2073AD40123B7
:100B2000E5E7544A012331462846B84701303FF4EF
:100B3000F6AEDDE9093858EA03032DD0059B52468D
:100B400031462846B84701303FF4E9AE099B002BF7
:100B500080F28D8004F11A0B4FF0000A04E0099B2B
:100B60005B42534540F3838001235A463146284671
:100B70009A44B8470130F2D1D1E642F480620121B3
:100B8000CDF804802260616094E72268D0077FF589
:100B900028AEA2E70233AAE72368D9077FF5A5AEFE
:100BA000CCE7DDF81CA09B46099B069A9A423EDCE6
:100BB0002268D2073BD4069AD31AA2EB0B0B9B45B3
:100BC000DA46A8BF9A462AEAEA7A53457FF78CAEFE
:100BD000DDF818B004F11A094FF0000807E0099B8E
:100BE000ABEB0303A3EB0A0343457FF77DAE012381
:100BF0004A46314628469844B8470130EFD18EE640
:100C000010EE903A002BB8BF2D2322F00402B8BF9B
:100C100084F843302260184B184AB8F1470F94BF4C
:100C200091469946032323614FF0000B49E6059B4B
:100C3000524631462846B84701303FF470AE069A16
:100C4000099BA2EB0B0AD31A9A45A8BF9A46BAF1A0
:100C5000000FB8DD09EB0B02534631462846B84772
:100C600001303FF45CAE099B069AD31AABE74346CA
:100C70004A4634E648A6000844A6000840A60008F4
:100C80002DE9F84F92461F460A698B68DDF82890D7
:100C90009A42B8BF1A46CAF8002091F843300C4671
:100CA000064613B10132CAF80020226891065FD5CA
:100CB000DAF800300233CAF80030226812F0060F6A
:100CC00011461DD1E1689942D8BF114618DD04F1E3
:100CD000190B4FF0000805E0E568DAF80030ED1A6E
:100CE00045450CDD01235A4639463046C847013098
:100CF00008F10108F0D14FF0FF30BDE8F88F21680E
:100D000094F84330003B18BF01238A060AD5E11846
:100D10005A1C302081F84300224494F8451082F890
:100D20004310023304F1430239463046C8470130CC
:100D3000E1D02368DAF80010E26803F00603042B20
:100D40001DD0A3682269934222DD4FF000089B1A50
:100D500098441A34002501E0454519DA012322465A
:100D600039463046C847013005F10105F4D1C2E7E4
:100D700012F0060F0FD0003B18BF0123D2E7511A23
:100D8000A3682269934221EAE178E0DC0029E0DCF3
:100D90000020BDE8F88FE168DAF800309942D8BF4A
:100DA000114694DCACE700BF2DE9F047174684B04C
:100DB0000A7E0C9D0C460646984601F1430C002A1B
:100DC00033D0A2F15803D9B2202967D8202B65D897
:100DD000DFE813F0DE006400640064006400640077
:100DE00064006400640064006400A7006E00640096
:100DF0006400640064006E006400640064006400C9
:100E000021008000C10064006400B1006400800023
:100E100064006400E40023681A0640F1E1802B6856
:100E20006269191D29601B681A600023E14623616D
:100E3000CDF800803B4603AA21463046FFF720FF4D
:100E4000013020D023694A4639463046C047013038
:100E500019D02368E068DDF80C909B0718D5484549
:100E600016DD04F1190A002504E0E068A0EB09038F
:100E7000AB420DDD0123524639463046C0470130B2
:100E800005F10105F1D14FF0FF3004B0BDE8F08766
:100E90004845B8BF484604B0BDE8F08784F8422012
:100EA000012004F142090023206184F84330BFE7A8
:100EB00023681A0602D4580600F1A88029680A6837
:100EC000043129601146002AC0F2A7805E484FF025
:100ED0000A0E11E02368190640F18E802B68191D57
:100EE0002960196858486F2A14BF4FF00A0E4FF056
:100EF000080E002384F843306268A260002A4FDBAA
:100F0000236823F004032360002949D1002A40F01C
:100F10009380E146BEF1080F53D0ACEB0903236187
:100F200086E72B681A6804332B6004F1420984F8C1
:100F300042200120B7E72B686268191D2960D3F8A9
:100F400000900021484601F08BFC00287AD0A0EBED
:100F500009006060A7E7236843F02003236078223C
:100F60003A4884F845202A68111D29601D0635D4A9
:100F7000590633D51188DD0744BF43F020032360B1
:100F800019B9236823F0200323604FF0100EB0E757
:100F9000582384F845302C482368E4E72368DEE7CB
:100FA0007546E146B1FBF5F305FB131A0A46AA4262
:100FB00010F80A1009F8011D1946F3D2BEF1080F06
:100FC000ABD12368D907A8D5626823699A42A4DC0B
:100FD000302309F8013C09F1FF399EE71168CAE79F
:100FE00013F0400F2B68626903F1040129601B684C
:100FF00014BF1A801A6018E713F0400F2B6803F132
:10100000040129600CBF196819886BE72A68B2F9D6
:10101000001004322A600A4655E76268A2602D205B
:10102000002A84F8430002DB23F0040323600A252E
:1010300005484942AE46B4E7037884F8423004F1EB
:10104000420967E760682EE74CA6000860A6000822
:101050000EB410B5044683B008B183695BB106AB2A
:10106000A168059A0193204602F0DAFA03B0BDE8C0
:10107000104003B0704701F0E5FAF0E70FB410B587
:101080000A4B1C6882B00CB1A3695BB105ABA168C7
:10109000049A0193204602F0C3FA02B0BDE8104062
:1010A00004B07047204601F0CDFAEFE700000020C1
:1010B00070B50646002856D083690D4613B3846880
:1010C0002B4B9C422AD02B4B9C424ED02A4B9C420D
:1010D00008BFF468A3891B0724D5236913B3013D16
:1010E000A36815F8011F013BA36059B3002B04DA74
:1010F000A26993421DDB0A291BD023685A1C226077
:101100001970EDE701F09EFAB369B468002BD7D1EE
:10111000304601F097FA164B9C42D4D17468A389EB
:101120001B07DAD42146304600F01CF90028D6D03F
:1011300005E02246304600F0B1F80130D0D14FF042
:10114000FF3070BD002B08DA22460A21304600F03D
:10115000A5F80130F3D00A2070BD23680A22591C7B
:1011600021601A70F7E78368FFDEB468B2E700BF5A
:101170004CA300082CA300080CA30008024B014656
:101180001868FFF795BF00BF0000002000000000B6
:10119000000000000000000000000000000000004F
:1011A000000000000000000000000000000000003F
:1011B000000000000000000000000000000000002F
:1011C00090F800F06DE9024520F007016FF0000C87
:1011D00010F0070491F820F040F049804FF000042F
:1011E0006FF00700D1E9002391F840F000F108000A
:1011F00082FA4CF2A4FA8CF283FA4CF3A2FA8CF342
:101200004BBBD1E9022382FA4CF200F10800A4FAA8
:101210008CF283FA4CF3A2FA8CF3E3B9D1E90423FC
:1012200082FA4CF200F10800A4FA8CF283FA4CF333
:10123000A2FA8CF37BB9D1E9062301F1200182FAED
:101240004CF200F10800A4FA8CF283FA4CF3A2FAF3
:101250008CF3002BC6D0002A04BF04301A4612BA01
:10126000B2FA82F2FDE8024500EBD2007047D1E904
:10127000002304F00305C4F100004FEAC50514F093
:10128000040F91F840F00CFA05F562EA05021CBF64
:1012900063EA050362464FF00004A9E7F8B50D467E
:1012A0001446064608B1836943B3254B9C422AD0B5
:1012B000244B9C4229D0244B9C4208BFF468A3894C
:1012C000A269A2601A0722D5236903B32268616963
:1012D000D31AEDB299422F4629DD0133A1680139B5
:1012E000A160511C2160157062699A4216D0A389D1
:1012F000DB0701D50A2D11D03846F8BD01F0A2F95F
:101300000F4B9C42D4D17468D9E7B468D7E7214623
:10131000304600F027F838B92369D7E72146304630
:1013200001F02EF80028E7D04FF0FF37E4E7214620
:10133000304601F025F80028F6D122680123CDE7D8
:101340004CA300082CA300080CA3000810B4044C04
:1013500003460A4620685DF8044B1946FFF79EBF16
:1013600000000020384B70B51D6806460C460DB1D4
:10137000AB69D3B1354B9C421DD0354B9C4248D014
:10138000344B9C4208BFEC68B4F90C30190717D5F0
:101390002269FAB113F001012BD0616900204942A2
:1013A000A060A1615AB3002070BD284601F04AF93F
:1013B000264B9C42E1D16C68B4F90C301907E7D494
:1013C000DA063CD55D0726D4226943F00803A381E1
:1013D000002ADFD103F42071B1F5007FDAD0214675
:1013E000304601F09DF9B4F90C30226913F0010187
:1013F000D3D1980758BF6169A160002AD3D11906DB
:1014000058BF1046D0D543F04003A3814FF0FF30C2
:1014100070BDAC68B8E7616B51B104F14402914210
:1014200004D0304601F0FEFFB4F90C3000226263B4
:1014300022690021C4E9002123F02403C5E7092221
:10144000326043F04003E0E7000000204CA30008B6
:101450002CA300080CA300082DE9F04F03690C69C8
:10146000A34283B0C0F28A80013C01F1140500F16F
:10147000140855F8243058F8242001339A428E4637
:1014800081464FEA840105EB840708EB840AB2FB2E
:10149000F3F63AD3CDE900150022AC464046134698
:1014A0005CF8041B05681FFA81FB06FB0B22090C84
:1014B0004FEA124B06FB01BB92B2A9B2891A19443A
:1014C0001FFA8BF3C3EB214303EB154389B241EAC7
:1014D0000341674540F8041B4FEA1B424FEA234390
:1014E000DED2DDE9001558F8013073B9AAF1040A1B
:1014F000D04504D307E0D04504F1FF3403D25AF8B5
:101500000439002BF7D0C9F810407146484601F065
:1015100003FD00282EDB4146002255F8040BD1F8CC
:1015200000C01FFA80FE1FFA8CF3A3EB0E031344D6
:10153000020CC2EB234202EB1C429BB243EA024381
:10154000AF4241F8043B4FEA2242E6D258F8242049
:1015500008EB84036AB9043B984504D307E0984537
:1015600004F1FF3403D253F80429002AF7D0C9F854
:1015700010400136304603B0BDE8F08F002003B0C4
:10158000BDE8F08F2DE9F04F2DED028B446A8FB04E
:10159000CDE905328DED020B57EC106B054600913D
:1015A000002C00F01483216849B162684A6001236D
:1015B00093408B6001F0E4F96B6A00221A603C1ED4
:1015C0001A9AB4BF012300231360BD4BBCBF24F0A3
:1015D00000440394A34300F09F809DED028BB5EE81
:1015E000408BF1EE10FA0FD1059A012313601B9B7B
:1015F00013B11B9AB34B1360B34B019301980FB017
:10160000BDEC028BBDE8F08F0CAA0DA92846B0EE08
:10161000480B01F0E9FD230D834640F09480DDE99D
:101620000C130B4403F23242202A40F3FA82C2F137
:101630004002944003F21242D64044EA060207EE0A
:10164000102AB8EE477B581E17EE904A01230A93E2
:1016500053EC172BA4F1F8739FED933B9FED947B14
:101660009FED955B06EE900A43EC122BB8EEE64B2D
:10167000B7EE086B32EE466BA6EE037BA4EE057B5D
:10168000FDEEC76BB5EEC07BF1EE10FA16EE908A58
:1016900008D5B8EEE66BB4EE476BF1EE10FA18BF62
:1016A00008F1FF38B8F1160F00F24A81874B03EBBF
:1016B000C80393ED007BB4EEC78BF1EE10FA59D559
:1016C000002309930B1AB3F1010A08F1FF3800F166
:1016D0003E8100230793B8F1000F53DA079BCDF842
:1016E0001080A3EB08030793009B092BC8F10009A6
:1016F0004FF000084ED8052B40F39A82043B00932C
:101700000026009B023B032B00F27285DFE813F0FA
:10171000E503E203DA03BD03059AC4F3130442F2BE
:101720000F73344313601ED11B9B002B00F0868582
:10173000674B019308331B9A019813600FB0BDECFF
:10174000028BBDE8F08F18EE904AA3F2FF30C4F38D
:10175000130400230A9353EC182B44F07F530C9985
:1017600043F4401378E71B9B002B40F06B83594BED
:10177000019343E7091AB1F1010A00F1FE83002346
:1017800009930793009BCDF81080092BC2444FF0BA
:101790000009B0D900230126009308964FF0FF34CA
:1017A00006936B6A0B9400215960284601F0A8F853
:1017B0000190002800F025856B6A019A1A600E2CB2
:1017C00000F2EC80002E00F0E9800499002940F33B
:1017D000DD833E4B01F00F0203EBC203CA0593ED1C
:1017E000007B4FEA211340F199833B4A92ED086B4D
:1017F00003F00F03032188EE065B5BB1364ADF0777
:1018000004D592ED006B013127EE067B5B1002F1EF
:101810000802F4D185EE076B099B3BB1B7EE007B64
:10182000B4EEC76BF1EE10FA00F17C8407EE901A6B
:10183000B8EEE75BB1EE0C7BA5EE067B17EE903AB7
:1018400057EC176BA3F15077002C00F09480DDF873
:1018500010C02146089B002B00F00484B6EE003B2C
:101860001A4B0198FDEEC64B03EBC103B8EEE47BC7
:1018700036EE477B13ED026B14EE903A83EE065B77
:1018800047EC166B303335EE465BB4EEC75BF1EEDA
:1018900010FA00F8013B00F38384B7EE002BB2EEA0
:1018A000044B002232E000BF61436F63A787D23F41
:1018B000B3C8608B288AC63FFB799F501344D33F3F
:1018C0000000F07F49A6000848A6000880A3000891
:1018D00074A6000880A6000870A4000801328A429D
:1018E0005CDA27EE047B25EE045BFDEEC76B16EE9B
:1018F000903AB8EEE63B303337EE437BB4EEC57B2F
:10190000F1EE10FA00F8013B00F14A8432EE476B29
:10191000B4EEC56BF1EE10FAE0D5019ACDF810C027
:1019200002E0824200F01E84824610F8013D392B0D
:10193000F7D00133DBB20370049B0133049330E131
:10194000012309930B1AB3F1010A7FF5C2AEC3F16B
:10195000010307934FF0000ABDE607EE901AB1EEBF
:101960000C5BB8EEE77BA7EE065B15EE903A57EC02
:10197000156BA3F1507747EC156BB1EE047B36EE97
:10198000477BB4EEC57BF1EE10FA00F3FC83B1EEB9
:10199000455BB4EEC57BF1EE10FA1BD40D9B002B1A
:1019A00053DB049A0E2A50DCA24B049A03EBC203C9
:1019B00093ED006B069B002B13DA002C11DC09D190
:1019C000B1EE047B26EE077BB4EEC78BF1EE10FA86
:1019D00000F2D9834FF000094E46069B019FDC437D
:1019E000F3E188EE067BBDEEC77B019817EE103A57
:1019F000012C03F13003B8EEC75B00F8013BA5EE04
:101A0000468B00F0E882B2EE044B012311E088EE31
:101A1000067BBDEEC77B013317EE102A9C4202F114
:101A20003002B8EEC75B00F8012BA5EE468B00F044
:101A3000D28228EE048BB5EE408BF1EE10FAE6D19F
:101A4000049B013304938246ABE0089A002A40F0DD
:101A5000D2800023079F0893CDF828901E4667B1D7
:101A6000BAF1000F09DD5745079A3B46A8BF534618
:101A7000D21A0792FF1AAAEB030AB9F1000F0BD092
:101A8000089B1BB10A9B002B40F0D08259464A4666
:101A9000284601F05DF983460121284601F08CF8C3
:101AA0008146B8F1000F40F0B881009B012B40F354
:101AB000CD810120504410F01F0000F09580C0F14E
:101AC0002003042B40F3DC81079BC0F11C0003447E
:101AD000079307448244079B002B05DD59461A46AD
:101AE000284601F0A5F98346BAF1000F05DD494605
:101AF0005246284601F09CF98146099B002B40F094
:101B00007181002C40F34481089B002B40F0A180A0
:101B1000049B01330493DDF80480012707E0594654
:101B200000230A22284600F04FFF0137834649462A
:101B30005846FFF791FCA74200F1300308F8013B3B
:101B4000EDDB002C019AD8BF012417190024594657
:101B500001222846009301F06BF94946834601F0C3
:101B6000DBF9002840F3E981019A02E0974200F096
:101B7000EF81BA46013F1AF8013C392BF6D0013308
:101B80003B704946284600F0FBFE56B12CB1B442EA
:101B900003D02146284600F0F3FE3146284600F0E7
:101BA000EFFE5946284600F0EBFE00238AF800308D
:101BB000DDE904231A601B9B002B3FF41FAD019845
:101BC000C3F800A00FB0BDEC028BBDE8F08F102071
:101BD00000F030FE02466862002800F02583C0E96C
:101BE00000448460C460EAE41C23079A1A44079204
:101BF0001F449A446FE7009A012A40F3B081621EA5
:101C00009145C0F27481A9EB0203002C0A9380F283
:101C1000C182079B1F1B0121284600F0CDFF06460D
:101C20001DE7C2F1200206FA02F207EE102A08E5CB
:101C3000012666E580A30008314600230A222846D3
:101C400000F0C2FE0B9C002C064640F3C782CDF884
:101C500010A0002F00F34481B8F1000F40F0CF81B5
:101C6000B046019A531E23440993029B03F00103DB
:101C700014460A9349465846FFF7EEFB3146824622
:101C8000584601F049F9424649460746284601F0C0
:101C900065F9C26801460AF13003002A37D1CDE95F
:101CA0000703584601F038F907990690284600F0D6
:101CB00067FE069A089B002A59D1009A1AB90A9A17
:101CC000002A00F07282002F42DB099A2746A242C6
:101CD00007F8013B00F0C081594600230A2228463C
:101CE00000F072FE4645834631464FF000034FF048
:101CF0000A02284635D000F067FE4146064600231A
:101D00000A22284600F060FE3C468046B2E728469C
:101D1000069300F035FE002F069B06DB029A009921
:101D200002F0010239430A432CD1594601222846C8
:101D3000009301F07DF84946834601F0EDF8002854
:101D4000009B40F3EF80392B00F012820AF131033F
:101D5000A2460AF8013B049B0133344604934646ED
:101D60000FE700F031FE3C460646804682E7002F32
:101D7000C0F24E8200990F430A990F4300F0488247
:101D8000002AA2DD392B00F0F381A2460133E0E7FF
:101D9000009B022B7FF7B8AE002C7FF41EAE4946A5
:101DA00023460522284600F00FFE0146814658468C
:101DB00001F0B2F800287FF710AE019F019B049C50
:101DC00001330193312301343B704946284600F02A
:101DD000D7FD631CDDF804A004930197002E7FF467
:101DE000DCAEDEE64946584601F096F80028BFF61C
:101DF00088AE594600230A22284600F0E5FD049BE0
:101E000003F1FF3A089B8346002B7FF415AF0B9B31
:101E1000002B40F3D1811C467DE601464246284610
:101E200000F096FF009B012B81466CDD4FF000080F
:101E3000D9F8103009EB8303186900F06BFEC0F18C
:101E4000200037E6B34B0193033374E4029B002B6D
:101E50007FF42FAEDDE90212C2F31303002B7FF4EF
:101E600028AEAD4B13402BB1079B013307930AF10A
:101E7000010A0123B8F1000F40F08A81984618E664
:101E80003FF429AEC0F13C03AFE601230893069B63
:101E9000049A13445C1C012C27460B93B8BF0127FE
:101EA000172FD5F824C040F3C481012204235B001E
:101EB00003F11400B842114602F10102F7D9CCF83F
:101EC000041072E401230893069F002F31DD0B9765
:101ED0003C46E5E700230893D9E700230893F3E79E
:101EE00031463A46284600F0A3FF0646B4E6A2EB88
:101EF00009039844079B1F46234407930023A244E9
:101F000091460A9387E6029B002B8FD1DDE90201FF
:101F1000C1F313030A46002B88D1A2E70221B0EED9
:101F2000485B6AE47FF414AFDA073FF50CAFA246D2
:101F30000FE7012306931C4633E403D1009BDB0724
:101F40003FF512AEBA4617F8013D302BFAD018E62D
:101F5000049B019A013304933123137011E60A9A0A
:101F6000002A00F0CE8003F23343079ACDF8289080
:101F700017461A449A4407924DE6C1F101034FF007
:101F8000000A0793CDF824A0FFF7FCBB00F0BD804A
:101F9000049A624B524202F00F0103EBC10393ED2E
:101FA000005B131128EE055BB0EE456B00F01D8160
:101FB0005B4A00200221DE0705D592ED007B01314E
:101FC000012026EE076B5B1002F10802F3D1002816
:101FD00005FE066B20E438EE088BB4EEC68BF1EEFE
:101FE00010FA0ADCB4EE468BF1EE10FA7FF428AD5D
:101FF00017EE103AD9077FF523AD019A94E4716882
:10200000284600F07DFC0746002800F00681336971
:1020100002339A0006F10C010C30FEF7DDF9394667
:102020000122284600F004FF80461AE61A4631468F
:10203000284600F08DFE5A4601460646284600F026
:10204000D1FD59468346284600F09AFC0A9BB9EB1D
:1020500003093FF421AD19E5049A01323446049294
:10206000464674E52D4B019AFDEEC65B03EBC100BD
:1020700010ED023B15EE900AB8EEE57B36EE477B9D
:1020800047EC166B3030012902F8010B23EE063BBA
:1020900000F0A280B2EE044B0198084427EE047BC6
:1020A000FDEEC76B16EE901A303102F8011B90421C
:1020B000B8EEE65B37EE457BF0D1B6EE006B33EE63
:1020C000065BB4EEC57BF1EE10FA3FF726AC36EEB8
:1020D000436BB4EEC67BF1EE10FA08D40D9A002AD9
:1020E000FFF6B7AC049A0E2A3FF7B3AC5DE4824624
:1020F00001381AF8013C302BF9D00CF1010304939C
:102100004FE50C9BC3F136032FE70221B0EE486B7D
:10211000FFF782BB80A600080000F07F80A30008C4
:1021200070A40008002C3FF418AC0B9A002A7FF72B
:1021300035ACB2EE044B26EE046B013107EE901A7B
:102140000499B8EEE75BB1EE0C7BA6EE057B17EECB
:10215000903A57EC176B01F1FF3CA3F15077114611
:10216000FFF778BB049B013304933123FFF7E3BBF4
:10217000049B019A2746013304933923344607F818
:10218000013B4646F5E44FF00009019F4E4615E637
:1021900098464DE6079B1F462344A24407933AE521
:1021A0000CF1010304938246FBE4392BE0D0002FAD
:1021B0003FF7CCADA246CCE5009B022B08DC49469C
:1021C0000B9CFFF749F9019A00F130031370B8E452
:1021D0000B9CCDF810A0DFE510466EE7009B022BAC
:1021E000F6DC0B9CCDF810A033E50221FFF714BB01
:1021F0006B6A00245C602146284600F081FB019058
:1022000000BB164B164800224FF4D57101F0D2FBEB
:10221000002A3FF78AADA2469BE5104B10483A468C
:1022200040F2EA2101F0C6FB0E4B0D48EA2101F015
:10223000C1FB0021CCF80410FFF7B7BA0A4B019399
:10224000FFF7DCB96B6A019A1A604FF0FF3306940E
:102250000B931C4601230893FFF7A0BBD0A60008F0
:102260009CA6000884A6000874A60008B1F90C30EA
:102270002DE9F0411E070C46804641D44A68002AE9
:102280005ADDE56A002D38D00022D8F80060C8F881
:10229000002013F480525CD1216A01234046A847F4
:1022A000451C024660D0B4F90C30E56A580705D5E4
:1022B0006368D21A636B0BB1236CD21A216A0023B4
:1022C0004046A847411C46D1D8F80030002B42D0E8
:1022D0001D2B01D0162B33D123690022C4E9003213
:1022E000616BC8F8006041B104F14403994202D027
:1022F000404601F097F8002363630020BDE8F081B9
:102300000E69002EF9D09B070D6808BF4B690E605F
:1023100018BF0023AD1B8B600BE02B463246216AB1
:10232000A76A4046B847B0F1000CA5EB0C0566441F
:1023300006DD002DF1DCE0E70A6C002AA1DCDCE719
:10234000B4F90C3043F04003A3814FF0FF30BDE8F7
:10235000F081626DAAE70023636023692360A3898B
:10236000DA04BDD56065BBE7D8F80030002B9AD001
:102370001D2B01D0162BE3D1C8F80060BDE700BFCC
:1023800038B50B69BBB10C46054608B18369B3B1DA
:102390000D4B9C4211D00D4B9C4213D00C4B9C42D8
:1023A00008BFEC68B4F90C302BB121462846BDE8D3
:1023B0003840FFF75BBF002038BD6C68F2E700F0E3
:1023C00041F9E5E7AC68EDE74CA300082CA3000851
:1023D0000CA3000838B540B3184A036915680446D1
:1023E000D3B10DB1AB69CBB1154B9C420FD0154B9E
:1023F0009C4221D0144B9C4208BFEC68B4F90C30CD
:1024000053B121462846BDE83840FFF72FBF6C681E
:10241000B4F90C30002BF4D1002038BD284600F070
:1024200011F9074B9C42E2D1F1E7084B08491868C3
:10243000BDE8384000F046B9AC68DFE70000002096
:102440004CA300082CA300080CA3000808A3000854
:102450008123000800207047014900F033B900BF14
:10246000812300080020704770B568234D1E03FBD0
:1024700005F50E4605F1740101F032F8044640B14D
:1024800000210C30C4E90016A06005F16802FEF7D7
:102490003DF8204670BD00BFF8B5254B1F68BB69ED
:1024A00006463BB34837D7E90134013B04D51DE06C
:1024B0005A1C04F1680419D0B4F90C50013B002DEA
:1024C000F6D11C4BE360C4E90155C4E904556566C7
:1024D0002560A5610822294604F15C00FEF716F884
:1024E000C4E90D55C4E912552046F8BD3D682DB12B
:1024F0002F46D8E7384600F01FF8D3E74FF4D671DF
:10250000304600F0EDFF044668B1042305604360E7
:102510000C302946A06025464FF4D072FDF7F6FF37
:102520003C602F46BFE70C2338603360DCE700BF18
:1025300008A300080100FFFF2DE9F84F344B35498F
:102540001A68816290424FF00003C0E912330365BC
:1025500004BF012383610546FFF79EFF686028469C
:10256000FFF79AFFA8602846FFF796FF6F68E860BC
:1025700000240423FB6008222146C7E90044C7E980
:102580000444BC607C66BC6107F15C00FDF7BEFFE3
:10259000DFF88CB0AE68DFF88CA0DFF88C90DFF845
:1025A0008C801D4BC7F828A0C7E9087BC7F82C9082
:1025B000C7F830800822F360C6E90044C6E9044445
:1025C000B4607466B461214606F15C00FDF79EFFBD
:1025D000C6E9086BC6E90AA9C6F83080EE680F4B59
:1025E000F360C6E90044C6E90444B4607466B461AB
:1025F0002146082206F15C00FDF788FF0123C6E9A9
:10260000086BC6E90B98C6F828A0AB61BDE8F88F47
:1026100008A3000859240008090001001200020064
:10262000F53800081D3900085D39000881390008B7
:10263000024B0349186800F045B800BF08A3000822
:1026400081230008836903B976E77047704700BFAC
:10265000704700BF704700BF704700BF024B03497F
:10266000186800F00FB800BF0000002055240008D3
:10267000024B0349186800F005B800BF00000020B5
:10268000652400082DE9F041884600F1480700263E
:10269000D7E90154013D0FD4A389012B05F1FF3582
:1026A00006D9B4F90E300133204601D0C0470643A5
:1026B0006B1C04F16804EFD13F68002FE8D130466D
:1026C000BDE8F0812DE9F8430746884600F1480649
:1026D0004FF00009D6E90154013D11D4A389012B23
:1026E00005F1FF3508D9B4F90E300133214603D086
:1026F0003846C04749EA00096B1C04F16804EDD173
:102700003668002EE6D14846BDE8F883F0307047C1
:1027100000487047540100200048704754010020D1
:10272000F0B5B1F90C300C46990797B007D504F114
:1027300047030122C4E90432236017B0F0BDB4F9A5
:102740000E10002905462EDB6A4601F08DF900289F
:1027500027DB019E06F470464FF48067A6F500560D
:10276000B6FA86F639462846760900F0B9FE38B33F
:10277000A3891B4AAA6243F08003C4E90407A3812A
:102780002060002ED9D0B4F90E10284601F0F4FADA
:102790000028D2D0A38923F0030343F00103A381CF
:1027A000CBE7B4F90C3013F0800F0CBF4FF4806707
:1027B000402739462846002600F092FE0028D7D14F
:1027C000B4F90C309A05B8D423F0030304F147029E
:1027D00043F002030121C4E90421A3812260ACE794
:1027E0005924000870B50C46B1F90E10002996B0B6
:1027F00015461E460FDB6A4601F036F900280ADB53
:10280000019B03F47043A3F50053B3FA83F34FF431
:1028100080625B0908E0A28912F0800F4FF000038C
:1028200014BF40224FF48062002033602A6016B04B
:1028300070BD00BF024B0146186800F051BE00BFDA
:1028400000000020024B0146186800F0EBBD00BFFD
:102850000000002000000000000000000000000058
:1028600001F0FF01102A2BDB10F0070F08D010F841
:10287000013B013A8B422DD010F0070F42B3F6D145
:10288000F0B441EA012141EA014122F007047FF05E
:1028900000070023F0E80256083C85EA010586EAB5
:1028A000010685FA47F5A3FA87F586FA47F6A5FAF1
:1028B00087F68EB9EED1F0BC01F0FF0102F00702FD
:1028C00032B110F8013B013A83EA010313B1F8D1A8
:1028D0000020704701387047002D06BF3546033889
:1028E000073815F0010F07D1013015F4807F02BFC2
:1028F000013015F4C03F0130F0BC0138704700BF13
:1029000070B5466A05460C465EB1F368A3B153F84C
:102910002400E8B1026843F824200023C360036167
:1029200070BD1020FFF786FF06466862E8B10023FD
:10293000C0E900338360C36021220421284600F0EF
:1029400063FD6B6AF060DB68002BE0D1002070BD96
:10295000012101FA04F6721D9200284600F054FD90
:102960000028F3D0C0E90146D7E7034B03483246BD
:10297000662101F01FF800BF84A60008E4A6000845
:1029800070B5466A05460C464EB13CB16B6A62684A
:10299000DB6853F82210216043F8224070BD1020FC
:1029A000FFF748FF0246686220B1C0E90066866012
:1029B000C660EAE7024B03488A2100F0FBFF00BF34
:1029C00084A60008E4A600082DE9F0410D69074639
:1029D0000E461C4601F1140E0020DEF800108BB2EA
:1029E00002FB03434FEA134C090C02FB01CC0130FC
:1029F0009BB203EB0C4385424EF8043B4FEA1C4468
:102A0000EBDC3CB1B368AB4207DD06EB8503013577
:102A10005C6135613046BDE8F0817168384601314E
:102A2000FFF76EFF804690B13269023206F10C0169
:102A300092000C30FDF7D0FC314638464646FFF791
:102A40009FFF06EB850301355C613561E2E7034BCF
:102A500003484246B52100F0ADFF00BFD0A60008F4
:102A6000E4A600082DE9F8431746274A1E46083316
:102A70000C46092E82FB03124FEAE3730546C3EBB3
:102A8000620339DD4FF0010C00214FEA4C0C634525
:102A900001F10101F9DC2846FFF732FF014668B376
:102AA000089B4361092F4FF00103036112DC0A34D4
:102AB0000927BE420BDDF61B264414F8013B0A220F
:102AC000303B2846FFF780FFA6420146F5D1084675
:102AD000BDE8F88304F10909C8463C4418F8013BF5
:102AE0000A22303B2846FFF76FFFA0450146F5D18B
:102AF000A7F108044C44DCE70021CCE70A46034B6D
:102B00000348CE2100F056FF398EE338D0A60008E6
:102B1000E4A60008B0F5803F034636BF030400205A
:102B20001020B3F1807F3CBF1B020830B3F1805FFF
:102B30003CBF1B010430B3F1804F03D3002B06DBF5
:102B4000013070479B0003D45B0003D42020704702
:102B50000230704703307047036813F007020146E4
:102B600007D0DA071FD4980721D55B080B60012036
:102B7000704798B2A0B11046DAB20AB908301B0A01
:102B80001A0704BF1B0904309A0704BF9B080230D0
:102B9000DA0703D45B0800F1010006D00B60704730
:102BA0001B0C1020E8E700207047202070479B088E
:102BB0000B600220704700BF10B50C460121FFF7E3
:102BC0009FFE024618B10123C0E9043410BD034B37
:102BD00003484FF4A07100F0EDFE00BFD0A600083E
:102BE000E4A600082DE9F04FD1F810801569A8453A
:102BF00085B00E46924605DB2A46534645468A4630
:102C000090461E46DAF80830DAF8041005EB08049E
:102C1000A342B8BF0131FFF773FE8446002800F0DD
:102C20008B8000F1140707EB840E774505D23B46F5
:102C3000002243F8042B9E45FBD8143606EB880887
:102C40000AF11409464509EB850566D2A5EB0A038E
:102C5000153B23F003030AF1150A043355452CBF35
:102C60009B464FF0040BCDF808E00394AE46E246D5
:102C700005E0090C2AD1B04507F104074AD956F8F6
:102C8000041B8DB2002DF4D0CC463C4600230196A7
:102C90005CF8040B216886B28AB2000C05FB0622A0
:102CA000090C1A4405FB001101EB124192B242EAF1
:102CB0000142E64544F8042B4FEA1143E8D8019E4F
:102CC00047F80B3056F8041C090CD4D03B6800229E
:102CD00048461D463C469446028801FB02C202EB70
:102CE00015429BB243EA024344F8043B50F8043BCC
:102CF00025684FEA134CABB201FB0C3303EB1243D4
:102D000086454FEA134CE7D8B04547F80B3007F13A
:102D10000407B4D8DDE902E4D446002C02DC05E067
:102D2000013C03D05EF8043D002BF9D06046CCF89E
:102D3000104005B0BDE8F08F034B0448624640F2F6
:102D40005D1100F037FE00BFD0A60008E4A6000821
:102D50002DE9F04112F0030382B0144607462DD14D
:102D60000E46A4101CD07A6A8AB39568002D39D01B
:102D7000E3074FF0000806D4641011D0286898B11A
:102D80000546E307F8D531462A463846FFF72AFFBD
:102D90003146034638461E46FFF7F2FD6410EDD17A
:102DA000304602B0BDE8F0812A4629463846FFF792
:102DB00019FF2860C0F800800546E2E7013B184A89
:102DC00052F823200023FFF7FFFD0646C9E7102035
:102DD000FFF730FD02467862E0B10023C0E900331E
:102DE0008360C360012138460192FFF789FD019A93
:102DF000054640B1012340F27121C0E904310023AE
:102E000090600360B4E7074B07482A464FF4A0716F
:102E100000F0D0FD054B04484FF4D77100F0CAFD17
:102E200070A30008D0A60008E4A6000884A6000845
:102E30002DE9F0470D4691462B69496803EB62186E
:102E4000AB6808F101049C4207464FEA621A04DDB0
:102E50005B009C4201F10101FADC3846FFF750FDAE
:102E6000064600284DD0BAF1000F00F114000EDD27
:102E70000AF105024FEA820C034606EB82020021AA
:102E800043F8041B9342FBD1ACF1140318442969A5
:102E900005F1140319F01F0903EB810129D0C9F1D1
:102EA000200E84464FF0000A1A6802FA09F242EA3C
:102EB0000A024CF8042B53F8042B994222FA0EFA1A
:102EC000F2D84B1B153B23F00303043305F1150225
:102ED000914238BF042340F803A0BAF1000F00D19B
:102EE0004446384634612946FFF74AFD3046BDE87E
:102EF000F087043853F8042B40F8042F9942F9D88E
:102F0000EEE7034B0348324640F2D91100F052FD80
:102F1000D0A60008E4A600080B6984460069C01A20
:102F200016D10CF1140C14310CEB830210B401EB2C
:102F3000830301E0944508D252F8044D53F8041D70
:102F40008C42F7D005D24FF0FF305DF8044B70474C
:102F5000704701205DF8044B704700BF2DE9F04F2A
:102F600013690F69FF1A002F83B00D46904615D1E3
:102F700001F11406143202EB830206EB830301E035
:102F80009E4276D253F8044D52F8041D8C42F7D07D
:102F900006D22B4601274546984601E0F9DB00277B
:102FA0006968FFF7ADFC8146002876D02E69C760BE
:102FB000D8F8100005F1140B08F1140E09F1140AE9
:102FC00005F110010EEB80000BEB860257464FF027
:102FD000000CCDF804B05EF8044B51F8045F1FFA02
:102FE00084FBABB2A3EB0B03240C6344C4EB15448A
:102FF00004EB23449BB243EA0443704547F8043B87
:103000004FEA244CE7D8A0EB0801153989084C1C7D
:10301000DDF804B008F11508A400404538BF0424C9
:103020000BEB0405AA42544430D92746284650F8F1
:10303000043B1CFA83FE190C634401EB2E419BB246
:1030400043EA0143824247F8043B4FEA214CEED861
:10305000013A521B22F00302144423B954F8043DF0
:10306000013E002BFAD04846C9F8106003B0BDE815
:10307000F08F0021FFF744FC8146A8B10122002314
:10308000C0E90423484603B0BDE8F08F89004045FD
:1030900038BF00210AEB0104DFE7074B07484A4627
:1030A0004FF4107100F086FC034B04484A4640F28E
:1030B000322100F07FFC00BFD0A60008E4A6000883
:1030C00082B08DED000B164B019A1340A3F15073A3
:1030D000002B06DD00221946104641EC100B02B011
:1030E00070475B42B3F1A07F4FEA235209DA4FF4F5
:1030F0000023134100221946104641EC100B02B088
:103100007047A2F114031E2BDABF4FF00042DA40E1
:10311000012200231946104641EC100B02B0704703
:103120000000F07FF8B5046900F1140606EB840492
:10313000271F54F8045C2846FFF7ECFCC0F120037D
:103140000A280B601BDDBE420BD20B3854F8081C5A
:103150002ED145F07F5343F440130A4643EC102B25
:10316000F8BDB0F10B01F4D005FA01F141F07F5345
:10317000002143F440130A4643EC102BF8BDC0F184
:103180000B0C25FA0CF1BE4241F07F5338BF54F8C6
:10319000081C00F1150034BF21FA0CF1002105FADA
:1031A00000F0014343F440130A4643EC102BF8BDF2
:1031B000C0F1200C854021FA0CF345EA0307A4F185
:1031C0000805AE4201FA00F13CBF54F80C0C20FA9D
:1031D0000CF047F07F5338BF014343F440130A46D5
:1031E00043EC102BF8BD00BF2DE9F043884683B0B7
:1031F000012157EC106B1546FFF782FB04460028AF
:1032000050D0C7F30A59C7F31303B9F1000F01D027
:1032100043F48013002E019318D101A8FFF79CFC02
:10322000019A6261012200F120032261B9F1000FCD
:1032300025D0A9F2334909EB03022046C3F1350337
:10324000C8F800202B6003B0BDE8F0836846009604
:10325000FFF782FC034610B3DDE90002C3F1200151
:1032600002FA01F1DA4001430192002AA2610CBF87
:103270000122022261612261B9F1000FD9D1A3F2CA
:103280003243C8F8003004EB82031869FFF742FCB0
:10329000C0EB421320462B6003B0BDE8F083DDE9AC
:1032A0000012E2E7034B0448224640F20A3100F0E4
:1032B00081FB00BFD0A60008E4A6000830B583B0AB
:1032C0000C4669460546FFF72DFF204601A9B0EEE2
:1032D000407BFFF727FF23692A69D21ADDE9003412
:1032E0001B1B03EB4213002B0BDD17EE902A51EC56
:1032F000170B02EB035141EC170B87EE000B03B0E9
:1033000030BD10EE902A55EC104BC3EB033302EBAB
:10331000035545EC104B87EE000B03B030BD00BFEA
:10332000172808DDB7EE000BB2EE047B013820EE63
:10333000070BFBD17047034B03EBC00393ED040B6A
:10334000704700BF70A300080139491101F1010C59
:10335000116902F1140303EB81018B4200EB8C0C29
:1033600016D210B5A0F1040E53F8044B4EF8044FDA
:103370009942F9D88B1A153B23F003030433184400
:10338000844504D9002340F8043B8445FBD810BD94
:10339000844505D9002340F8043B8445FBD8704799
:1033A000704700BF03694A11934200F1140009DA23
:1033B00000EB830302E053F8042DC2B98342FAD82C
:1033C0000020704710DD11F01F010DD010B450F82F
:1033D000224000EB820324FA01F28A4094420CD08E
:1033E00001205DF8044B704700EB8203E6E7012003
:1033F000704753F8042D002AF2D18342F9D80020F7
:103400005DF8044B704700BF38B502FB01F5294653
:1034100000F066F8044618B12A460021FDF776F858
:10342000204638BD002950D038B551F8043C0C1F57
:10343000002BB8BFE418054600F066FD274A136864
:103440002BB1A3420CD92168601883422CD0636051
:1034500028461460BDE8384000F058BDA3420FD89C
:103460001A465B68002BF9D111685018844217D0B6
:103470002CD3636054602846BDE8384000F046BD58
:1034800011685018A04214D020D8216860188342D7
:10349000EFD118685B680844C4E900035460EAE7A8
:1034A00023680B441360E6E718685B6808442060F3
:1034B000CDE720680144501883421160DBD1D3E985
:1034C00000040144C2E90014D5E770470C232B60C7
:1034D0002846BDE8384000F019BD00BFFC010020BF
:1034E000F8B5CD1C25F0030508350C2D38BF0C258B
:1034F000002D064615DBA94213D8254F00F004FD28
:103500003A6892B1144603E0636822466BB11C46E8
:1035100023685B1BF8D40B2B28D923601C4425603F
:1035200017E00C2333600020F8BD796851B32946B9
:10353000304600F0CDF9431C1ED0C41C24F0030417
:10354000A04205D0211A304600F0C2F9013013D054
:103550002560304600F0DAFC04F10B00231D20F05A
:103560000700C21A1CBF1B1AA350F8BD636894421F
:103570000CBF3B605360ECE70C233360304600F037
:10358000C5FCD0E7304600F0A3F97860CFE700BF74
:10359000FC0100209368013B002B936011DA10B40A
:1035A0009469A34209DB0A2907D01368581C1060EC
:1035B000197008465DF8044B70475DF8044BFDF741
:1035C0006DBE1368581C106019700846704700BF24
:1035D0009BB1F8B5134406460F46541E5D1E01E02C
:1035E000AC4208D014F8011F3A463046FFF7D2FF2C
:1035F000431CF5D1F8BD0020F8BD0020704700BF86
:10360000936810B514461BB918460023636010BDBB
:1036100000F040FA0023A3600023636010BD00BFE8
:103620002DE9F04FA1B08A4615461C46039018B10B
:103630008369002B00F09F80964B9A4500F0A18093
:10364000954B9A4500F0AF80944B9A4504BF039B7D
:10365000D3F80CA0BAF80C30180740F19A80DAF8C9
:103660001030002B00F0958000230D9343F22003CF
:10367000ADF839302B788A4E07940127D946002BB4
:1036800071D02C4604E014F8013F002B00F08F802D
:10369000252BF8D1B4EB050B40F08C802378002B60
:1036A00061D000234FF0FF32CDE9092308930B933B
:1036B0008DF863301E93013404E0089A07FA03F38F
:1036C0001A4308922546052214F8011B3046FFF7DD
:1036D000C7F8831B0028F0D1089BD90644BF2022DD
:1036E0008DF8632029781A0744BF2B228DF86320B8
:1036F0002A2977D1079A1168043200290792C0F26B
:10370000A4800B91697801352E297DD0654C032268
:103710002046FFF7A5F830B1089B001B40228240ED
:1037200013430893013515F8011B5F488DF83810D5
:103730000622FFF795F8002800F08D805B4B002BE8
:1037400075D007AA00925A4B0398524608A9FCF775
:10375000E7FF8146B9F1FF3F05D00D9B4B440D9328
:103760002B78002B8DD1BAF80C305B0618D40D984D
:1037700021B0BDE8F08FFEF765FF464B9A457FF418
:103780005FAF039BD3F804A0BAF80C3018073FF5DD
:1037900066AF03985146FDF7E5FD00283FF464AF9E
:1037A0004FF0FF30E4E7039BD3F808A052E7B4EBF7
:1037B000050BD8D005F1FF38CDE904944446A8465E
:1037C000039D01E0CB4539D9A146524614F8011FAB
:1037D0002846FFF7DFFE09F102090130A9EB0809CD
:1037E000F0D1C0E7A1F13002092A8DD80B9B15F862
:1037F000011F03EB830302EB4303A1F13002092A0B
:10380000F5D92E290B9381D169782A292DD1079BCF
:10381000A9781A6809920433002A05F10200079377
:10382000B8BF4FF0FF330546B8BF09936EE7079B5B
:10383000073323F00703083307938EE70D99DDE97B
:103840000494594423780D9129E7494243F0020337
:103850000B91089356E707AA0092154B039852461E
:1038600008A9FDF7A1FA814674E7A1F1300200230F
:10387000092A099305F101053FF648AF15F8011F24
:1038800003EB830302EB4303A1F13002092AF5D9CC
:1038900009933BE74CA300082CA300080CA30008E5
:1038A00018A7000820A7000824A70008210700087F
:1038B000D135000810B4054C8446134620685DF8E5
:1038C000044B0A466146FFF7ABBE00BF0000002074
:1038D00038B5074D0022044608462A6000F000FD76
:1038E000431C00D038BD2B68002BFBD0236038BDB3
:1038F0000402002010B50C46B1F90E1000F030FBA8
:10390000002803DB636D0344636510BDA38923F4C2
:103910008053A38110BD00BF002070472DE9F04106
:103920000C46B1F90C101F46CB05054616460BD4C4
:1039300021F48051A1813B46B4F90E10324628464D
:10394000BDE8F04100F020B8B4F90E1002230022C7
:1039500000F024FAB4F90C10EAE700BF10B50C46E9
:10396000B1F90E1000F01AFAB4F90C30421C0EBF77
:1039700023F4805343F480536065A38110BD00BFDE
:10398000B1F90E1000F03CB838B50C46084D84462D
:10399000114620461A4600232B60644601F0B0FC15
:1039A000431C00D038BD2B68002BFBD0236038BDF2
:1039B0000402002000B50B4C25681446EE681A4638
:1039C00085B003460D464CB107490095CDE9011479
:1039D0003046064900F034F800F0F0FA04490C468D
:1039E000F3E700BF000000202CA700083CA7000858
:1039F000CCA5000808B513460022FFF7DBFF00BF87
:103A000038B5074D0022044608462A6000F030FC15
:103A1000431C00D038BD2B68002BFBD0236038BD81
:103A2000040200200CB400B583B004AB53F8042B9F
:103A30000193FFF7F5FD03B05DF804EB02B07047AA
:103A40000EB410B583B005AB064C53F8042B0193AC
:103A500001462068FFF7E4FD03B0BDE8104003B065
:103A6000704700BF0000002070B50C46084D0346AB
:103A70000026204611461C462E6000F001FC431C27
:103A800000D070BD2B68002BFBD0236070BD00BF41
:103A9000040200209368002B00F081802DE9F04F94
:103AA0008046B1F90C00030783B017460C4625D5B4
:103AB0000B691BB310F002033D682BD04FF0000AD6
:103AC000DFF8B0B25646B9465E453346524628BF87
:103AD0005B464046002E4FD0216AA76AB8470028AF
:103AE00053DDD9F808301B1A8244361AC9F8083059
:103AF000002BE9D1002003B0BDE8F08F21464046FD
:103B0000FDF730FC002845D1B4F90C003D6810F0F9
:103B10000203D3D110F0010943D14E4600973EB3C2
:103B20008705D4F808B040F18480B3455A4600F2C6
:103B3000B38010F4906F40F0C08020680192494635
:103B400000F062F9A368019AA3EB0B012368A1605E
:103B50001344B24623600026009A9368A3EB0A033D
:103B6000D1449360002BC5D0B4F90C00002ED7D1FE
:103B7000D5E900960835D2E7D5E900A60835A3E7D0
:103B800021464046FEF7FCFB88B3B4F90C3043F005
:103B90004003A3814FF0FF3003B0BDE8F08F002059
:103BA00070471E46BA469946184600951F4666B3AA
:103BB000002832D04A46D4E904132068A568B242EE
:103BC00028BF3246884204D905EB030B5A4500F35F
:103BD000A680934264DC216AA56A3A464046A8471B
:103BE000B0F1000BD1DDB9EB0B09C9D00120DAF837
:103BF0000830A3EB0B035F44A6EB0B06CAF80830B2
:103C0000002B3FF477AF002ED2D1009A56681346AE
:103C100008320092002EF8D01F6832460A2138463A
:103C2000FEF71EFE002800F09C800130A0EB070983
:103C3000C0E720682369984216D86269B24213D857
:103C40006FF00043B34228BF3346216A93FBF2F37F
:103C5000A76A02FB03F340464A46B847B0F1000AA0
:103C600093DDA6EB0A0677E7B345DA4628BFB246EE
:103C70005246494600F0C8F8A3682268A3EB0A033D
:103C80005244A3602260002BEBD121464046FEF750
:103C900077FB0028E5D078E72068B34632464DE749
:103CA0003946019200F0B0F8019AA3689B1AA3600C
:103CB000236813442360934695E722682369A2EBA7
:103CC000030A626902EB420202EBD2720AF10101BD
:103CD00031445210914292BF93468B460A464105A9
:103CE0002CD511464046FFF7FBFB00283CD052463E
:103CF00021690190FCF770FBA289019B22F490627C
:103D000042F08002A28103EB0A002361ABEB0A03BD
:103D1000C4F814B0A3602060B34632460EE73946BB
:103D20005A4600F071F823685B4423602146404600
:103D3000FEF726FB00283FF456AF26E7194640461B
:103D400000F0E6F803460028DDD121694046FFF780
:103D500069FBB4F90C300C2223F08003C8F8002072
:103D600015E7721C914626E70C22B4F90C30C8F80E
:103D700000200CE700FCFF7F38B5074D0022044609
:103D800008462A6000F08CFA431C00D038BD2B682E
:103D9000002BFBD0236038BD0402002038B50C4650
:103DA000084D8446114620461A4600232B6064467F
:103DB00000F086FA431C00D038BD2B68002BFBD0E6
:103DC000236038BD0402002010B4034CD4F8E44052
:103DD000A4465DF8044B60476400002082B049B1FE
:103DE0005AB16BB113780B601278101E18BF012006
:103DF00002B0704701A9002AF3D1104602B0704703
:103E00006FF00100F4E700BF88420ED98B1883429F
:103E10000BD900EB020C002A6ED0624613F801CDDC
:103E200002F801CD9942F9D170470F2A0FD8034605
:103E300002F1FF3C002A5FD00CF1010C013B8C44E5
:103E400011F8012B03F8012F6145F9D1704740EAC1
:103E500001039B0751D1A2F1100370B501F1200CB1
:103E600023F00F0501F1100E00F11004AC441B0902
:103E70005EF8105C44F8105C5EF80C5C44F80C5C76
:103E80005EF8085C44F8085C5EF8045C44F8045C86
:103E90000EF1100EE64504F11004E9D1013312F0E1
:103EA0000C0F01EB031102F00F0400EB031328D0F9
:103EB000043C24F003064FEA940C1E441C1F8E465B
:103EC0005EF8045B44F8045FB442F9D10CF10104DC
:103ED00002F0030203EB840301EB840102F1FF3CD7
:103EE0004AB10CF1010C013B8C4411F8012B03F891
:103EF000012F6145F9D170BD704702F1FF3C0346C7
:103F00009AE72246EAE700BF704700BF704700BF4C
:103F1000F8B51446F1B1C2B106460D4600F056F8A8
:103F2000A04202D32F463846F8BD21463046FFF75F
:103F3000D7FA074658B122462946FCF74DFA3046D3
:103F40002946FFF76FFA3846F8BDFFF76BFA0027EE
:103F50003846F8BDBDE8F8401146FFF7C1BA00BFCA
:103F600038B50C46084D8446114620461A460023B3
:103F70002B60644600F0ACF9431C00D038BD2B68C0
:103F8000002BFBD0236038BD0402002010B4034C8A
:103F9000D4F8E040A4465DF8044B6047640000207C
:103FA00049B1FF2A02D80A70012070478A230360B2
:103FB0004FF0FF3070470846704700BF08B5062035
:103FC00000F0A2F8012000F099F900BF51F8040CAC
:103FD0000028A0F10400BCBF0B58C018704700BFF8
:103FE00038B5446C0CB1002038BD80210546FFF780
:103FF00077FA0246686430B1031F7C3243F8044FFD
:104000009342FBD1EFE74FF0FF3038BD30B51F29A9
:1040100083B0054608D8436C0C4653B153F82400CE
:1040200043F8242003B030BD162303604FF0FF3067
:10403000F8E780210192FFF753FA019A686403467A
:104040000028F3D0011F00F17C05002041F8040F87
:10405000A942FBD1E2E700BF1F2938B505461ED8AB
:10406000426C0C466AB152F8213053B1012B06D094
:10407000591C10D0002142F82410204698470020F7
:1040800038BD284600F0F2F8224601462846BDE831
:10409000384000F0D5B816230360012038BD162340
:1040A00003604FF0FF3038BD1F292AD838B5436C64
:1040B0000C460546A3B153F8242003EB84034AB110
:1040C000511C0BD0012A07D0002520461D609047C7
:1040D000284638BD012038BD032038BD022038BD38
:1040E0008021FFF7FDF90346686438B1021F002103
:1040F0007C3042F8041F9042FBD1DCE74FF0FF30E8
:1041000038BD4FF0FF30704738B5134B1F281D687E
:104110001DD86A6C044662B152F820304BB1012BB5
:1041200005D0591C0FD0002142F8201098470020DC
:1041300038BD284600F09AF8224601462846BDE8D8
:10414000384000F07DB816232B60012038BD1623BF
:104150002B604FF0FF3038BD00000020114B1F28AE
:1041600070B51E6808D8736C04460D464BB153F801
:10417000240043F8245070BD162333604FF0FF3005
:1041800070BD80213046FFF7ABF90346706400280C
:10419000F4D0021F00217C3042F8041F9042FBD172
:1041A000E5E700BF0000002038B50B4B1D686C6CC4
:1041B0000CB1002038BD80212846FFF791F96864D2
:1041C00038B1031F00F17C0243F8044F9342FBD146
:1041D000EFE74FF0FF3038BD0000002038B5174B37
:1041E0001F281D6826D80446686CA0B150F82430FA
:1041F00000EB84004BB15A1C0BD0012B07D00025DB
:10420000056020469847284638BD012038BD032068
:1042100038BD022038BD80212846FFF761F9686467
:1042200040B1031F00F17C01002243F8042F9942A2
:10423000FBD1DBE74FF0FF3038BD00BF00000020AE
:1042400070B50C46084D03460026204611461C4614
:104250002E6000F02DF8431C00D070BD2B68002BA1
:10426000FBD0236070BD00BF0402002000F010B836
:10427000024B58221A604FF0FF30704704020020B2
:10428000024B58221A604FF0FF30704704020020A2
:10429000024B58221A604FF0FF3070470402002092
:1042A000024B58221A600020704700BF0402002011
:1042B000024B58221A604FF0FF3070470402002072
:1042C000024B58221A604FF0FF3070470402002062
:1042D000024B58221A604FF0FF3070470402002052
:1042E000044A05491368002B08BF0B4618441060A8
:1042F000184670470802002000060020FEE700BFB5
:1043000053B94AB9002908BF00281CBF4FF0FF313C
:104310004FF0FF3000F06AB9ADF1080C6DE904CE42
:1043200000F006F8DDF804E0DDE9022304B0704790
:104330002DE9F047089D0C46002B4ED194468C4544
:104340008646B2FA82F262D94AB1C2F120039140A4
:1043500020FA03F30CFA02FC194300FA02FE4FEABA
:104360001C471FFA8CF6B1FBF7F44FEA1E4307FB1C
:10437000141143EA014304FB06F199420AD91CEBEC
:10438000030304F1FF3080F01381994240F2108161
:10439000023C6344591A1FFA8EF3B1FBF7F007FB96
:1043A000101143EA014300FB06F69E420AD91CEBBA
:1043B000030300F1FF3180F0FD809E4240F2FA805D
:1043C000634402389B1B40EA044000211DB1D340E6
:1043D0000022C5E90032BDE8F0878B4205D90DB156
:1043E000C5E9000100210846F5E7B3FA83F1002989
:1043F00046D1A34202D39042C0F0F180861A64EB0A
:1044000003030120002DE6D0C5E90063E3E7002A9D
:1044100040F09180A1EB0C044FEA1C481FFA8CF786
:104420000121B4FBF8F64FEA1E4308FB164443EAA9
:10443000044307FB06F0984208D91CEB030306F17E
:10444000FF3402D2984200F2CE8026461C1A1FFA90
:104450008EF3B4FBF8F008FB104443EA044300FB7E
:1044600007F79F4208D91CEB030300F1FF3402D287
:104470009F4200F2B1802046DB1B40EA0640A5E7E0
:10448000C1F120068B4022FA06F71F4320FA06FCF2
:1044900004FA01F343EA0C03F44000FA01F8380C83
:1044A0004FEA1349B4FBF0FE1FFA87FC00FB1E44E1
:1044B00049EA04440EFB0CF9A14502FA01F20AD9BB
:1044C0003C190EF1FF3A80F08580A14540F28280D0
:1044D000AEF1020E3C44A4EB09041FFA83F9B4FBCD
:1044E000F0F300FB134449EA044403FB0CFCA4452D
:1044F00007D93C1903F1FF3068D2A44566D9023BC5
:104500003C4443EA0E40A0FB0293A4EB0C049C4203
:10451000CE469C4652D34FD055B1B8EB0E0364EB58
:104520000C0404FA06F6CB40CC401E43C5E90064F7
:104530000021BDE8F087C2F1200320FA03F10CFA54
:1045400002FC24FA03F394400C434FEA1C4800FA9F
:1045500002FE1FFA8CF7B3FBF8F008FB1031230CB6
:1045600043EA014300FB07F1994208D91CEB03031E
:1045700000F1FF362CD299422AD9023863445B1AE3
:10458000A4B2B3FBF8F108FB113344EA034401FB86
:1045900007F3A34208D91CEB040401F1FF3613D240
:1045A000A34211D902396444E41A41EA004138E7D0
:1045B0000446EFE6084605E7C845ADD2B9EB020E62
:1045C00063EB070C0138A7E73146EDE7034698E7B0
:1045D0003046D4E7D6467EE7634402384CE70646C9
:1045E000234608460EE7023E63442FE7704700BFAC
:1045F00072B6FEE710B59CB04C22002109A8FBF76B
:1046000085FF2022002101A8FBF780FF022003F094
:1046100065F900230093224B9A6922F440429A6183
:104620009B6903F440430093009B1D4B9B6913F46B
:10463000005FFAD02220099001230C9340220D92B2
:104640000F930221129100221392042414941590C6
:1046500016930323179318910C2319931A924FF46E
:1046600040631B9309A801F089FAA0B93F23019385
:10467000032102910023039308230493402305930D
:1046800006934FF480620792089301A801F066FE3A
:1046900018B91CB010BDFFF7ABFFFFF7A9FF00BFB3
:1046A0000048025808B503F06BF9FFF7A3FF01F0CB
:1046B00083F801F05BF901F0D9F904F035FF04F05B
:1046C000AFFF05F04DFD05F083FD002008BD030A96
:1046D0000B7010700020704741EA0021118000200B
:1046E000704710B584B0044610468DF80C100DF1DB
:1046F0000E020DF10D01FFF7EAFF217BA368009385
:10470000032303AA4900206903F0DCFB08B904B0C5
:1047100010BD0120FBE730B587B0044615468DF883
:104720000F10017B8368009301230DF10F02994064
:10473000006903F0C7FB18B10124204607B030BD63
:10474000217BA3680093022305AA4900206903F096
:104750008BFC044608B10124EFE72A469DF81510AA
:104760009DF81400FFF7B8FFE7E710B582B00446E4
:104770004FF400420021FFF7B4FF034610B1184682
:1047800002B010BD0DF10602FE212046FFF7C3FF67
:1047900003460028F3D1BDF8062045F249439A426A
:1047A00001D00223EBE70021ADF806102288ADF816
:1047B000062063881A43ADF80620A3881A43ADF893
:1047C0000620E3881A43ADF8062042F4C042ADF853
:1047D00006202046FFF785FF0346D0E710B582B0DC
:1047E0000C460DF106020221FFF795FF58B9BDF9FD
:1047F000063007EE903AF8EEE77AB7EE047A67EE05
:10480000877AC4ED007A02B010BD10B582B00C46B4
:104810000DF106020121FFF77EFF58B9BDF9063000
:1048200007EE903AF8EEE77AB7EE047A67EE877A09
:10483000C4ED007A02B010BD10B504460023037128
:10484000006803F033FE10B90123237110BD03206B
:10485000FCE703681B685B6A0B600020704700B5CB
:1048600085B08DF80C108DF80D2001794FF0FF33D5
:104870000093022303AA4900806803F023FB10B9C8
:1048800005B05DF804FB0120FAE730B587B00446B7
:1048900015468DF80F1001794FF0FF330093012377
:1048A0000DF10F029940806803F00CFB10B101205C
:1048B00007B030BD21794FF0FF33009301230DF194
:1048C00017029940A06803F0CFFB18B99DF8173084
:1048D0002B70EDE70120EBE710B584B090F804C031
:1048E0004FF0FF3402940192009301230A460CFA20
:1048F00003F1806803F076FC08B904B010BD012014
:10490000FBE7000010B582B00C4601AB03221D216D
:10491000FFF7E2FF9DF806209DF805301B0243EAF1
:1049200002439DF80420134307EE103AB8EEC77A0D
:10493000DFED057A27EE277AB7EEC77A84ED007BA4
:10494000002002B010BD00BF0000803710B582B05B
:104950000C4601AB03222021FFF7BEFF9DF8062085
:104960009DF805301B0243EA02439DF804201343DF
:1049700007EE103AB8EEC77ADFED057A27EE277A10
:10498000B7EEC77A84ED007B002002B010BD00BFF7
:104990000000803C08B503F033F8002008BD08B5DE
:1049A000B6227E21FFF75BFF0220FFF7F3FF002016
:1049B00008BD10B582B004460220FFF7EBFF204689
:1049C000FFF7EDFF0DF1070201212046FFF75DFF24
:1049D0009DF8073073B30DF1070211212046FFF750
:1049E00054FF9DF80720930814BF012300235208A9
:1049F00008BF43F0010303BB0DF107022721204646
:104A0000FFF743FF9DF80700030914D00022372168
:104A10002046FFF724FF0320FFF7BCFF402236218A
:104A20002046FFF71CFF012237212046FFF717FF22
:104A3000002000E0022002B010BD0220FBE770B5AC
:104A400084B00446164641F080018DF80C10002514
:104A50008DF80D502A46018D406A02F039FF4FF063
:104A6000FF330093022302AA03A9206A05F02EF95E
:104A70000122218D606A02F02BFF9DF8093033700E
:104A8000284604B070BDF0B583B004460F46164604
:104A90001D466A460021FFF7D2FF844610B16046EA
:104AA00003B0F0BD0DF1010201212046FFF7C7FF61
:104AB00084460028F3D10DF1020202212046FFF7BF
:104AC000BEFF84460028EAD10DF1030203212046EF
:104AD000FFF7B5FF84460028E1D101AA0421204652
:104AE000FFF7ADFF84460028D9D10DF1050205215D
:104AF0002046FFF7A4FF84460028D0D19DF800206F
:104B00009DF8013043EA02231BB207EE903AB8EE5B
:104B1000E77B94ED065B87EE056B87ED006B9DF8F8
:104B200002209DF8033043EA02231BB207EE903ABD
:104B3000B8EEE77B94ED065B87EE056B86ED006BC8
:104B40009DF804209DF8053043EA02231BB207EECE
:104B5000903AB8EEE77B94ED065B87EE056B85ED4A
:104B6000006B9CE7F0B583B004460F4616461D4621
:104B70006A460621FFF763FF844610B1604603B022
:104B8000F0BD0DF1010207212046FFF758FF8446D2
:104B90000028F3D10DF1020208212046FFF74FFF54
:104BA00084460028EAD10DF1030209212046FFF7CF
:104BB00046FF84460028E1D101AA0A212046FFF7DA
:104BC0003EFF84460028D9D10DF105020B21204675
:104BD000FFF735FF84460028D0D19DF800209DF8CE
:104BE000013043EA02231BB207EE903AB8EEE77BAE
:104BF00094ED025B87EE056B87ED006B9DF802205C
:104C00009DF8033043EA02231BB207EE903AB8EE58
:104C1000E77B94ED025B87EE056B86ED006B9DF8FC
:104C200004209DF8053043EA02231BB207EE903AB8
:104C3000B8EEE77B94ED025B87EE056B85ED006BCC
:104C40009CE7000030B583B004460D4601AA0C2154
:104C5000FFF7F5FE08B103B030BD0DF105020D21DF
:104C60002046FFF7ECFE0028F5D19DF804301B022A
:104C70001BB29DF80520134307EE103AB8EEC77A31
:104C8000DFED067A27EE277AF3EE097A37EE277AF8
:104C9000B7EEC77A85ED007BDDE700BF0000803B03
:104CA00010B582B0044601F07F018DF804108DF834
:104CB00005200022018D406A02F00AFE4FF0FF330A
:104CC000022201A9206A04F09FFE0122218D606A60
:104CD00002F0FEFD002002B010BD08B502F090FE0B
:104CE000002008BD08B502227F21FFF7D9FF00B1DF
:104CF00008BD0120FFF7F1FFFAE700000000000007
:104D000010B582B00446FFF7EDFF08B102B010BD48
:104D10000DF1070272212046FFF791FE0028F5D120
:104D20009DF80730E92B01D00120EFE72278637866
:104D30001A4310212046FFF7B3FF0028E6D1A278DE
:104D4000E3781A431C212046FFF7AAFF0028DDD193
:104D5000A378402B48D013D8202B3FD007D9302B35
:104D600054D149A3D3E90023C4E9022322E0E3B1EB
:104D7000102B4BD146A3D3E90023C4E9022319E049
:104D8000702B3DD007D9802B40D143A3D3E900231A
:104D9000C4E902230EE0502B2CD0602B36D140A367
:104DA000D3E90023C4E9022304E03FA3D3E90023AD
:104DB000C4E90223227C637C1A431B212046FFF7AF
:104DC0006FFF237C202B33D025D9302B2BD0402BC9
:104DD00038D10022264BC4E9062397E71CA3D3E968
:104DE0000023C4E90223E5E71BA3D3E90023C4E9B8
:104DF0000223DFE71AA3D3E90023C4E90223D9E79A
:104E000019A3D3E90023C4E90223D3E70022194BF5
:104E1000C4E90223CEE783B1102B13D10022164B35
:104E2000C4E9062372E70022144BC4E906236DE7A8
:104E30000022134BC4E9062368E70022114BC4E9A2
:104E4000062363E700220B4BC4E906235EE700BF9D
:104E5000666666666666404000000000006060406E
:104E60000000000000607040666666666662904002
:104E70000000D0400000F03F0000A0400000C04013
:104E80000000B04000009040000000000060504072
:104E90006666666666663040666666666662A040FE
:104EA000666666666662804066666666666620401E
:104EB00010B582B004468DF804108DF8052000224C
:104EC000818A006902F004FDA368022201A9E0685A
:104ED00004F09AFD0122A18A206902F0F9FC002069
:104EE00002B010BD2DE9F04383B002AF81461446F5
:104EF0001D4602F1080303F4FC73ADEB030D0DF145
:104F00000808ADEB030D02AE4FF0010C04E00023E6
:104F100008F80C300CF1010C6445F8DA61F03F013F
:104F200088F800100022B9F81410D9F8100002F027
:104F3000CFFCD9F808300093631C32464146D9F8BB
:104F40000C0004F0C3FE0122B9F81410D9F81000C7
:104F500002F0BEFC002103E0481C325C6A540146AA
:104F60008C42F9DC00200437BD46BDE8F083000028
:104F7000C378402B18D008D87BB1202B12D10EA3B8
:104F8000D3E90023C1E900230CE0602B0AD10CA374
:104F9000D3E90023C1E9002304E00BA3D3E90023F4
:104FA000C1E900230020704709A3D3E90023C1E928
:104FB0000023F7E7AFF300800000000000BAAA402A
:104FC0000000000000BC9A400000000000BABA4097
:104FD0000000000000D2A14010B5044600222221AA
:104FE000FFF766FF23786178A2780B431A432021EC
:104FF0002046FFF75DFFE27821212046FFF758FFAA
:10500000002010BD2DE9F04184B006460D46002277
:105010000023CDE9002302AB06222821FFF762FF1F
:105020009DF809301B021BB29DF8082043EA0208D4
:105030009DF80B301B021BB29DF80A2043EA0207C1
:105040009DF80D301B021BB29DF80C2043EA0204B0
:1050500069463046FFF78CFF07EE908AB8EEE77B93
:105060009DED006B87EE065B85ED005B07EE907AA9
:10507000B8EEE77B87EE065B85ED025B07EE904AB4
:10508000B8EEE77B87EE065B85ED045B002004B09D
:10509000BDE8F08110B582B00C4601AB02222E2192
:1050A000FFF720FF9DF805301B021BB29DF804207E
:1050B000134307EE903AB8EEE77BB4EE005BB3EE35
:1050C000096B07EE056B84ED006B002002B010BD8C
:1050D0002DE9F84FFFF7E6FA4FF47A7002F090FCF2
:1050E0006B48FBF7CBFF6B4E6B4B33603046FFF7E3
:1050F000A3FB6A4D6A4B2B602846FFF79DFB694C6A
:105100000C232370032363700023A3700422E27036
:1051100023746274DFF8DC81DFF8DCE1C8F808E0B2
:10512000762288F80420604A4FF40077D7805380B5
:10513000C2F810E04FF0400982F80C904FF0070AD7
:10514000A2F800A093804FF0640CC2F808C0574941
:10515000CF804B80C1F810E04A200873A1F800A06E
:105160008B80C1F808C05248C7804380C0F810E067
:105170004E210173A0F800A08380C0F808C04D49FB
:10518000CF804B80C1F810E04FF0450B81F80CB098
:10519000A1F800A08B80C1F808C04749C1F800E021
:1051A0004FF0700E81F804E0C1F808C04349DFF801
:1051B0004CE1C1F80CE0CE61A1F81490404E0E61B4
:1051C000C1F818C08B80CF800B8180264E813D496D
:1051D0004D608C603C4C8C64C1F87080C1F88820B4
:1051E000C1F88C20C1F890000CE0364A03F12A0186
:1051F00002EB8101354848601A44012182F8DC1035
:105200000B44DBB2052BF0D92E48314BC0F8BC3033
:1052100000F082F830E004F130022A4B03EB820305
:10522000D3ED017AF8EE677ADFED2A6A87EEA67A87
:10523000B7EEC77A53EC172B2748FBF71FFF013453
:10524000E4B2052CE7D92548FBF798FF2448FBF783
:1052500015FF002408E01B4B234493F8EE1021486F
:10526000FBF70CFF0134E4B2052CF4D91E48FBF720
:1052700085FF642002F0C4FB124800F077F9014674
:105280001A48FBF7FBFE1A48FBF7F8FE0024D8E7A4
:105290009CA50008E8030020B0050020E0030020E2
:1052A00064050020B0030020780300206403002080
:1052B000500300203C03002030030020080300209E
:1052C00000080258100200209803002080969800E1
:1052D000404B4C0000247449D0A50008D8A5000814
:1052E000DCA50008F4A50008F8A50008A0A50008A2
:1052F000B8A500088C03002088040020DC040020EE
:1053000010B514464FF0FF3392B2024803F026FF67
:10531000204610BDF003002030B583B0002841D0F6
:1053200004460023019301A94068FFF792FA05465D
:10533000002839D103460DE003F1300204EB82026C
:1053400001995160E218002182F8E21082F8E81019
:105350000133DBB2052BEFD9A068FFF7D1FC84F84D
:10536000EE00A06CFFF738FE84F8EF00206FFFF727
:1053700020FB84F8F000D4F88800FFF7F6F984F8F1
:10538000F100D4F88C00FFF7F0F984F8F200D4F8BB
:105390009000FFF7EAF984F8F30001232370284610
:1053A00003B030BD0125FAE70425F8E7C0B3F8B52E
:1053B0000E4604468068A8B304F1200304F11802E5
:1053C00004F11001FFF75FFB054604F1380304F117
:1053D000300204F12801A068FFF7C4FB074604F17E
:1053E0004001A068FFF72EFC0346002232701DB179
:1053F00084F8EE50012232701FB184F8EE70012261
:1054000032701BB184F8EE30012232703D4315F04A
:10541000FF0009D14BB9002284F8EE20184604E0C1
:1054200001207047012000E00020F8BD78B370B57E
:1054300086B00E460546806C58B36946FFF7E2FD1C
:10544000044605F16801A86CFFF724FE00233370C1
:10545000C4B9DDE90023C5E91423DDE90223C5E968
:105460001623DDE90423C5E9182318B185F8EF00F8
:1054700001233370204310F0FF000CD1002385F886
:10548000EF3009E085F8EF4001233370EDE70120AC
:105490007047012000E0002006B070BD10B370B569
:1054A0000E460546006FF8B105F17801FFF74EFA98
:1054B000044605F18001286FFFF724FA00233370BA
:1054C0001CB185F8F0400123337018B185F8F00065
:1054D00001233370204310F0FF0007D1002385F82B
:1054E000F03004E001207047012000E0002070BD92
:1054F000A0B32DE9F0410D4690461F46064601F146
:10550000220350F8230058B3243106EB8101043103
:10551000FFF764F9044605F12801223506EB810105
:1055200056F82500FFF771F900233B702CB106EB0C
:10553000080383F8EE4001233B7028B106EB080313
:1055400083F8EE0001233B70204310F0FF0009D1E7
:1055500006EB0802002382F8EE3004E001207047D9
:10556000012000E00020BDE8F08100002DE9F043BB
:1055700085B0002800F01B810546037823B9032479
:10558000204605B0BDE8F08301238DF807300023E5
:10559000039303A94068FFF75CF90446002868D12B
:1055A00095F8E83063B995F8E2307BB9D5F8C420B6
:1055B000039B9B1AD5F8AC2093421ED9064606E001
:1055C000A868FFF78FFB85F8EE0016E0064695F811
:1055D000DC30B3420CD90DF107012846FFF7E6FE97
:1055E00004469DF807301BB110B90136F6B2EEE75C
:1055F000039BC5F8C430002CC2D101238DF80730BD
:1056000003A96868FFF725F90646002853D195F8E5
:10561000E93083B3002385F8EF30002CB0D10123AB
:105620008DF8073003A96868FFF713F906460028CC
:1056300059D195F8EA30002B3FD195F8E4303BB9C9
:10564000D5F8CC20039B9B1AD5F8B42093423DD9C2
:1056500095F8DE30B34236D90DF107012846FFF741
:105660001DFF04469DF807306BB360BB0136F6B2F0
:10567000EEE7042484E795F8E3303BB9D5F8C82079
:10568000039B9B1AD5F8B0209342C6D995F8DD301C
:10569000B3420CD90DF107012846FFF7C7FE0446B7
:1056A0009DF807301BB110B90136F6B2EEE7039B47
:1056B000C5F8C830B1E7042462E7286FFFF76FF937
:1056C00085F8F00002E0039BC5F8CC30002C7FF495
:1056D00057AF384B1B68ADF808301B0C8DF80A30FB
:1056E000A14627461AE004244AE705EB080393F88D
:1056F000E23083BB08F1300305EB83035A68039B58
:105700009B1A08F12A0205EB82025268934222D8C2
:10571000002F3CD109F101095FFA89F9B9F1020FB3
:1057200041D809F110036B4413F8088C01238DF85C
:10573000073003A96868FFF78CF8064648BB05EBFD
:10574000080393F8E830002BCFD005EB08030022C4
:1057500083F8EE20DCE705EB080393F8DC30B34276
:105760000ED90DF10703424649462846FFF7C0FE11
:1057700007469DF807301BB110B90136F6B2EAE7CB
:1057800008F1300305EB8303039A5A60C0E73C46F7
:10579000F6E60424F4E62B19002283F8E22083F8CD
:1057A000E8200134E4B2052CF5D93C46E8E60124B2
:1057B000E6E600BFFCA500082DE9F0438DB000240B
:1057C0000794089409940A940B94624BD3F8E02050
:1057D00042F00402C3F8E020D3F8E02002F0040213
:1057E0000092009AD3F8E02042F08002C3F8E02053
:1057F000D3F8E02002F080020192019AD3F8E02071
:1058000042F00102C3F8E020D3F8E02002F00102E8
:105810000292029AD3F8E02042F00202C3F8E0209C
:10582000D3F8E02002F002020392039AD3F8E020BA
:1058300042F00802C3F8E020D3F8E02002F00802AA
:105840000492049AD3F8E02042F04002C3F8E0202A
:10585000D3F8E02002F040020592059AD3F8E02048
:1058600042F01002C3F8E020D3F8E03003F0100358
:105870000693069BDFF8EC90224644F2010148466D
:1058800002F026F8DFF8E08022464FF480614046BF
:1058900002F01EF8304E22464021304602F018F841
:1058A0002E4F22460221384602F012F84FF40053E0
:1058B00007930894099407A9304601F0FFFE44F2CB
:1058C000010307930125089509940A9407A94846FE
:1058D00001F0F4FE4FF48069CDF81C90089509940E
:1058E0000A9407A9404601F0E9FE802307934FF48C
:1058F00088130893099407A9194801F0DFFE402393
:105900000793089509940A9407A9304601F0D6FE3A
:105910004FF40073079308940994A8F5406807A909
:10592000404601F0CBFECDF81C9002260896099463
:105930000A940A230B9307A9404601F0BFFE07967D
:10594000089509940A9407A9384601F0B7FE0DB0EE
:10595000BDE8F083004402580008025800100258C5
:105960000018025800040258000C025808B51748E5
:10597000174B03604FF4E133436000238360C3603F
:1059800003610C2242618361C361036243628362EB
:1059900003F0B1FC70B900210C4803F024FD60B99C
:1059A00000210A4803F044FD50B9084803F0FCFC0C
:1059B00048B908BDFEF71CFEEDE7FEF719FEEFE75C
:1059C000FEF716FEF1E7FEF713FEF2E7F003002004
:1059D0000048004010B5B6B0044600213191329124
:1059E000339134913591B82202A8FAF78FFD2268DD
:1059F0001B4B9A4201D036B010BD02220023CDE9E4
:105A0000022302A800F046FF38BB164BD3F8E8206B
:105A100042F48022C3F8E820D3F8E82002F4802280
:105A20000092009AD3F8E02042F00802C3F8E02088
:105A3000D3F8E03003F008030193019B4FF4407367
:105A40003193022332930023339334930723359306
:105A500031A9054801F032FECDE7FEF7C9FDD4E7D4
:105A60000048004000440258000C02587047FEE70E
:105A7000FEE7FEE7FEE7FEE770477047704708B5B0
:105A800001F0ACFF08BD000082B0074BD3F8F42052
:105A900042F00202C3F8F420D3F8F43003F002031A
:105AA0000193019B02B0704700440258002804DBB8
:105AB0000901C9B2044B1954704700F00F000901E5
:105AC000C9B2024B1954704700E400E014ED00E045
:105AD00000B500F00700C0F1070CBCF1040F28BFAF
:105AE0004FF0040C031D062B0FD9C31E4FF0FF3ED1
:105AF0000EFA0CF021EA000199400EFA03FE22EAA8
:105B00000E0241EA02005DF804FB0023EEE700000C
